{
	"1_NFT Marketplace/NFT_Marketplace.sol": {
		"NFTMarketplace": {
			"abi": [
				{
					"inputs": [
						{
							"internalType": "address",
							"name": "_TokenA",
							"type": "address"
						}
					],
					"stateMutability": "nonpayable",
					"type": "constructor"
				},
				{
					"inputs": [
						{
							"internalType": "uint256",
							"name": "_nftId",
							"type": "uint256"
						},
						{
							"internalType": "uint256",
							"name": "_sellAmount",
							"type": "uint256"
						}
					],
					"name": "NFTSale",
					"outputs": [],
					"stateMutability": "nonpayable",
					"type": "function"
				},
				{
					"inputs": [],
					"name": "TokenAd",
					"outputs": [
						{
							"internalType": "address",
							"name": "",
							"type": "address"
						}
					],
					"stateMutability": "view",
					"type": "function"
				},
				{
					"inputs": [
						{
							"internalType": "address",
							"name": "",
							"type": "address"
						}
					],
					"name": "balances",
					"outputs": [
						{
							"internalType": "uint256",
							"name": "",
							"type": "uint256"
						}
					],
					"stateMutability": "view",
					"type": "function"
				},
				{
					"inputs": [
						{
							"internalType": "uint256",
							"name": "_nftId",
							"type": "uint256"
						}
					],
					"name": "buyNFT",
					"outputs": [],
					"stateMutability": "nonpayable",
					"type": "function"
				},
				{
					"inputs": [
						{
							"internalType": "uint256",
							"name": "_nftId",
							"type": "uint256"
						},
						{
							"internalType": "uint256",
							"name": "_price",
							"type": "uint256"
						}
					],
					"name": "mintNFT",
					"outputs": [],
					"stateMutability": "payable",
					"type": "function"
				},
				{
					"inputs": [
						{
							"internalType": "uint256",
							"name": "",
							"type": "uint256"
						}
					],
					"name": "nfts",
					"outputs": [
						{
							"internalType": "address",
							"name": "owner",
							"type": "address"
						},
						{
							"internalType": "bool",
							"name": "isForSale",
							"type": "bool"
						},
						{
							"internalType": "uint256",
							"name": "price",
							"type": "uint256"
						}
					],
					"stateMutability": "view",
					"type": "function"
				},
				{
					"inputs": [],
					"name": "sellAmount",
					"outputs": [
						{
							"internalType": "uint256",
							"name": "",
							"type": "uint256"
						}
					],
					"stateMutability": "view",
					"type": "function"
				},
				{
					"inputs": [],
					"name": "withdrawFunds",
					"outputs": [],
					"stateMutability": "nonpayable",
					"type": "function"
				}
			],
			"devdoc": {
				"kind": "dev",
				"methods": {},
				"version": 1
			},
			"evm": {
				"assembly": "    /* \"1_NFT Marketplace/NFT_Marketplace.sol\":124:2234  contract NFTMarketplace {... */\n  mstore(0x40, 0x80)\n    /* \"1_NFT Marketplace/NFT_Marketplace.sol\":400:465  constructor(address _TokenA) {... */\n  callvalue\n  dup1\n  iszero\n  tag_1\n  jumpi\n  0x00\n  dup1\n  revert\ntag_1:\n  pop\n  mload(0x40)\n  sub(codesize, bytecodeSize)\n  dup1\n  bytecodeSize\n  dup4\n  codecopy\n  dup2\n  dup2\n  add\n  0x40\n  mstore\n  dup2\n  add\n  swap1\n  tag_2\n  swap2\n  swap1\n  tag_3\n  jump\t// in\ntag_2:\n    /* \"1_NFT Marketplace/NFT_Marketplace.sol\":450:457  _TokenA */\n  dup1\n    /* \"1_NFT Marketplace/NFT_Marketplace.sol\":440:447  TokenAd */\n  0x00\n  dup1\n    /* \"1_NFT Marketplace/NFT_Marketplace.sol\":440:457  TokenAd = _TokenA */\n  0x0100\n  exp\n  dup2\n  sload\n  dup2\n  0xffffffffffffffffffffffffffffffffffffffff\n  mul\n  not\n  and\n  swap1\n  dup4\n  0xffffffffffffffffffffffffffffffffffffffff\n  and\n  mul\n  or\n  swap1\n  sstore\n  pop\n    /* \"1_NFT Marketplace/NFT_Marketplace.sol\":400:465  constructor(address _TokenA) {... */\n  pop\n    /* \"1_NFT Marketplace/NFT_Marketplace.sol\":124:2234  contract NFTMarketplace {... */\n  jump(tag_6)\n    /* \"#utility.yul\":88:205   */\ntag_8:\n    /* \"#utility.yul\":197:198   */\n  0x00\n    /* \"#utility.yul\":194:195   */\n  dup1\n    /* \"#utility.yul\":187:199   */\n  revert\n    /* \"#utility.yul\":334:460   */\ntag_10:\n    /* \"#utility.yul\":371:378   */\n  0x00\n    /* \"#utility.yul\":411:453   */\n  0xffffffffffffffffffffffffffffffffffffffff\n    /* \"#utility.yul\":404:409   */\n  dup3\n    /* \"#utility.yul\":400:454   */\n  and\n    /* \"#utility.yul\":389:454   */\n  swap1\n  pop\n    /* \"#utility.yul\":334:460   */\n  swap2\n  swap1\n  pop\n  jump\t// out\n    /* \"#utility.yul\":466:562   */\ntag_11:\n    /* \"#utility.yul\":503:510   */\n  0x00\n    /* \"#utility.yul\":532:556   */\n  tag_20\n    /* \"#utility.yul\":550:555   */\n  dup3\n    /* \"#utility.yul\":532:556   */\n  tag_10\n  jump\t// in\ntag_20:\n    /* \"#utility.yul\":521:556   */\n  swap1\n  pop\n    /* \"#utility.yul\":466:562   */\n  swap2\n  swap1\n  pop\n  jump\t// out\n    /* \"#utility.yul\":568:690   */\ntag_12:\n    /* \"#utility.yul\":641:665   */\n  tag_22\n    /* \"#utility.yul\":659:664   */\n  dup2\n    /* \"#utility.yul\":641:665   */\n  tag_11\n  jump\t// in\ntag_22:\n    /* \"#utility.yul\":634:639   */\n  dup2\n    /* \"#utility.yul\":631:666   */\n  eq\n    /* \"#utility.yul\":621:684   */\n  tag_23\n  jumpi\n    /* \"#utility.yul\":680:681   */\n  0x00\n    /* \"#utility.yul\":677:678   */\n  dup1\n    /* \"#utility.yul\":670:682   */\n  revert\n    /* \"#utility.yul\":621:684   */\ntag_23:\n    /* \"#utility.yul\":568:690   */\n  pop\n  jump\t// out\n    /* \"#utility.yul\":696:839   */\ntag_13:\n    /* \"#utility.yul\":753:758   */\n  0x00\n    /* \"#utility.yul\":784:790   */\n  dup2\n    /* \"#utility.yul\":778:791   */\n  mload\n    /* \"#utility.yul\":769:791   */\n  swap1\n  pop\n    /* \"#utility.yul\":800:833   */\n  tag_25\n    /* \"#utility.yul\":827:832   */\n  dup2\n    /* \"#utility.yul\":800:833   */\n  tag_12\n  jump\t// in\ntag_25:\n    /* \"#utility.yul\":696:839   */\n  swap3\n  swap2\n  pop\n  pop\n  jump\t// out\n    /* \"#utility.yul\":845:1196   */\ntag_3:\n    /* \"#utility.yul\":915:921   */\n  0x00\n    /* \"#utility.yul\":964:966   */\n  0x20\n    /* \"#utility.yul\":952:961   */\n  dup3\n    /* \"#utility.yul\":943:950   */\n  dup5\n    /* \"#utility.yul\":939:962   */\n  sub\n    /* \"#utility.yul\":935:967   */\n  slt\n    /* \"#utility.yul\":932:1051   */\n  iszero\n  tag_27\n  jumpi\n    /* \"#utility.yul\":970:1049   */\n  tag_28\n  tag_8\n  jump\t// in\ntag_28:\n    /* \"#utility.yul\":932:1051   */\ntag_27:\n    /* \"#utility.yul\":1090:1091   */\n  0x00\n    /* \"#utility.yul\":1115:1179   */\n  tag_29\n    /* \"#utility.yul\":1171:1178   */\n  dup5\n    /* \"#utility.yul\":1162:1168   */\n  dup3\n    /* \"#utility.yul\":1151:1160   */\n  dup6\n    /* \"#utility.yul\":1147:1169   */\n  add\n    /* \"#utility.yul\":1115:1179   */\n  tag_13\n  jump\t// in\ntag_29:\n    /* \"#utility.yul\":1105:1179   */\n  swap2\n  pop\n    /* \"#utility.yul\":1061:1189   */\n  pop\n    /* \"#utility.yul\":845:1196   */\n  swap3\n  swap2\n  pop\n  pop\n  jump\t// out\n    /* \"1_NFT Marketplace/NFT_Marketplace.sol\":124:2234  contract NFTMarketplace {... */\ntag_6:\n  dataSize(sub_0)\n  dup1\n  dataOffset(sub_0)\n  0x00\n  codecopy\n  0x00\n  return\nstop\n\nsub_0: assembly {\n        /* \"1_NFT Marketplace/NFT_Marketplace.sol\":124:2234  contract NFTMarketplace {... */\n      mstore(0x40, 0x80)\n      jumpi(tag_1, lt(calldatasize, 0x04))\n      shr(0xe0, calldataload(0x00))\n      dup1\n      0x49c114fc\n      gt\n      tag_10\n      jumpi\n      dup1\n      0x49c114fc\n      eq\n      tag_6\n      jumpi\n      dup1\n      0x51ed8288\n      eq\n      tag_7\n      jumpi\n      dup1\n      0x98953037\n      eq\n      tag_8\n      jumpi\n      dup1\n      0xc48283ff\n      eq\n      tag_9\n      jumpi\n      jump(tag_1)\n    tag_10:\n      dup1\n      0x24600fc3\n      eq\n      tag_2\n      jumpi\n      dup1\n      0x265aa621\n      eq\n      tag_3\n      jumpi\n      dup1\n      0x27e235e3\n      eq\n      tag_4\n      jumpi\n      dup1\n      0x3f407b84\n      eq\n      tag_5\n      jumpi\n    tag_1:\n      0x00\n      dup1\n      revert\n        /* \"1_NFT Marketplace/NFT_Marketplace.sol\":1853:2231  function withdrawFunds() external {... */\n    tag_2:\n      callvalue\n      dup1\n      iszero\n      tag_11\n      jumpi\n      0x00\n      dup1\n      revert\n    tag_11:\n      pop\n      tag_12\n      tag_13\n      jump\t// in\n    tag_12:\n      stop\n        /* \"1_NFT Marketplace/NFT_Marketplace.sol\":312:344  mapping(uint => NFT) public nfts */\n    tag_3:\n      callvalue\n      dup1\n      iszero\n      tag_14\n      jumpi\n      0x00\n      dup1\n      revert\n    tag_14:\n      pop\n      tag_15\n      0x04\n      dup1\n      calldatasize\n      sub\n      dup2\n      add\n      swap1\n      tag_16\n      swap2\n      swap1\n      tag_17\n      jump\t// in\n    tag_16:\n      tag_18\n      jump\t// in\n    tag_15:\n      mload(0x40)\n      tag_19\n      swap4\n      swap3\n      swap2\n      swap1\n      tag_20\n      jump\t// in\n    tag_19:\n      mload(0x40)\n      dup1\n      swap2\n      sub\n      swap1\n      return\n        /* \"1_NFT Marketplace/NFT_Marketplace.sol\":351:391  mapping(address => uint) public balances */\n    tag_4:\n      callvalue\n      dup1\n      iszero\n      tag_21\n      jumpi\n      0x00\n      dup1\n      revert\n    tag_21:\n      pop\n      tag_22\n      0x04\n      dup1\n      calldatasize\n      sub\n      dup2\n      add\n      swap1\n      tag_23\n      swap2\n      swap1\n      tag_24\n      jump\t// in\n    tag_23:\n      tag_25\n      jump\t// in\n    tag_22:\n      mload(0x40)\n      tag_26\n      swap2\n      swap1\n      tag_27\n      jump\t// in\n    tag_26:\n      mload(0x40)\n      dup1\n      swap2\n      sub\n      swap1\n      return\n        /* \"1_NFT Marketplace/NFT_Marketplace.sol\":281:303  uint public sellAmount */\n    tag_5:\n      callvalue\n      dup1\n      iszero\n      tag_28\n      jumpi\n      0x00\n      dup1\n      revert\n    tag_28:\n      pop\n      tag_29\n      tag_30\n      jump\t// in\n    tag_29:\n      mload(0x40)\n      tag_31\n      swap2\n      swap1\n      tag_27\n      jump\t// in\n    tag_31:\n      mload(0x40)\n      dup1\n      swap2\n      sub\n      swap1\n      return\n        /* \"1_NFT Marketplace/NFT_Marketplace.sol\":827:1185  function NFTSale(uint _nftId, uint _sellAmount) external {... */\n    tag_6:\n      callvalue\n      dup1\n      iszero\n      tag_32\n      jumpi\n      0x00\n      dup1\n      revert\n    tag_32:\n      pop\n      tag_33\n      0x04\n      dup1\n      calldatasize\n      sub\n      dup2\n      add\n      swap1\n      tag_34\n      swap2\n      swap1\n      tag_35\n      jump\t// in\n    tag_34:\n      tag_36\n      jump\t// in\n    tag_33:\n      stop\n        /* \"1_NFT Marketplace/NFT_Marketplace.sol\":1193:1785  function buyNFT(uint _nftId) external {... */\n    tag_7:\n      callvalue\n      dup1\n      iszero\n      tag_37\n      jumpi\n      0x00\n      dup1\n      revert\n    tag_37:\n      pop\n      tag_38\n      0x04\n      dup1\n      calldatasize\n      sub\n      dup2\n      add\n      swap1\n      tag_39\n      swap2\n      swap1\n      tag_17\n      jump\t// in\n    tag_39:\n      tag_40\n      jump\t// in\n    tag_38:\n      stop\n        /* \"1_NFT Marketplace/NFT_Marketplace.sol\":252:274  address public TokenAd */\n    tag_8:\n      callvalue\n      dup1\n      iszero\n      tag_41\n      jumpi\n      0x00\n      dup1\n      revert\n    tag_41:\n      pop\n      tag_42\n      tag_43\n      jump\t// in\n    tag_42:\n      mload(0x40)\n      tag_44\n      swap2\n      swap1\n      tag_45\n      jump\t// in\n    tag_44:\n      mload(0x40)\n      dup1\n      swap2\n      sub\n      swap1\n      return\n        /* \"1_NFT Marketplace/NFT_Marketplace.sol\":473:819  function mintNFT(uint _nftId, uint _price) external payable {... */\n    tag_9:\n      tag_46\n      0x04\n      dup1\n      calldatasize\n      sub\n      dup2\n      add\n      swap1\n      tag_47\n      swap2\n      swap1\n      tag_35\n      jump\t// in\n    tag_47:\n      tag_48\n      jump\t// in\n    tag_46:\n      stop\n        /* \"1_NFT Marketplace/NFT_Marketplace.sol\":1853:2231  function withdrawFunds() external {... */\n    tag_13:\n        /* \"1_NFT Marketplace/NFT_Marketplace.sol\":1898:1909  uint amount */\n      0x00\n        /* \"1_NFT Marketplace/NFT_Marketplace.sol\":1912:1920  balances */\n      0x03\n        /* \"1_NFT Marketplace/NFT_Marketplace.sol\":1912:1932  balances[msg.sender] */\n      0x00\n        /* \"1_NFT Marketplace/NFT_Marketplace.sol\":1921:1931  msg.sender */\n      caller\n        /* \"1_NFT Marketplace/NFT_Marketplace.sol\":1912:1932  balances[msg.sender] */\n      0xffffffffffffffffffffffffffffffffffffffff\n      and\n      0xffffffffffffffffffffffffffffffffffffffff\n      and\n      dup2\n      mstore\n      0x20\n      add\n      swap1\n      dup2\n      mstore\n      0x20\n      add\n      0x00\n      keccak256\n      sload\n        /* \"1_NFT Marketplace/NFT_Marketplace.sol\":1898:1932  uint amount = balances[msg.sender] */\n      swap1\n      pop\n        /* \"1_NFT Marketplace/NFT_Marketplace.sol\":1960:1961  0 */\n      0x00\n        /* \"1_NFT Marketplace/NFT_Marketplace.sol\":1951:1957  amount */\n      dup2\n        /* \"1_NFT Marketplace/NFT_Marketplace.sol\":1951:1961  amount > 0 */\n      gt\n        /* \"1_NFT Marketplace/NFT_Marketplace.sol\":1943:1986  require(amount > 0, \"No funds to withdraw\") */\n      tag_50\n      jumpi\n      mload(0x40)\n      0x08c379a000000000000000000000000000000000000000000000000000000000\n      dup2\n      mstore\n      0x04\n      add\n      tag_51\n      swap1\n      tag_52\n      jump\t// in\n    tag_51:\n      mload(0x40)\n      dup1\n      swap2\n      sub\n      swap1\n      revert\n    tag_50:\n        /* \"1_NFT Marketplace/NFT_Marketplace.sol\":2022:2023  0 */\n      0x00\n        /* \"1_NFT Marketplace/NFT_Marketplace.sol\":1999:2007  balances */\n      0x03\n        /* \"1_NFT Marketplace/NFT_Marketplace.sol\":1999:2019  balances[msg.sender] */\n      0x00\n        /* \"1_NFT Marketplace/NFT_Marketplace.sol\":2008:2018  msg.sender */\n      caller\n        /* \"1_NFT Marketplace/NFT_Marketplace.sol\":1999:2019  balances[msg.sender] */\n      0xffffffffffffffffffffffffffffffffffffffff\n      and\n      0xffffffffffffffffffffffffffffffffffffffff\n      and\n      dup2\n      mstore\n      0x20\n      add\n      swap1\n      dup2\n      mstore\n      0x20\n      add\n      0x00\n      keccak256\n        /* \"1_NFT Marketplace/NFT_Marketplace.sol\":1999:2023  balances[msg.sender] = 0 */\n      dup2\n      swap1\n      sstore\n      pop\n        /* \"1_NFT Marketplace/NFT_Marketplace.sol\":2071:2081  msg.sender */\n      caller\n        /* \"1_NFT Marketplace/NFT_Marketplace.sol\":2063:2091  payable(msg.sender).transfer */\n      0xffffffffffffffffffffffffffffffffffffffff\n      and\n        /* \"1_NFT Marketplace/NFT_Marketplace.sol\":2063:2099  payable(msg.sender).transfer(amount) */\n      0x08fc\n        /* \"1_NFT Marketplace/NFT_Marketplace.sol\":2092:2098  amount */\n      dup3\n        /* \"1_NFT Marketplace/NFT_Marketplace.sol\":2063:2099  payable(msg.sender).transfer(amount) */\n      swap1\n      dup2\n      iszero\n      mul\n      swap1\n      mload(0x40)\n      0x00\n      mload(0x40)\n      dup1\n      dup4\n      sub\n      dup2\n      dup6\n      dup9\n      dup9\n      call\n      swap4\n      pop\n      pop\n      pop\n      pop\n      iszero\n      dup1\n      iszero\n      tag_54\n      jumpi\n      returndatasize\n      0x00\n      dup1\n      returndatacopy\n      revert(0x00, returndatasize)\n    tag_54:\n      pop\n        /* \"1_NFT Marketplace/NFT_Marketplace.sol\":2146:2159  TokenA AToken */\n      0x00\n        /* \"1_NFT Marketplace/NFT_Marketplace.sol\":2169:2176  TokenAd */\n      dup1\n      0x00\n      swap1\n      sload\n      swap1\n      0x0100\n      exp\n      swap1\n      div\n      0xffffffffffffffffffffffffffffffffffffffff\n      and\n        /* \"1_NFT Marketplace/NFT_Marketplace.sol\":2146:2177  TokenA AToken = TokenA(TokenAd) */\n      swap1\n      pop\n        /* \"1_NFT Marketplace/NFT_Marketplace.sol\":2188:2194  AToken */\n      dup1\n        /* \"1_NFT Marketplace/NFT_Marketplace.sol\":2188:2203  AToken.transfer */\n      0xffffffffffffffffffffffffffffffffffffffff\n      and\n      0xa9059cbb\n        /* \"1_NFT Marketplace/NFT_Marketplace.sol\":2204:2214  msg.sender */\n      caller\n        /* \"1_NFT Marketplace/NFT_Marketplace.sol\":2216:2222  amount */\n      dup5\n        /* \"1_NFT Marketplace/NFT_Marketplace.sol\":2188:2223  AToken.transfer(msg.sender, amount) */\n      mload(0x40)\n      dup4\n      0xffffffff\n      and\n      0xe0\n      shl\n      dup2\n      mstore\n      0x04\n      add\n      tag_55\n      swap3\n      swap2\n      swap1\n      tag_56\n      jump\t// in\n    tag_55:\n      0x20\n      mload(0x40)\n      dup1\n      dup4\n      sub\n      dup2\n      0x00\n      dup8\n      gas\n      call\n      iszero\n      dup1\n      iszero\n      tag_58\n      jumpi\n      returndatasize\n      0x00\n      dup1\n      returndatacopy\n      revert(0x00, returndatasize)\n    tag_58:\n      pop\n      pop\n      pop\n      pop\n      mload(0x40)\n      returndatasize\n      not(0x1f)\n      0x1f\n      dup3\n      add\n      and\n      dup3\n      add\n      dup1\n      0x40\n      mstore\n      pop\n      dup2\n      add\n      swap1\n      tag_59\n      swap2\n      swap1\n      tag_60\n      jump\t// in\n    tag_59:\n      pop\n        /* \"1_NFT Marketplace/NFT_Marketplace.sol\":1887:2231  {... */\n      pop\n      pop\n        /* \"1_NFT Marketplace/NFT_Marketplace.sol\":1853:2231  function withdrawFunds() external {... */\n      jump\t// out\n        /* \"1_NFT Marketplace/NFT_Marketplace.sol\":312:344  mapping(uint => NFT) public nfts */\n    tag_18:\n      mstore(0x20, 0x02)\n      dup1\n      0x00\n      mstore\n      keccak256(0x00, 0x40)\n      0x00\n      swap2\n      pop\n      swap1\n      pop\n      dup1\n      0x00\n      add\n      0x00\n      swap1\n      sload\n      swap1\n      0x0100\n      exp\n      swap1\n      div\n      0xffffffffffffffffffffffffffffffffffffffff\n      and\n      swap1\n      dup1\n      0x00\n      add\n      0x14\n      swap1\n      sload\n      swap1\n      0x0100\n      exp\n      swap1\n      div\n      0xff\n      and\n      swap1\n      dup1\n      0x01\n      add\n      sload\n      swap1\n      pop\n      dup4\n      jump\t// out\n        /* \"1_NFT Marketplace/NFT_Marketplace.sol\":351:391  mapping(address => uint) public balances */\n    tag_25:\n      mstore(0x20, 0x03)\n      dup1\n      0x00\n      mstore\n      keccak256(0x00, 0x40)\n      0x00\n      swap2\n      pop\n      swap1\n      pop\n      sload\n      dup2\n      jump\t// out\n        /* \"1_NFT Marketplace/NFT_Marketplace.sol\":281:303  uint public sellAmount */\n    tag_30:\n      sload(0x01)\n      dup2\n      jump\t// out\n        /* \"1_NFT Marketplace/NFT_Marketplace.sol\":827:1185  function NFTSale(uint _nftId, uint _sellAmount) external {... */\n    tag_36:\n        /* \"1_NFT Marketplace/NFT_Marketplace.sol\":925:935  msg.sender */\n      caller\n        /* \"1_NFT Marketplace/NFT_Marketplace.sol\":903:935  nfts[_nftId].owner == msg.sender */\n      0xffffffffffffffffffffffffffffffffffffffff\n      and\n        /* \"1_NFT Marketplace/NFT_Marketplace.sol\":903:907  nfts */\n      0x02\n        /* \"1_NFT Marketplace/NFT_Marketplace.sol\":903:915  nfts[_nftId] */\n      0x00\n        /* \"1_NFT Marketplace/NFT_Marketplace.sol\":908:914  _nftId */\n      dup5\n        /* \"1_NFT Marketplace/NFT_Marketplace.sol\":903:915  nfts[_nftId] */\n      dup2\n      mstore\n      0x20\n      add\n      swap1\n      dup2\n      mstore\n      0x20\n      add\n      0x00\n      keccak256\n        /* \"1_NFT Marketplace/NFT_Marketplace.sol\":903:921  nfts[_nftId].owner */\n      0x00\n      add\n      0x00\n      swap1\n      sload\n      swap1\n      0x0100\n      exp\n      swap1\n      div\n      0xffffffffffffffffffffffffffffffffffffffff\n      and\n        /* \"1_NFT Marketplace/NFT_Marketplace.sol\":903:935  nfts[_nftId].owner == msg.sender */\n      0xffffffffffffffffffffffffffffffffffffffff\n      and\n      eq\n        /* \"1_NFT Marketplace/NFT_Marketplace.sol\":895:957  require(nfts[_nftId].owner == msg.sender, \"Not the NFT owner\") */\n      tag_62\n      jumpi\n      mload(0x40)\n      0x08c379a000000000000000000000000000000000000000000000000000000000\n      dup2\n      mstore\n      0x04\n      add\n      tag_63\n      swap1\n      tag_64\n      jump\t// in\n    tag_63:\n      mload(0x40)\n      dup1\n      swap2\n      sub\n      swap1\n      revert\n    tag_62:\n        /* \"1_NFT Marketplace/NFT_Marketplace.sol\":977:981  nfts */\n      0x02\n        /* \"1_NFT Marketplace/NFT_Marketplace.sol\":977:989  nfts[_nftId] */\n      0x00\n        /* \"1_NFT Marketplace/NFT_Marketplace.sol\":982:988  _nftId */\n      dup4\n        /* \"1_NFT Marketplace/NFT_Marketplace.sol\":977:989  nfts[_nftId] */\n      dup2\n      mstore\n      0x20\n      add\n      swap1\n      dup2\n      mstore\n      0x20\n      add\n      0x00\n      keccak256\n        /* \"1_NFT Marketplace/NFT_Marketplace.sol\":977:999  nfts[_nftId].isForSale */\n      0x00\n      add\n      0x14\n      swap1\n      sload\n      swap1\n      0x0100\n      exp\n      swap1\n      div\n      0xff\n      and\n        /* \"1_NFT Marketplace/NFT_Marketplace.sol\":976:999  !nfts[_nftId].isForSale */\n      iszero\n        /* \"1_NFT Marketplace/NFT_Marketplace.sol\":968:1027  require(!nfts[_nftId].isForSale, \"NFT is already for sale\") */\n      tag_65\n      jumpi\n      mload(0x40)\n      0x08c379a000000000000000000000000000000000000000000000000000000000\n      dup2\n      mstore\n      0x04\n      add\n      tag_66\n      swap1\n      tag_67\n      jump\t// in\n    tag_66:\n      mload(0x40)\n      dup1\n      swap2\n      sub\n      swap1\n      revert\n    tag_65:\n        /* \"1_NFT Marketplace/NFT_Marketplace.sol\":1060:1061  0 */\n      0x00\n        /* \"1_NFT Marketplace/NFT_Marketplace.sol\":1046:1057  _sellAmount */\n      dup2\n        /* \"1_NFT Marketplace/NFT_Marketplace.sol\":1046:1061  _sellAmount > 0 */\n      gt\n        /* \"1_NFT Marketplace/NFT_Marketplace.sol\":1038:1100  require(_sellAmount > 0, \"Sell amount must be greater than 0\") */\n      tag_68\n      jumpi\n      mload(0x40)\n      0x08c379a000000000000000000000000000000000000000000000000000000000\n      dup2\n      mstore\n      0x04\n      add\n      tag_69\n      swap1\n      tag_70\n      jump\t// in\n    tag_69:\n      mload(0x40)\n      dup1\n      swap2\n      sub\n      swap1\n      revert\n    tag_68:\n        /* \"1_NFT Marketplace/NFT_Marketplace.sol\":1126:1137  _sellAmount */\n      dup1\n        /* \"1_NFT Marketplace/NFT_Marketplace.sol\":1113:1123  sellAmount */\n      0x01\n        /* \"1_NFT Marketplace/NFT_Marketplace.sol\":1113:1137  sellAmount = _sellAmount */\n      dup2\n      swap1\n      sstore\n      pop\n        /* \"1_NFT Marketplace/NFT_Marketplace.sol\":1173:1177  true */\n      0x01\n        /* \"1_NFT Marketplace/NFT_Marketplace.sol\":1148:1152  nfts */\n      0x02\n        /* \"1_NFT Marketplace/NFT_Marketplace.sol\":1148:1160  nfts[_nftId] */\n      0x00\n        /* \"1_NFT Marketplace/NFT_Marketplace.sol\":1153:1159  _nftId */\n      dup5\n        /* \"1_NFT Marketplace/NFT_Marketplace.sol\":1148:1160  nfts[_nftId] */\n      dup2\n      mstore\n      0x20\n      add\n      swap1\n      dup2\n      mstore\n      0x20\n      add\n      0x00\n      keccak256\n        /* \"1_NFT Marketplace/NFT_Marketplace.sol\":1148:1170  nfts[_nftId].isForSale */\n      0x00\n      add\n      0x14\n        /* \"1_NFT Marketplace/NFT_Marketplace.sol\":1148:1177  nfts[_nftId].isForSale = true */\n      0x0100\n      exp\n      dup2\n      sload\n      dup2\n      0xff\n      mul\n      not\n      and\n      swap1\n      dup4\n      iszero\n      iszero\n      mul\n      or\n      swap1\n      sstore\n      pop\n        /* \"1_NFT Marketplace/NFT_Marketplace.sol\":827:1185  function NFTSale(uint _nftId, uint _sellAmount) external {... */\n      pop\n      pop\n      jump\t// out\n        /* \"1_NFT Marketplace/NFT_Marketplace.sol\":1193:1785  function buyNFT(uint _nftId) external {... */\n    tag_40:\n        /* \"1_NFT Marketplace/NFT_Marketplace.sol\":1242:1257  NFT storage nft */\n      0x00\n        /* \"1_NFT Marketplace/NFT_Marketplace.sol\":1260:1264  nfts */\n      0x02\n        /* \"1_NFT Marketplace/NFT_Marketplace.sol\":1260:1272  nfts[_nftId] */\n      0x00\n        /* \"1_NFT Marketplace/NFT_Marketplace.sol\":1265:1271  _nftId */\n      dup4\n        /* \"1_NFT Marketplace/NFT_Marketplace.sol\":1260:1272  nfts[_nftId] */\n      dup2\n      mstore\n      0x20\n      add\n      swap1\n      dup2\n      mstore\n      0x20\n      add\n      0x00\n      keccak256\n        /* \"1_NFT Marketplace/NFT_Marketplace.sol\":1242:1272  NFT storage nft = nfts[_nftId] */\n      swap1\n      pop\n        /* \"1_NFT Marketplace/NFT_Marketplace.sol\":1291:1294  nft */\n      dup1\n        /* \"1_NFT Marketplace/NFT_Marketplace.sol\":1291:1304  nft.isForSale */\n      0x00\n      add\n      0x14\n      swap1\n      sload\n      swap1\n      0x0100\n      exp\n      swap1\n      div\n      0xff\n      and\n        /* \"1_NFT Marketplace/NFT_Marketplace.sol\":1283:1328  require(nft.isForSale, \"NFT is not for sale\") */\n      tag_72\n      jumpi\n      mload(0x40)\n      0x08c379a000000000000000000000000000000000000000000000000000000000\n      dup2\n      mstore\n      0x04\n      add\n      tag_73\n      swap1\n      tag_74\n      jump\t// in\n    tag_73:\n      mload(0x40)\n      dup1\n      swap2\n      sub\n      swap1\n      revert\n    tag_72:\n        /* \"1_NFT Marketplace/NFT_Marketplace.sol\":1359:1360  0 */\n      0x00\n        /* \"1_NFT Marketplace/NFT_Marketplace.sol\":1347:1350  nft */\n      dup2\n        /* \"1_NFT Marketplace/NFT_Marketplace.sol\":1347:1356  nft.price */\n      0x01\n      add\n      sload\n        /* \"1_NFT Marketplace/NFT_Marketplace.sol\":1347:1360  nft.price > 0 */\n      gt\n        /* \"1_NFT Marketplace/NFT_Marketplace.sol\":1339:1397  require(nft.price > 0, \"NFT price must be greater than 0\") */\n      tag_75\n      jumpi\n      mload(0x40)\n      0x08c379a000000000000000000000000000000000000000000000000000000000\n      dup2\n      mstore\n      0x04\n      add\n      tag_76\n      swap1\n      tag_77\n      jump\t// in\n    tag_76:\n      mload(0x40)\n      dup1\n      swap2\n      sub\n      swap1\n      revert\n    tag_75:\n        /* \"1_NFT Marketplace/NFT_Marketplace.sol\":1465:1478  TokenA AToken */\n      0x00\n        /* \"1_NFT Marketplace/NFT_Marketplace.sol\":1488:1495  TokenAd */\n      dup1\n      0x00\n      swap1\n      sload\n      swap1\n      0x0100\n      exp\n      swap1\n      div\n      0xffffffffffffffffffffffffffffffffffffffff\n      and\n        /* \"1_NFT Marketplace/NFT_Marketplace.sol\":1465:1496  TokenA AToken = TokenA(TokenAd) */\n      swap1\n      pop\n        /* \"1_NFT Marketplace/NFT_Marketplace.sol\":1507:1513  AToken */\n      dup1\n        /* \"1_NFT Marketplace/NFT_Marketplace.sol\":1507:1526  AToken.transferFrom */\n      0xffffffffffffffffffffffffffffffffffffffff\n      and\n      0x23b872dd\n        /* \"1_NFT Marketplace/NFT_Marketplace.sol\":1527:1537  msg.sender */\n      caller\n        /* \"1_NFT Marketplace/NFT_Marketplace.sol\":1539:1542  nft */\n      dup5\n        /* \"1_NFT Marketplace/NFT_Marketplace.sol\":1539:1548  nft.owner */\n      0x00\n      add\n      0x00\n      swap1\n      sload\n      swap1\n      0x0100\n      exp\n      swap1\n      div\n      0xffffffffffffffffffffffffffffffffffffffff\n      and\n        /* \"1_NFT Marketplace/NFT_Marketplace.sol\":1550:1551  1 */\n      0x01\n        /* \"1_NFT Marketplace/NFT_Marketplace.sol\":1507:1552  AToken.transferFrom(msg.sender, nft.owner, 1) */\n      mload(0x40)\n      dup5\n      0xffffffff\n      and\n      0xe0\n      shl\n      dup2\n      mstore\n      0x04\n      add\n      tag_78\n      swap4\n      swap3\n      swap2\n      swap1\n      tag_79\n      jump\t// in\n    tag_78:\n      0x20\n      mload(0x40)\n      dup1\n      dup4\n      sub\n      dup2\n      0x00\n      dup8\n      gas\n      call\n      iszero\n      dup1\n      iszero\n      tag_81\n      jumpi\n      returndatasize\n      0x00\n      dup1\n      returndatacopy\n      revert(0x00, returndatasize)\n    tag_81:\n      pop\n      pop\n      pop\n      pop\n      mload(0x40)\n      returndatasize\n      not(0x1f)\n      0x1f\n      dup3\n      add\n      and\n      dup3\n      add\n      dup1\n      0x40\n      mstore\n      pop\n      dup2\n      add\n      swap1\n      tag_82\n      swap2\n      swap1\n      tag_60\n      jump\t// in\n    tag_82:\n      pop\n        /* \"1_NFT Marketplace/NFT_Marketplace.sol\":1670:1673  nft */\n      dup2\n        /* \"1_NFT Marketplace/NFT_Marketplace.sol\":1670:1679  nft.price */\n      0x01\n      add\n      sload\n        /* \"1_NFT Marketplace/NFT_Marketplace.sol\":1647:1655  balances */\n      0x03\n        /* \"1_NFT Marketplace/NFT_Marketplace.sol\":1647:1666  balances[nft.owner] */\n      0x00\n        /* \"1_NFT Marketplace/NFT_Marketplace.sol\":1656:1659  nft */\n      dup5\n        /* \"1_NFT Marketplace/NFT_Marketplace.sol\":1656:1665  nft.owner */\n      0x00\n      add\n      0x00\n      swap1\n      sload\n      swap1\n      0x0100\n      exp\n      swap1\n      div\n      0xffffffffffffffffffffffffffffffffffffffff\n      and\n        /* \"1_NFT Marketplace/NFT_Marketplace.sol\":1647:1666  balances[nft.owner] */\n      0xffffffffffffffffffffffffffffffffffffffff\n      and\n      0xffffffffffffffffffffffffffffffffffffffff\n      and\n      dup2\n      mstore\n      0x20\n      add\n      swap1\n      dup2\n      mstore\n      0x20\n      add\n      0x00\n      keccak256\n      0x00\n        /* \"1_NFT Marketplace/NFT_Marketplace.sol\":1647:1679  balances[nft.owner] += nft.price */\n      dup3\n      dup3\n      sload\n      tag_83\n      swap2\n      swap1\n      tag_84\n      jump\t// in\n    tag_83:\n      swap3\n      pop\n      pop\n      dup2\n      swap1\n      sstore\n      pop\n        /* \"1_NFT Marketplace/NFT_Marketplace.sol\":1735:1745  msg.sender */\n      caller\n        /* \"1_NFT Marketplace/NFT_Marketplace.sol\":1723:1726  nft */\n      dup3\n        /* \"1_NFT Marketplace/NFT_Marketplace.sol\":1723:1732  nft.owner */\n      0x00\n      add\n      0x00\n        /* \"1_NFT Marketplace/NFT_Marketplace.sol\":1723:1745  nft.owner = msg.sender */\n      0x0100\n      exp\n      dup2\n      sload\n      dup2\n      0xffffffffffffffffffffffffffffffffffffffff\n      mul\n      not\n      and\n      swap1\n      dup4\n      0xffffffffffffffffffffffffffffffffffffffff\n      and\n      mul\n      or\n      swap1\n      sstore\n      pop\n        /* \"1_NFT Marketplace/NFT_Marketplace.sol\":1772:1777  false */\n      0x00\n        /* \"1_NFT Marketplace/NFT_Marketplace.sol\":1756:1759  nft */\n      dup3\n        /* \"1_NFT Marketplace/NFT_Marketplace.sol\":1756:1769  nft.isForSale */\n      0x00\n      add\n      0x14\n        /* \"1_NFT Marketplace/NFT_Marketplace.sol\":1756:1777  nft.isForSale = false */\n      0x0100\n      exp\n      dup2\n      sload\n      dup2\n      0xff\n      mul\n      not\n      and\n      swap1\n      dup4\n      iszero\n      iszero\n      mul\n      or\n      swap1\n      sstore\n      pop\n        /* \"1_NFT Marketplace/NFT_Marketplace.sol\":1231:1785  {... */\n      pop\n      pop\n        /* \"1_NFT Marketplace/NFT_Marketplace.sol\":1193:1785  function buyNFT(uint _nftId) external {... */\n      pop\n      jump\t// out\n        /* \"1_NFT Marketplace/NFT_Marketplace.sol\":252:274  address public TokenAd */\n    tag_43:\n      0x00\n      dup1\n      sload\n      swap1\n      0x0100\n      exp\n      swap1\n      div\n      0xffffffffffffffffffffffffffffffffffffffff\n      and\n      dup2\n      jump\t// out\n        /* \"1_NFT Marketplace/NFT_Marketplace.sol\":473:819  function mintNFT(uint _nftId, uint _price) external payable {... */\n    tag_48:\n        /* \"1_NFT Marketplace/NFT_Marketplace.sol\":582:583  0 */\n      0x00\n        /* \"1_NFT Marketplace/NFT_Marketplace.sol\":552:584  nfts[_nftId].owner == address(0) */\n      0xffffffffffffffffffffffffffffffffffffffff\n      and\n        /* \"1_NFT Marketplace/NFT_Marketplace.sol\":552:556  nfts */\n      0x02\n        /* \"1_NFT Marketplace/NFT_Marketplace.sol\":552:564  nfts[_nftId] */\n      0x00\n        /* \"1_NFT Marketplace/NFT_Marketplace.sol\":557:563  _nftId */\n      dup5\n        /* \"1_NFT Marketplace/NFT_Marketplace.sol\":552:564  nfts[_nftId] */\n      dup2\n      mstore\n      0x20\n      add\n      swap1\n      dup2\n      mstore\n      0x20\n      add\n      0x00\n      keccak256\n        /* \"1_NFT Marketplace/NFT_Marketplace.sol\":552:570  nfts[_nftId].owner */\n      0x00\n      add\n      0x00\n      swap1\n      sload\n      swap1\n      0x0100\n      exp\n      swap1\n      div\n      0xffffffffffffffffffffffffffffffffffffffff\n      and\n        /* \"1_NFT Marketplace/NFT_Marketplace.sol\":552:584  nfts[_nftId].owner == address(0) */\n      0xffffffffffffffffffffffffffffffffffffffff\n      and\n      eq\n        /* \"1_NFT Marketplace/NFT_Marketplace.sol\":544:607  require(nfts[_nftId].owner == address(0), \"NFT already exists\") */\n      tag_86\n      jumpi\n      mload(0x40)\n      0x08c379a000000000000000000000000000000000000000000000000000000000\n      dup2\n      mstore\n      0x04\n      add\n      tag_87\n      swap1\n      tag_88\n      jump\t// in\n    tag_87:\n      mload(0x40)\n      dup1\n      swap2\n      sub\n      swap1\n      revert\n    tag_86:\n        /* \"1_NFT Marketplace/NFT_Marketplace.sol\":639:648  0.1 ether */\n      0x016345785d8a0000\n        /* \"1_NFT Marketplace/NFT_Marketplace.sol\":626:635  msg.value */\n      callvalue\n        /* \"1_NFT Marketplace/NFT_Marketplace.sol\":626:648  msg.value == 0.1 ether */\n      eq\n        /* \"1_NFT Marketplace/NFT_Marketplace.sol\":618:676  require(msg.value == 0.1 ether, \"Insufficient Ether sent\") */\n      tag_89\n      jumpi\n      mload(0x40)\n      0x08c379a000000000000000000000000000000000000000000000000000000000\n      dup2\n      mstore\n      0x04\n      add\n      tag_90\n      swap1\n      tag_91\n      jump\t// in\n    tag_90:\n      mload(0x40)\n      dup1\n      swap2\n      sub\n      swap1\n      revert\n    tag_89:\n        /* \"1_NFT Marketplace/NFT_Marketplace.sol\":704:811  NFT({... */\n      mload(0x40)\n      dup1\n      0x60\n      add\n      0x40\n      mstore\n      dup1\n        /* \"1_NFT Marketplace/NFT_Marketplace.sol\":730:740  msg.sender */\n      caller\n        /* \"1_NFT Marketplace/NFT_Marketplace.sol\":704:811  NFT({... */\n      0xffffffffffffffffffffffffffffffffffffffff\n      and\n      dup2\n      mstore\n      0x20\n      add\n        /* \"1_NFT Marketplace/NFT_Marketplace.sol\":766:771  false */\n      0x00\n        /* \"1_NFT Marketplace/NFT_Marketplace.sol\":704:811  NFT({... */\n      iszero\n      iszero\n      dup2\n      mstore\n      0x20\n      add\n        /* \"1_NFT Marketplace/NFT_Marketplace.sol\":793:799  _price */\n      dup3\n        /* \"1_NFT Marketplace/NFT_Marketplace.sol\":704:811  NFT({... */\n      dup2\n      mstore\n      pop\n        /* \"1_NFT Marketplace/NFT_Marketplace.sol\":689:693  nfts */\n      0x02\n        /* \"1_NFT Marketplace/NFT_Marketplace.sol\":689:701  nfts[_nftId] */\n      0x00\n        /* \"1_NFT Marketplace/NFT_Marketplace.sol\":694:700  _nftId */\n      dup5\n        /* \"1_NFT Marketplace/NFT_Marketplace.sol\":689:701  nfts[_nftId] */\n      dup2\n      mstore\n      0x20\n      add\n      swap1\n      dup2\n      mstore\n      0x20\n      add\n      0x00\n      keccak256\n        /* \"1_NFT Marketplace/NFT_Marketplace.sol\":689:811  nfts[_nftId] = NFT({... */\n      0x00\n      dup3\n      add\n      mload\n      dup2\n      0x00\n      add\n      exp(0x0100, 0x00)\n      dup2\n      sload\n      dup2\n      0xffffffffffffffffffffffffffffffffffffffff\n      mul\n      not\n      and\n      swap1\n      dup4\n      0xffffffffffffffffffffffffffffffffffffffff\n      and\n      mul\n      or\n      swap1\n      sstore\n      pop\n      0x20\n      dup3\n      add\n      mload\n      dup2\n      0x00\n      add\n      exp(0x0100, 0x14)\n      dup2\n      sload\n      dup2\n      0xff\n      mul\n      not\n      and\n      swap1\n      dup4\n      iszero\n      iszero\n      mul\n      or\n      swap1\n      sstore\n      pop\n      0x40\n      dup3\n      add\n      mload\n      dup2\n      0x01\n      add\n      sstore\n      swap1\n      pop\n      pop\n        /* \"1_NFT Marketplace/NFT_Marketplace.sol\":473:819  function mintNFT(uint _nftId, uint _price) external payable {... */\n      pop\n      pop\n      jump\t// out\n        /* \"#utility.yul\":88:205   */\n    tag_93:\n        /* \"#utility.yul\":197:198   */\n      0x00\n        /* \"#utility.yul\":194:195   */\n      dup1\n        /* \"#utility.yul\":187:199   */\n      revert\n        /* \"#utility.yul\":334:411   */\n    tag_95:\n        /* \"#utility.yul\":371:378   */\n      0x00\n        /* \"#utility.yul\":400:405   */\n      dup2\n        /* \"#utility.yul\":389:405   */\n      swap1\n      pop\n        /* \"#utility.yul\":334:411   */\n      swap2\n      swap1\n      pop\n      jump\t// out\n        /* \"#utility.yul\":417:539   */\n    tag_96:\n        /* \"#utility.yul\":490:514   */\n      tag_136\n        /* \"#utility.yul\":508:513   */\n      dup2\n        /* \"#utility.yul\":490:514   */\n      tag_95\n      jump\t// in\n    tag_136:\n        /* \"#utility.yul\":483:488   */\n      dup2\n        /* \"#utility.yul\":480:515   */\n      eq\n        /* \"#utility.yul\":470:533   */\n      tag_137\n      jumpi\n        /* \"#utility.yul\":529:530   */\n      0x00\n        /* \"#utility.yul\":526:527   */\n      dup1\n        /* \"#utility.yul\":519:531   */\n      revert\n        /* \"#utility.yul\":470:533   */\n    tag_137:\n        /* \"#utility.yul\":417:539   */\n      pop\n      jump\t// out\n        /* \"#utility.yul\":545:684   */\n    tag_97:\n        /* \"#utility.yul\":591:596   */\n      0x00\n        /* \"#utility.yul\":629:635   */\n      dup2\n        /* \"#utility.yul\":616:636   */\n      calldataload\n        /* \"#utility.yul\":607:636   */\n      swap1\n      pop\n        /* \"#utility.yul\":645:678   */\n      tag_139\n        /* \"#utility.yul\":672:677   */\n      dup2\n        /* \"#utility.yul\":645:678   */\n      tag_96\n      jump\t// in\n    tag_139:\n        /* \"#utility.yul\":545:684   */\n      swap3\n      swap2\n      pop\n      pop\n      jump\t// out\n        /* \"#utility.yul\":690:1019   */\n    tag_17:\n        /* \"#utility.yul\":749:755   */\n      0x00\n        /* \"#utility.yul\":798:800   */\n      0x20\n        /* \"#utility.yul\":786:795   */\n      dup3\n        /* \"#utility.yul\":777:784   */\n      dup5\n        /* \"#utility.yul\":773:796   */\n      sub\n        /* \"#utility.yul\":769:801   */\n      slt\n        /* \"#utility.yul\":766:885   */\n      iszero\n      tag_141\n      jumpi\n        /* \"#utility.yul\":804:883   */\n      tag_142\n      tag_93\n      jump\t// in\n    tag_142:\n        /* \"#utility.yul\":766:885   */\n    tag_141:\n        /* \"#utility.yul\":924:925   */\n      0x00\n        /* \"#utility.yul\":949:1002   */\n      tag_143\n        /* \"#utility.yul\":994:1001   */\n      dup5\n        /* \"#utility.yul\":985:991   */\n      dup3\n        /* \"#utility.yul\":974:983   */\n      dup6\n        /* \"#utility.yul\":970:992   */\n      add\n        /* \"#utility.yul\":949:1002   */\n      tag_97\n      jump\t// in\n    tag_143:\n        /* \"#utility.yul\":939:1002   */\n      swap2\n      pop\n        /* \"#utility.yul\":895:1012   */\n      pop\n        /* \"#utility.yul\":690:1019   */\n      swap3\n      swap2\n      pop\n      pop\n      jump\t// out\n        /* \"#utility.yul\":1025:1151   */\n    tag_98:\n        /* \"#utility.yul\":1062:1069   */\n      0x00\n        /* \"#utility.yul\":1102:1144   */\n      0xffffffffffffffffffffffffffffffffffffffff\n        /* \"#utility.yul\":1095:1100   */\n      dup3\n        /* \"#utility.yul\":1091:1145   */\n      and\n        /* \"#utility.yul\":1080:1145   */\n      swap1\n      pop\n        /* \"#utility.yul\":1025:1151   */\n      swap2\n      swap1\n      pop\n      jump\t// out\n        /* \"#utility.yul\":1157:1253   */\n    tag_99:\n        /* \"#utility.yul\":1194:1201   */\n      0x00\n        /* \"#utility.yul\":1223:1247   */\n      tag_146\n        /* \"#utility.yul\":1241:1246   */\n      dup3\n        /* \"#utility.yul\":1223:1247   */\n      tag_98\n      jump\t// in\n    tag_146:\n        /* \"#utility.yul\":1212:1247   */\n      swap1\n      pop\n        /* \"#utility.yul\":1157:1253   */\n      swap2\n      swap1\n      pop\n      jump\t// out\n        /* \"#utility.yul\":1259:1377   */\n    tag_100:\n        /* \"#utility.yul\":1346:1370   */\n      tag_148\n        /* \"#utility.yul\":1364:1369   */\n      dup2\n        /* \"#utility.yul\":1346:1370   */\n      tag_99\n      jump\t// in\n    tag_148:\n        /* \"#utility.yul\":1341:1344   */\n      dup3\n        /* \"#utility.yul\":1334:1371   */\n      mstore\n        /* \"#utility.yul\":1259:1377   */\n      pop\n      pop\n      jump\t// out\n        /* \"#utility.yul\":1383:1473   */\n    tag_101:\n        /* \"#utility.yul\":1417:1424   */\n      0x00\n        /* \"#utility.yul\":1460:1465   */\n      dup2\n        /* \"#utility.yul\":1453:1466   */\n      iszero\n        /* \"#utility.yul\":1446:1467   */\n      iszero\n        /* \"#utility.yul\":1435:1467   */\n      swap1\n      pop\n        /* \"#utility.yul\":1383:1473   */\n      swap2\n      swap1\n      pop\n      jump\t// out\n        /* \"#utility.yul\":1479:1588   */\n    tag_102:\n        /* \"#utility.yul\":1560:1581   */\n      tag_151\n        /* \"#utility.yul\":1575:1580   */\n      dup2\n        /* \"#utility.yul\":1560:1581   */\n      tag_101\n      jump\t// in\n    tag_151:\n        /* \"#utility.yul\":1555:1558   */\n      dup3\n        /* \"#utility.yul\":1548:1582   */\n      mstore\n        /* \"#utility.yul\":1479:1588   */\n      pop\n      pop\n      jump\t// out\n        /* \"#utility.yul\":1594:1712   */\n    tag_103:\n        /* \"#utility.yul\":1681:1705   */\n      tag_153\n        /* \"#utility.yul\":1699:1704   */\n      dup2\n        /* \"#utility.yul\":1681:1705   */\n      tag_95\n      jump\t// in\n    tag_153:\n        /* \"#utility.yul\":1676:1679   */\n      dup3\n        /* \"#utility.yul\":1669:1706   */\n      mstore\n        /* \"#utility.yul\":1594:1712   */\n      pop\n      pop\n      jump\t// out\n        /* \"#utility.yul\":1718:2148   */\n    tag_20:\n        /* \"#utility.yul\":1861:1865   */\n      0x00\n        /* \"#utility.yul\":1899:1901   */\n      0x60\n        /* \"#utility.yul\":1888:1897   */\n      dup3\n        /* \"#utility.yul\":1884:1902   */\n      add\n        /* \"#utility.yul\":1876:1902   */\n      swap1\n      pop\n        /* \"#utility.yul\":1912:1983   */\n      tag_155\n        /* \"#utility.yul\":1980:1981   */\n      0x00\n        /* \"#utility.yul\":1969:1978   */\n      dup4\n        /* \"#utility.yul\":1965:1982   */\n      add\n        /* \"#utility.yul\":1956:1962   */\n      dup7\n        /* \"#utility.yul\":1912:1983   */\n      tag_100\n      jump\t// in\n    tag_155:\n        /* \"#utility.yul\":1993:2059   */\n      tag_156\n        /* \"#utility.yul\":2055:2057   */\n      0x20\n        /* \"#utility.yul\":2044:2053   */\n      dup4\n        /* \"#utility.yul\":2040:2058   */\n      add\n        /* \"#utility.yul\":2031:2037   */\n      dup6\n        /* \"#utility.yul\":1993:2059   */\n      tag_102\n      jump\t// in\n    tag_156:\n        /* \"#utility.yul\":2069:2141   */\n      tag_157\n        /* \"#utility.yul\":2137:2139   */\n      0x40\n        /* \"#utility.yul\":2126:2135   */\n      dup4\n        /* \"#utility.yul\":2122:2140   */\n      add\n        /* \"#utility.yul\":2113:2119   */\n      dup5\n        /* \"#utility.yul\":2069:2141   */\n      tag_103\n      jump\t// in\n    tag_157:\n        /* \"#utility.yul\":1718:2148   */\n      swap5\n      swap4\n      pop\n      pop\n      pop\n      pop\n      jump\t// out\n        /* \"#utility.yul\":2154:2276   */\n    tag_104:\n        /* \"#utility.yul\":2227:2251   */\n      tag_159\n        /* \"#utility.yul\":2245:2250   */\n      dup2\n        /* \"#utility.yul\":2227:2251   */\n      tag_99\n      jump\t// in\n    tag_159:\n        /* \"#utility.yul\":2220:2225   */\n      dup2\n        /* \"#utility.yul\":2217:2252   */\n      eq\n        /* \"#utility.yul\":2207:2270   */\n      tag_160\n      jumpi\n        /* \"#utility.yul\":2266:2267   */\n      0x00\n        /* \"#utility.yul\":2263:2264   */\n      dup1\n        /* \"#utility.yul\":2256:2268   */\n      revert\n        /* \"#utility.yul\":2207:2270   */\n    tag_160:\n        /* \"#utility.yul\":2154:2276   */\n      pop\n      jump\t// out\n        /* \"#utility.yul\":2282:2421   */\n    tag_105:\n        /* \"#utility.yul\":2328:2333   */\n      0x00\n        /* \"#utility.yul\":2366:2372   */\n      dup2\n        /* \"#utility.yul\":2353:2373   */\n      calldataload\n        /* \"#utility.yul\":2344:2373   */\n      swap1\n      pop\n        /* \"#utility.yul\":2382:2415   */\n      tag_162\n        /* \"#utility.yul\":2409:2414   */\n      dup2\n        /* \"#utility.yul\":2382:2415   */\n      tag_104\n      jump\t// in\n    tag_162:\n        /* \"#utility.yul\":2282:2421   */\n      swap3\n      swap2\n      pop\n      pop\n      jump\t// out\n        /* \"#utility.yul\":2427:2756   */\n    tag_24:\n        /* \"#utility.yul\":2486:2492   */\n      0x00\n        /* \"#utility.yul\":2535:2537   */\n      0x20\n        /* \"#utility.yul\":2523:2532   */\n      dup3\n        /* \"#utility.yul\":2514:2521   */\n      dup5\n        /* \"#utility.yul\":2510:2533   */\n      sub\n        /* \"#utility.yul\":2506:2538   */\n      slt\n        /* \"#utility.yul\":2503:2622   */\n      iszero\n      tag_164\n      jumpi\n        /* \"#utility.yul\":2541:2620   */\n      tag_165\n      tag_93\n      jump\t// in\n    tag_165:\n        /* \"#utility.yul\":2503:2622   */\n    tag_164:\n        /* \"#utility.yul\":2661:2662   */\n      0x00\n        /* \"#utility.yul\":2686:2739   */\n      tag_166\n        /* \"#utility.yul\":2731:2738   */\n      dup5\n        /* \"#utility.yul\":2722:2728   */\n      dup3\n        /* \"#utility.yul\":2711:2720   */\n      dup6\n        /* \"#utility.yul\":2707:2729   */\n      add\n        /* \"#utility.yul\":2686:2739   */\n      tag_105\n      jump\t// in\n    tag_166:\n        /* \"#utility.yul\":2676:2739   */\n      swap2\n      pop\n        /* \"#utility.yul\":2632:2749   */\n      pop\n        /* \"#utility.yul\":2427:2756   */\n      swap3\n      swap2\n      pop\n      pop\n      jump\t// out\n        /* \"#utility.yul\":2762:2984   */\n    tag_27:\n        /* \"#utility.yul\":2855:2859   */\n      0x00\n        /* \"#utility.yul\":2893:2895   */\n      0x20\n        /* \"#utility.yul\":2882:2891   */\n      dup3\n        /* \"#utility.yul\":2878:2896   */\n      add\n        /* \"#utility.yul\":2870:2896   */\n      swap1\n      pop\n        /* \"#utility.yul\":2906:2977   */\n      tag_168\n        /* \"#utility.yul\":2974:2975   */\n      0x00\n        /* \"#utility.yul\":2963:2972   */\n      dup4\n        /* \"#utility.yul\":2959:2976   */\n      add\n        /* \"#utility.yul\":2950:2956   */\n      dup5\n        /* \"#utility.yul\":2906:2977   */\n      tag_103\n      jump\t// in\n    tag_168:\n        /* \"#utility.yul\":2762:2984   */\n      swap3\n      swap2\n      pop\n      pop\n      jump\t// out\n        /* \"#utility.yul\":2990:3464   */\n    tag_35:\n        /* \"#utility.yul\":3058:3064   */\n      0x00\n        /* \"#utility.yul\":3066:3072   */\n      dup1\n        /* \"#utility.yul\":3115:3117   */\n      0x40\n        /* \"#utility.yul\":3103:3112   */\n      dup4\n        /* \"#utility.yul\":3094:3101   */\n      dup6\n        /* \"#utility.yul\":3090:3113   */\n      sub\n        /* \"#utility.yul\":3086:3118   */\n      slt\n        /* \"#utility.yul\":3083:3202   */\n      iszero\n      tag_170\n      jumpi\n        /* \"#utility.yul\":3121:3200   */\n      tag_171\n      tag_93\n      jump\t// in\n    tag_171:\n        /* \"#utility.yul\":3083:3202   */\n    tag_170:\n        /* \"#utility.yul\":3241:3242   */\n      0x00\n        /* \"#utility.yul\":3266:3319   */\n      tag_172\n        /* \"#utility.yul\":3311:3318   */\n      dup6\n        /* \"#utility.yul\":3302:3308   */\n      dup3\n        /* \"#utility.yul\":3291:3300   */\n      dup7\n        /* \"#utility.yul\":3287:3309   */\n      add\n        /* \"#utility.yul\":3266:3319   */\n      tag_97\n      jump\t// in\n    tag_172:\n        /* \"#utility.yul\":3256:3319   */\n      swap3\n      pop\n        /* \"#utility.yul\":3212:3329   */\n      pop\n        /* \"#utility.yul\":3368:3370   */\n      0x20\n        /* \"#utility.yul\":3394:3447   */\n      tag_173\n        /* \"#utility.yul\":3439:3446   */\n      dup6\n        /* \"#utility.yul\":3430:3436   */\n      dup3\n        /* \"#utility.yul\":3419:3428   */\n      dup7\n        /* \"#utility.yul\":3415:3437   */\n      add\n        /* \"#utility.yul\":3394:3447   */\n      tag_97\n      jump\t// in\n    tag_173:\n        /* \"#utility.yul\":3384:3447   */\n      swap2\n      pop\n        /* \"#utility.yul\":3339:3457   */\n      pop\n        /* \"#utility.yul\":2990:3464   */\n      swap3\n      pop\n      swap3\n      swap1\n      pop\n      jump\t// out\n        /* \"#utility.yul\":3470:3692   */\n    tag_45:\n        /* \"#utility.yul\":3563:3567   */\n      0x00\n        /* \"#utility.yul\":3601:3603   */\n      0x20\n        /* \"#utility.yul\":3590:3599   */\n      dup3\n        /* \"#utility.yul\":3586:3604   */\n      add\n        /* \"#utility.yul\":3578:3604   */\n      swap1\n      pop\n        /* \"#utility.yul\":3614:3685   */\n      tag_175\n        /* \"#utility.yul\":3682:3683   */\n      0x00\n        /* \"#utility.yul\":3671:3680   */\n      dup4\n        /* \"#utility.yul\":3667:3684   */\n      add\n        /* \"#utility.yul\":3658:3664   */\n      dup5\n        /* \"#utility.yul\":3614:3685   */\n      tag_100\n      jump\t// in\n    tag_175:\n        /* \"#utility.yul\":3470:3692   */\n      swap3\n      swap2\n      pop\n      pop\n      jump\t// out\n        /* \"#utility.yul\":3698:3867   */\n    tag_106:\n        /* \"#utility.yul\":3782:3793   */\n      0x00\n        /* \"#utility.yul\":3816:3822   */\n      dup3\n        /* \"#utility.yul\":3811:3814   */\n      dup3\n        /* \"#utility.yul\":3804:3823   */\n      mstore\n        /* \"#utility.yul\":3856:3860   */\n      0x20\n        /* \"#utility.yul\":3851:3854   */\n      dup3\n        /* \"#utility.yul\":3847:3861   */\n      add\n        /* \"#utility.yul\":3832:3861   */\n      swap1\n      pop\n        /* \"#utility.yul\":3698:3867   */\n      swap3\n      swap2\n      pop\n      pop\n      jump\t// out\n        /* \"#utility.yul\":3873:4043   */\n    tag_107:\n        /* \"#utility.yul\":4013:4035   */\n      0x4e6f2066756e647320746f207769746864726177000000000000000000000000\n        /* \"#utility.yul\":4009:4010   */\n      0x00\n        /* \"#utility.yul\":4001:4007   */\n      dup3\n        /* \"#utility.yul\":3997:4011   */\n      add\n        /* \"#utility.yul\":3990:4036   */\n      mstore\n        /* \"#utility.yul\":3873:4043   */\n      pop\n      jump\t// out\n        /* \"#utility.yul\":4049:4415   */\n    tag_108:\n        /* \"#utility.yul\":4191:4194   */\n      0x00\n        /* \"#utility.yul\":4212:4279   */\n      tag_179\n        /* \"#utility.yul\":4276:4278   */\n      0x14\n        /* \"#utility.yul\":4271:4274   */\n      dup4\n        /* \"#utility.yul\":4212:4279   */\n      tag_106\n      jump\t// in\n    tag_179:\n        /* \"#utility.yul\":4205:4279   */\n      swap2\n      pop\n        /* \"#utility.yul\":4288:4381   */\n      tag_180\n        /* \"#utility.yul\":4377:4380   */\n      dup3\n        /* \"#utility.yul\":4288:4381   */\n      tag_107\n      jump\t// in\n    tag_180:\n        /* \"#utility.yul\":4406:4408   */\n      0x20\n        /* \"#utility.yul\":4401:4404   */\n      dup3\n        /* \"#utility.yul\":4397:4409   */\n      add\n        /* \"#utility.yul\":4390:4409   */\n      swap1\n      pop\n        /* \"#utility.yul\":4049:4415   */\n      swap2\n      swap1\n      pop\n      jump\t// out\n        /* \"#utility.yul\":4421:4840   */\n    tag_52:\n        /* \"#utility.yul\":4587:4591   */\n      0x00\n        /* \"#utility.yul\":4625:4627   */\n      0x20\n        /* \"#utility.yul\":4614:4623   */\n      dup3\n        /* \"#utility.yul\":4610:4628   */\n      add\n        /* \"#utility.yul\":4602:4628   */\n      swap1\n      pop\n        /* \"#utility.yul\":4674:4683   */\n      dup2\n        /* \"#utility.yul\":4668:4672   */\n      dup2\n        /* \"#utility.yul\":4664:4684   */\n      sub\n        /* \"#utility.yul\":4660:4661   */\n      0x00\n        /* \"#utility.yul\":4649:4658   */\n      dup4\n        /* \"#utility.yul\":4645:4662   */\n      add\n        /* \"#utility.yul\":4638:4685   */\n      mstore\n        /* \"#utility.yul\":4702:4833   */\n      tag_182\n        /* \"#utility.yul\":4828:4832   */\n      dup2\n        /* \"#utility.yul\":4702:4833   */\n      tag_108\n      jump\t// in\n    tag_182:\n        /* \"#utility.yul\":4694:4833   */\n      swap1\n      pop\n        /* \"#utility.yul\":4421:4840   */\n      swap2\n      swap1\n      pop\n      jump\t// out\n        /* \"#utility.yul\":4846:5178   */\n    tag_56:\n        /* \"#utility.yul\":4967:4971   */\n      0x00\n        /* \"#utility.yul\":5005:5007   */\n      0x40\n        /* \"#utility.yul\":4994:5003   */\n      dup3\n        /* \"#utility.yul\":4990:5008   */\n      add\n        /* \"#utility.yul\":4982:5008   */\n      swap1\n      pop\n        /* \"#utility.yul\":5018:5089   */\n      tag_184\n        /* \"#utility.yul\":5086:5087   */\n      0x00\n        /* \"#utility.yul\":5075:5084   */\n      dup4\n        /* \"#utility.yul\":5071:5088   */\n      add\n        /* \"#utility.yul\":5062:5068   */\n      dup6\n        /* \"#utility.yul\":5018:5089   */\n      tag_100\n      jump\t// in\n    tag_184:\n        /* \"#utility.yul\":5099:5171   */\n      tag_185\n        /* \"#utility.yul\":5167:5169   */\n      0x20\n        /* \"#utility.yul\":5156:5165   */\n      dup4\n        /* \"#utility.yul\":5152:5170   */\n      add\n        /* \"#utility.yul\":5143:5149   */\n      dup5\n        /* \"#utility.yul\":5099:5171   */\n      tag_103\n      jump\t// in\n    tag_185:\n        /* \"#utility.yul\":4846:5178   */\n      swap4\n      swap3\n      pop\n      pop\n      pop\n      jump\t// out\n        /* \"#utility.yul\":5184:5300   */\n    tag_109:\n        /* \"#utility.yul\":5254:5275   */\n      tag_187\n        /* \"#utility.yul\":5269:5274   */\n      dup2\n        /* \"#utility.yul\":5254:5275   */\n      tag_101\n      jump\t// in\n    tag_187:\n        /* \"#utility.yul\":5247:5252   */\n      dup2\n        /* \"#utility.yul\":5244:5276   */\n      eq\n        /* \"#utility.yul\":5234:5294   */\n      tag_188\n      jumpi\n        /* \"#utility.yul\":5290:5291   */\n      0x00\n        /* \"#utility.yul\":5287:5288   */\n      dup1\n        /* \"#utility.yul\":5280:5292   */\n      revert\n        /* \"#utility.yul\":5234:5294   */\n    tag_188:\n        /* \"#utility.yul\":5184:5300   */\n      pop\n      jump\t// out\n        /* \"#utility.yul\":5306:5443   */\n    tag_110:\n        /* \"#utility.yul\":5360:5365   */\n      0x00\n        /* \"#utility.yul\":5391:5397   */\n      dup2\n        /* \"#utility.yul\":5385:5398   */\n      mload\n        /* \"#utility.yul\":5376:5398   */\n      swap1\n      pop\n        /* \"#utility.yul\":5407:5437   */\n      tag_190\n        /* \"#utility.yul\":5431:5436   */\n      dup2\n        /* \"#utility.yul\":5407:5437   */\n      tag_109\n      jump\t// in\n    tag_190:\n        /* \"#utility.yul\":5306:5443   */\n      swap3\n      swap2\n      pop\n      pop\n      jump\t// out\n        /* \"#utility.yul\":5449:5794   */\n    tag_60:\n        /* \"#utility.yul\":5516:5522   */\n      0x00\n        /* \"#utility.yul\":5565:5567   */\n      0x20\n        /* \"#utility.yul\":5553:5562   */\n      dup3\n        /* \"#utility.yul\":5544:5551   */\n      dup5\n        /* \"#utility.yul\":5540:5563   */\n      sub\n        /* \"#utility.yul\":5536:5568   */\n      slt\n        /* \"#utility.yul\":5533:5652   */\n      iszero\n      tag_192\n      jumpi\n        /* \"#utility.yul\":5571:5650   */\n      tag_193\n      tag_93\n      jump\t// in\n    tag_193:\n        /* \"#utility.yul\":5533:5652   */\n    tag_192:\n        /* \"#utility.yul\":5691:5692   */\n      0x00\n        /* \"#utility.yul\":5716:5777   */\n      tag_194\n        /* \"#utility.yul\":5769:5776   */\n      dup5\n        /* \"#utility.yul\":5760:5766   */\n      dup3\n        /* \"#utility.yul\":5749:5758   */\n      dup6\n        /* \"#utility.yul\":5745:5767   */\n      add\n        /* \"#utility.yul\":5716:5777   */\n      tag_110\n      jump\t// in\n    tag_194:\n        /* \"#utility.yul\":5706:5777   */\n      swap2\n      pop\n        /* \"#utility.yul\":5662:5787   */\n      pop\n        /* \"#utility.yul\":5449:5794   */\n      swap3\n      swap2\n      pop\n      pop\n      jump\t// out\n        /* \"#utility.yul\":5800:5967   */\n    tag_111:\n        /* \"#utility.yul\":5940:5959   */\n      0x4e6f7420746865204e4654206f776e6572000000000000000000000000000000\n        /* \"#utility.yul\":5936:5937   */\n      0x00\n        /* \"#utility.yul\":5928:5934   */\n      dup3\n        /* \"#utility.yul\":5924:5938   */\n      add\n        /* \"#utility.yul\":5917:5960   */\n      mstore\n        /* \"#utility.yul\":5800:5967   */\n      pop\n      jump\t// out\n        /* \"#utility.yul\":5973:6339   */\n    tag_112:\n        /* \"#utility.yul\":6115:6118   */\n      0x00\n        /* \"#utility.yul\":6136:6203   */\n      tag_197\n        /* \"#utility.yul\":6200:6202   */\n      0x11\n        /* \"#utility.yul\":6195:6198   */\n      dup4\n        /* \"#utility.yul\":6136:6203   */\n      tag_106\n      jump\t// in\n    tag_197:\n        /* \"#utility.yul\":6129:6203   */\n      swap2\n      pop\n        /* \"#utility.yul\":6212:6305   */\n      tag_198\n        /* \"#utility.yul\":6301:6304   */\n      dup3\n        /* \"#utility.yul\":6212:6305   */\n      tag_111\n      jump\t// in\n    tag_198:\n        /* \"#utility.yul\":6330:6332   */\n      0x20\n        /* \"#utility.yul\":6325:6328   */\n      dup3\n        /* \"#utility.yul\":6321:6333   */\n      add\n        /* \"#utility.yul\":6314:6333   */\n      swap1\n      pop\n        /* \"#utility.yul\":5973:6339   */\n      swap2\n      swap1\n      pop\n      jump\t// out\n        /* \"#utility.yul\":6345:6764   */\n    tag_64:\n        /* \"#utility.yul\":6511:6515   */\n      0x00\n        /* \"#utility.yul\":6549:6551   */\n      0x20\n        /* \"#utility.yul\":6538:6547   */\n      dup3\n        /* \"#utility.yul\":6534:6552   */\n      add\n        /* \"#utility.yul\":6526:6552   */\n      swap1\n      pop\n        /* \"#utility.yul\":6598:6607   */\n      dup2\n        /* \"#utility.yul\":6592:6596   */\n      dup2\n        /* \"#utility.yul\":6588:6608   */\n      sub\n        /* \"#utility.yul\":6584:6585   */\n      0x00\n        /* \"#utility.yul\":6573:6582   */\n      dup4\n        /* \"#utility.yul\":6569:6586   */\n      add\n        /* \"#utility.yul\":6562:6609   */\n      mstore\n        /* \"#utility.yul\":6626:6757   */\n      tag_200\n        /* \"#utility.yul\":6752:6756   */\n      dup2\n        /* \"#utility.yul\":6626:6757   */\n      tag_112\n      jump\t// in\n    tag_200:\n        /* \"#utility.yul\":6618:6757   */\n      swap1\n      pop\n        /* \"#utility.yul\":6345:6764   */\n      swap2\n      swap1\n      pop\n      jump\t// out\n        /* \"#utility.yul\":6770:6943   */\n    tag_113:\n        /* \"#utility.yul\":6910:6935   */\n      0x4e465420697320616c726561647920666f722073616c65000000000000000000\n        /* \"#utility.yul\":6906:6907   */\n      0x00\n        /* \"#utility.yul\":6898:6904   */\n      dup3\n        /* \"#utility.yul\":6894:6908   */\n      add\n        /* \"#utility.yul\":6887:6936   */\n      mstore\n        /* \"#utility.yul\":6770:6943   */\n      pop\n      jump\t// out\n        /* \"#utility.yul\":6949:7315   */\n    tag_114:\n        /* \"#utility.yul\":7091:7094   */\n      0x00\n        /* \"#utility.yul\":7112:7179   */\n      tag_203\n        /* \"#utility.yul\":7176:7178   */\n      0x17\n        /* \"#utility.yul\":7171:7174   */\n      dup4\n        /* \"#utility.yul\":7112:7179   */\n      tag_106\n      jump\t// in\n    tag_203:\n        /* \"#utility.yul\":7105:7179   */\n      swap2\n      pop\n        /* \"#utility.yul\":7188:7281   */\n      tag_204\n        /* \"#utility.yul\":7277:7280   */\n      dup3\n        /* \"#utility.yul\":7188:7281   */\n      tag_113\n      jump\t// in\n    tag_204:\n        /* \"#utility.yul\":7306:7308   */\n      0x20\n        /* \"#utility.yul\":7301:7304   */\n      dup3\n        /* \"#utility.yul\":7297:7309   */\n      add\n        /* \"#utility.yul\":7290:7309   */\n      swap1\n      pop\n        /* \"#utility.yul\":6949:7315   */\n      swap2\n      swap1\n      pop\n      jump\t// out\n        /* \"#utility.yul\":7321:7740   */\n    tag_67:\n        /* \"#utility.yul\":7487:7491   */\n      0x00\n        /* \"#utility.yul\":7525:7527   */\n      0x20\n        /* \"#utility.yul\":7514:7523   */\n      dup3\n        /* \"#utility.yul\":7510:7528   */\n      add\n        /* \"#utility.yul\":7502:7528   */\n      swap1\n      pop\n        /* \"#utility.yul\":7574:7583   */\n      dup2\n        /* \"#utility.yul\":7568:7572   */\n      dup2\n        /* \"#utility.yul\":7564:7584   */\n      sub\n        /* \"#utility.yul\":7560:7561   */\n      0x00\n        /* \"#utility.yul\":7549:7558   */\n      dup4\n        /* \"#utility.yul\":7545:7562   */\n      add\n        /* \"#utility.yul\":7538:7585   */\n      mstore\n        /* \"#utility.yul\":7602:7733   */\n      tag_206\n        /* \"#utility.yul\":7728:7732   */\n      dup2\n        /* \"#utility.yul\":7602:7733   */\n      tag_114\n      jump\t// in\n    tag_206:\n        /* \"#utility.yul\":7594:7733   */\n      swap1\n      pop\n        /* \"#utility.yul\":7321:7740   */\n      swap2\n      swap1\n      pop\n      jump\t// out\n        /* \"#utility.yul\":7746:7967   */\n    tag_115:\n        /* \"#utility.yul\":7886:7920   */\n      0x53656c6c20616d6f756e74206d7573742062652067726561746572207468616e\n        /* \"#utility.yul\":7882:7883   */\n      0x00\n        /* \"#utility.yul\":7874:7880   */\n      dup3\n        /* \"#utility.yul\":7870:7884   */\n      add\n        /* \"#utility.yul\":7863:7921   */\n      mstore\n        /* \"#utility.yul\":7955:7959   */\n      0x2030000000000000000000000000000000000000000000000000000000000000\n        /* \"#utility.yul\":7950:7952   */\n      0x20\n        /* \"#utility.yul\":7942:7948   */\n      dup3\n        /* \"#utility.yul\":7938:7953   */\n      add\n        /* \"#utility.yul\":7931:7960   */\n      mstore\n        /* \"#utility.yul\":7746:7967   */\n      pop\n      jump\t// out\n        /* \"#utility.yul\":7973:8339   */\n    tag_116:\n        /* \"#utility.yul\":8115:8118   */\n      0x00\n        /* \"#utility.yul\":8136:8203   */\n      tag_209\n        /* \"#utility.yul\":8200:8202   */\n      0x22\n        /* \"#utility.yul\":8195:8198   */\n      dup4\n        /* \"#utility.yul\":8136:8203   */\n      tag_106\n      jump\t// in\n    tag_209:\n        /* \"#utility.yul\":8129:8203   */\n      swap2\n      pop\n        /* \"#utility.yul\":8212:8305   */\n      tag_210\n        /* \"#utility.yul\":8301:8304   */\n      dup3\n        /* \"#utility.yul\":8212:8305   */\n      tag_115\n      jump\t// in\n    tag_210:\n        /* \"#utility.yul\":8330:8332   */\n      0x40\n        /* \"#utility.yul\":8325:8328   */\n      dup3\n        /* \"#utility.yul\":8321:8333   */\n      add\n        /* \"#utility.yul\":8314:8333   */\n      swap1\n      pop\n        /* \"#utility.yul\":7973:8339   */\n      swap2\n      swap1\n      pop\n      jump\t// out\n        /* \"#utility.yul\":8345:8764   */\n    tag_70:\n        /* \"#utility.yul\":8511:8515   */\n      0x00\n        /* \"#utility.yul\":8549:8551   */\n      0x20\n        /* \"#utility.yul\":8538:8547   */\n      dup3\n        /* \"#utility.yul\":8534:8552   */\n      add\n        /* \"#utility.yul\":8526:8552   */\n      swap1\n      pop\n        /* \"#utility.yul\":8598:8607   */\n      dup2\n        /* \"#utility.yul\":8592:8596   */\n      dup2\n        /* \"#utility.yul\":8588:8608   */\n      sub\n        /* \"#utility.yul\":8584:8585   */\n      0x00\n        /* \"#utility.yul\":8573:8582   */\n      dup4\n        /* \"#utility.yul\":8569:8586   */\n      add\n        /* \"#utility.yul\":8562:8609   */\n      mstore\n        /* \"#utility.yul\":8626:8757   */\n      tag_212\n        /* \"#utility.yul\":8752:8756   */\n      dup2\n        /* \"#utility.yul\":8626:8757   */\n      tag_116\n      jump\t// in\n    tag_212:\n        /* \"#utility.yul\":8618:8757   */\n      swap1\n      pop\n        /* \"#utility.yul\":8345:8764   */\n      swap2\n      swap1\n      pop\n      jump\t// out\n        /* \"#utility.yul\":8770:8939   */\n    tag_117:\n        /* \"#utility.yul\":8910:8931   */\n      0x4e4654206973206e6f7420666f722073616c6500000000000000000000000000\n        /* \"#utility.yul\":8906:8907   */\n      0x00\n        /* \"#utility.yul\":8898:8904   */\n      dup3\n        /* \"#utility.yul\":8894:8908   */\n      add\n        /* \"#utility.yul\":8887:8932   */\n      mstore\n        /* \"#utility.yul\":8770:8939   */\n      pop\n      jump\t// out\n        /* \"#utility.yul\":8945:9311   */\n    tag_118:\n        /* \"#utility.yul\":9087:9090   */\n      0x00\n        /* \"#utility.yul\":9108:9175   */\n      tag_215\n        /* \"#utility.yul\":9172:9174   */\n      0x13\n        /* \"#utility.yul\":9167:9170   */\n      dup4\n        /* \"#utility.yul\":9108:9175   */\n      tag_106\n      jump\t// in\n    tag_215:\n        /* \"#utility.yul\":9101:9175   */\n      swap2\n      pop\n        /* \"#utility.yul\":9184:9277   */\n      tag_216\n        /* \"#utility.yul\":9273:9276   */\n      dup3\n        /* \"#utility.yul\":9184:9277   */\n      tag_117\n      jump\t// in\n    tag_216:\n        /* \"#utility.yul\":9302:9304   */\n      0x20\n        /* \"#utility.yul\":9297:9300   */\n      dup3\n        /* \"#utility.yul\":9293:9305   */\n      add\n        /* \"#utility.yul\":9286:9305   */\n      swap1\n      pop\n        /* \"#utility.yul\":8945:9311   */\n      swap2\n      swap1\n      pop\n      jump\t// out\n        /* \"#utility.yul\":9317:9736   */\n    tag_74:\n        /* \"#utility.yul\":9483:9487   */\n      0x00\n        /* \"#utility.yul\":9521:9523   */\n      0x20\n        /* \"#utility.yul\":9510:9519   */\n      dup3\n        /* \"#utility.yul\":9506:9524   */\n      add\n        /* \"#utility.yul\":9498:9524   */\n      swap1\n      pop\n        /* \"#utility.yul\":9570:9579   */\n      dup2\n        /* \"#utility.yul\":9564:9568   */\n      dup2\n        /* \"#utility.yul\":9560:9580   */\n      sub\n        /* \"#utility.yul\":9556:9557   */\n      0x00\n        /* \"#utility.yul\":9545:9554   */\n      dup4\n        /* \"#utility.yul\":9541:9558   */\n      add\n        /* \"#utility.yul\":9534:9581   */\n      mstore\n        /* \"#utility.yul\":9598:9729   */\n      tag_218\n        /* \"#utility.yul\":9724:9728   */\n      dup2\n        /* \"#utility.yul\":9598:9729   */\n      tag_118\n      jump\t// in\n    tag_218:\n        /* \"#utility.yul\":9590:9729   */\n      swap1\n      pop\n        /* \"#utility.yul\":9317:9736   */\n      swap2\n      swap1\n      pop\n      jump\t// out\n        /* \"#utility.yul\":9742:9924   */\n    tag_119:\n        /* \"#utility.yul\":9882:9916   */\n      0x4e4654207072696365206d7573742062652067726561746572207468616e2030\n        /* \"#utility.yul\":9878:9879   */\n      0x00\n        /* \"#utility.yul\":9870:9876   */\n      dup3\n        /* \"#utility.yul\":9866:9880   */\n      add\n        /* \"#utility.yul\":9859:9917   */\n      mstore\n        /* \"#utility.yul\":9742:9924   */\n      pop\n      jump\t// out\n        /* \"#utility.yul\":9930:10296   */\n    tag_120:\n        /* \"#utility.yul\":10072:10075   */\n      0x00\n        /* \"#utility.yul\":10093:10160   */\n      tag_221\n        /* \"#utility.yul\":10157:10159   */\n      0x20\n        /* \"#utility.yul\":10152:10155   */\n      dup4\n        /* \"#utility.yul\":10093:10160   */\n      tag_106\n      jump\t// in\n    tag_221:\n        /* \"#utility.yul\":10086:10160   */\n      swap2\n      pop\n        /* \"#utility.yul\":10169:10262   */\n      tag_222\n        /* \"#utility.yul\":10258:10261   */\n      dup3\n        /* \"#utility.yul\":10169:10262   */\n      tag_119\n      jump\t// in\n    tag_222:\n        /* \"#utility.yul\":10287:10289   */\n      0x20\n        /* \"#utility.yul\":10282:10285   */\n      dup3\n        /* \"#utility.yul\":10278:10290   */\n      add\n        /* \"#utility.yul\":10271:10290   */\n      swap1\n      pop\n        /* \"#utility.yul\":9930:10296   */\n      swap2\n      swap1\n      pop\n      jump\t// out\n        /* \"#utility.yul\":10302:10721   */\n    tag_77:\n        /* \"#utility.yul\":10468:10472   */\n      0x00\n        /* \"#utility.yul\":10506:10508   */\n      0x20\n        /* \"#utility.yul\":10495:10504   */\n      dup3\n        /* \"#utility.yul\":10491:10509   */\n      add\n        /* \"#utility.yul\":10483:10509   */\n      swap1\n      pop\n        /* \"#utility.yul\":10555:10564   */\n      dup2\n        /* \"#utility.yul\":10549:10553   */\n      dup2\n        /* \"#utility.yul\":10545:10565   */\n      sub\n        /* \"#utility.yul\":10541:10542   */\n      0x00\n        /* \"#utility.yul\":10530:10539   */\n      dup4\n        /* \"#utility.yul\":10526:10543   */\n      add\n        /* \"#utility.yul\":10519:10566   */\n      mstore\n        /* \"#utility.yul\":10583:10714   */\n      tag_224\n        /* \"#utility.yul\":10709:10713   */\n      dup2\n        /* \"#utility.yul\":10583:10714   */\n      tag_120\n      jump\t// in\n    tag_224:\n        /* \"#utility.yul\":10575:10714   */\n      swap1\n      pop\n        /* \"#utility.yul\":10302:10721   */\n      swap2\n      swap1\n      pop\n      jump\t// out\n        /* \"#utility.yul\":10727:10812   */\n    tag_121:\n        /* \"#utility.yul\":10772:10779   */\n      0x00\n        /* \"#utility.yul\":10801:10806   */\n      dup2\n        /* \"#utility.yul\":10790:10806   */\n      swap1\n      pop\n        /* \"#utility.yul\":10727:10812   */\n      swap2\n      swap1\n      pop\n      jump\t// out\n        /* \"#utility.yul\":10818:10878   */\n    tag_122:\n        /* \"#utility.yul\":10846:10849   */\n      0x00\n        /* \"#utility.yul\":10867:10872   */\n      dup2\n        /* \"#utility.yul\":10860:10872   */\n      swap1\n      pop\n        /* \"#utility.yul\":10818:10878   */\n      swap2\n      swap1\n      pop\n      jump\t// out\n        /* \"#utility.yul\":10884:11042   */\n    tag_123:\n        /* \"#utility.yul\":10942:10951   */\n      0x00\n        /* \"#utility.yul\":10975:11036   */\n      tag_228\n        /* \"#utility.yul\":10993:11035   */\n      tag_229\n        /* \"#utility.yul\":11002:11034   */\n      tag_230\n        /* \"#utility.yul\":11028:11033   */\n      dup5\n        /* \"#utility.yul\":11002:11034   */\n      tag_121\n      jump\t// in\n    tag_230:\n        /* \"#utility.yul\":10993:11035   */\n      tag_122\n      jump\t// in\n    tag_229:\n        /* \"#utility.yul\":10975:11036   */\n      tag_95\n      jump\t// in\n    tag_228:\n        /* \"#utility.yul\":10962:11036   */\n      swap1\n      pop\n        /* \"#utility.yul\":10884:11042   */\n      swap2\n      swap1\n      pop\n      jump\t// out\n        /* \"#utility.yul\":11048:11195   */\n    tag_124:\n        /* \"#utility.yul\":11143:11188   */\n      tag_232\n        /* \"#utility.yul\":11182:11187   */\n      dup2\n        /* \"#utility.yul\":11143:11188   */\n      tag_123\n      jump\t// in\n    tag_232:\n        /* \"#utility.yul\":11138:11141   */\n      dup3\n        /* \"#utility.yul\":11131:11189   */\n      mstore\n        /* \"#utility.yul\":11048:11195   */\n      pop\n      pop\n      jump\t// out\n        /* \"#utility.yul\":11201:11659   */\n    tag_79:\n        /* \"#utility.yul\":11358:11362   */\n      0x00\n        /* \"#utility.yul\":11396:11398   */\n      0x60\n        /* \"#utility.yul\":11385:11394   */\n      dup3\n        /* \"#utility.yul\":11381:11399   */\n      add\n        /* \"#utility.yul\":11373:11399   */\n      swap1\n      pop\n        /* \"#utility.yul\":11409:11480   */\n      tag_234\n        /* \"#utility.yul\":11477:11478   */\n      0x00\n        /* \"#utility.yul\":11466:11475   */\n      dup4\n        /* \"#utility.yul\":11462:11479   */\n      add\n        /* \"#utility.yul\":11453:11459   */\n      dup7\n        /* \"#utility.yul\":11409:11480   */\n      tag_100\n      jump\t// in\n    tag_234:\n        /* \"#utility.yul\":11490:11562   */\n      tag_235\n        /* \"#utility.yul\":11558:11560   */\n      0x20\n        /* \"#utility.yul\":11547:11556   */\n      dup4\n        /* \"#utility.yul\":11543:11561   */\n      add\n        /* \"#utility.yul\":11534:11540   */\n      dup6\n        /* \"#utility.yul\":11490:11562   */\n      tag_100\n      jump\t// in\n    tag_235:\n        /* \"#utility.yul\":11572:11652   */\n      tag_236\n        /* \"#utility.yul\":11648:11650   */\n      0x40\n        /* \"#utility.yul\":11637:11646   */\n      dup4\n        /* \"#utility.yul\":11633:11651   */\n      add\n        /* \"#utility.yul\":11624:11630   */\n      dup5\n        /* \"#utility.yul\":11572:11652   */\n      tag_124\n      jump\t// in\n    tag_236:\n        /* \"#utility.yul\":11201:11659   */\n      swap5\n      swap4\n      pop\n      pop\n      pop\n      pop\n      jump\t// out\n        /* \"#utility.yul\":11665:11845   */\n    tag_125:\n        /* \"#utility.yul\":11713:11790   */\n      0x4e487b7100000000000000000000000000000000000000000000000000000000\n        /* \"#utility.yul\":11710:11711   */\n      0x00\n        /* \"#utility.yul\":11703:11791   */\n      mstore\n        /* \"#utility.yul\":11810:11814   */\n      0x11\n        /* \"#utility.yul\":11807:11808   */\n      0x04\n        /* \"#utility.yul\":11800:11815   */\n      mstore\n        /* \"#utility.yul\":11834:11838   */\n      0x24\n        /* \"#utility.yul\":11831:11832   */\n      0x00\n        /* \"#utility.yul\":11824:11839   */\n      revert\n        /* \"#utility.yul\":11851:12042   */\n    tag_84:\n        /* \"#utility.yul\":11891:11894   */\n      0x00\n        /* \"#utility.yul\":11910:11930   */\n      tag_239\n        /* \"#utility.yul\":11928:11929   */\n      dup3\n        /* \"#utility.yul\":11910:11930   */\n      tag_95\n      jump\t// in\n    tag_239:\n        /* \"#utility.yul\":11905:11930   */\n      swap2\n      pop\n        /* \"#utility.yul\":11944:11964   */\n      tag_240\n        /* \"#utility.yul\":11962:11963   */\n      dup4\n        /* \"#utility.yul\":11944:11964   */\n      tag_95\n      jump\t// in\n    tag_240:\n        /* \"#utility.yul\":11939:11964   */\n      swap3\n      pop\n        /* \"#utility.yul\":11987:11988   */\n      dup3\n        /* \"#utility.yul\":11984:11985   */\n      dup3\n        /* \"#utility.yul\":11980:11989   */\n      add\n        /* \"#utility.yul\":11973:11989   */\n      swap1\n      pop\n        /* \"#utility.yul\":12008:12011   */\n      dup1\n        /* \"#utility.yul\":12005:12006   */\n      dup3\n        /* \"#utility.yul\":12002:12012   */\n      gt\n        /* \"#utility.yul\":11999:12035   */\n      iszero\n      tag_241\n      jumpi\n        /* \"#utility.yul\":12015:12033   */\n      tag_242\n      tag_125\n      jump\t// in\n    tag_242:\n        /* \"#utility.yul\":11999:12035   */\n    tag_241:\n        /* \"#utility.yul\":11851:12042   */\n      swap3\n      swap2\n      pop\n      pop\n      jump\t// out\n        /* \"#utility.yul\":12048:12216   */\n    tag_126:\n        /* \"#utility.yul\":12188:12208   */\n      0x4e465420616c7265616479206578697374730000000000000000000000000000\n        /* \"#utility.yul\":12184:12185   */\n      0x00\n        /* \"#utility.yul\":12176:12182   */\n      dup3\n        /* \"#utility.yul\":12172:12186   */\n      add\n        /* \"#utility.yul\":12165:12209   */\n      mstore\n        /* \"#utility.yul\":12048:12216   */\n      pop\n      jump\t// out\n        /* \"#utility.yul\":12222:12588   */\n    tag_127:\n        /* \"#utility.yul\":12364:12367   */\n      0x00\n        /* \"#utility.yul\":12385:12452   */\n      tag_245\n        /* \"#utility.yul\":12449:12451   */\n      0x12\n        /* \"#utility.yul\":12444:12447   */\n      dup4\n        /* \"#utility.yul\":12385:12452   */\n      tag_106\n      jump\t// in\n    tag_245:\n        /* \"#utility.yul\":12378:12452   */\n      swap2\n      pop\n        /* \"#utility.yul\":12461:12554   */\n      tag_246\n        /* \"#utility.yul\":12550:12553   */\n      dup3\n        /* \"#utility.yul\":12461:12554   */\n      tag_126\n      jump\t// in\n    tag_246:\n        /* \"#utility.yul\":12579:12581   */\n      0x20\n        /* \"#utility.yul\":12574:12577   */\n      dup3\n        /* \"#utility.yul\":12570:12582   */\n      add\n        /* \"#utility.yul\":12563:12582   */\n      swap1\n      pop\n        /* \"#utility.yul\":12222:12588   */\n      swap2\n      swap1\n      pop\n      jump\t// out\n        /* \"#utility.yul\":12594:13013   */\n    tag_88:\n        /* \"#utility.yul\":12760:12764   */\n      0x00\n        /* \"#utility.yul\":12798:12800   */\n      0x20\n        /* \"#utility.yul\":12787:12796   */\n      dup3\n        /* \"#utility.yul\":12783:12801   */\n      add\n        /* \"#utility.yul\":12775:12801   */\n      swap1\n      pop\n        /* \"#utility.yul\":12847:12856   */\n      dup2\n        /* \"#utility.yul\":12841:12845   */\n      dup2\n        /* \"#utility.yul\":12837:12857   */\n      sub\n        /* \"#utility.yul\":12833:12834   */\n      0x00\n        /* \"#utility.yul\":12822:12831   */\n      dup4\n        /* \"#utility.yul\":12818:12835   */\n      add\n        /* \"#utility.yul\":12811:12858   */\n      mstore\n        /* \"#utility.yul\":12875:13006   */\n      tag_248\n        /* \"#utility.yul\":13001:13005   */\n      dup2\n        /* \"#utility.yul\":12875:13006   */\n      tag_127\n      jump\t// in\n    tag_248:\n        /* \"#utility.yul\":12867:13006   */\n      swap1\n      pop\n        /* \"#utility.yul\":12594:13013   */\n      swap2\n      swap1\n      pop\n      jump\t// out\n        /* \"#utility.yul\":13019:13192   */\n    tag_128:\n        /* \"#utility.yul\":13159:13184   */\n      0x496e73756666696369656e742045746865722073656e74000000000000000000\n        /* \"#utility.yul\":13155:13156   */\n      0x00\n        /* \"#utility.yul\":13147:13153   */\n      dup3\n        /* \"#utility.yul\":13143:13157   */\n      add\n        /* \"#utility.yul\":13136:13185   */\n      mstore\n        /* \"#utility.yul\":13019:13192   */\n      pop\n      jump\t// out\n        /* \"#utility.yul\":13198:13564   */\n    tag_129:\n        /* \"#utility.yul\":13340:13343   */\n      0x00\n        /* \"#utility.yul\":13361:13428   */\n      tag_251\n        /* \"#utility.yul\":13425:13427   */\n      0x17\n        /* \"#utility.yul\":13420:13423   */\n      dup4\n        /* \"#utility.yul\":13361:13428   */\n      tag_106\n      jump\t// in\n    tag_251:\n        /* \"#utility.yul\":13354:13428   */\n      swap2\n      pop\n        /* \"#utility.yul\":13437:13530   */\n      tag_252\n        /* \"#utility.yul\":13526:13529   */\n      dup3\n        /* \"#utility.yul\":13437:13530   */\n      tag_128\n      jump\t// in\n    tag_252:\n        /* \"#utility.yul\":13555:13557   */\n      0x20\n        /* \"#utility.yul\":13550:13553   */\n      dup3\n        /* \"#utility.yul\":13546:13558   */\n      add\n        /* \"#utility.yul\":13539:13558   */\n      swap1\n      pop\n        /* \"#utility.yul\":13198:13564   */\n      swap2\n      swap1\n      pop\n      jump\t// out\n        /* \"#utility.yul\":13570:13989   */\n    tag_91:\n        /* \"#utility.yul\":13736:13740   */\n      0x00\n        /* \"#utility.yul\":13774:13776   */\n      0x20\n        /* \"#utility.yul\":13763:13772   */\n      dup3\n        /* \"#utility.yul\":13759:13777   */\n      add\n        /* \"#utility.yul\":13751:13777   */\n      swap1\n      pop\n        /* \"#utility.yul\":13823:13832   */\n      dup2\n        /* \"#utility.yul\":13817:13821   */\n      dup2\n        /* \"#utility.yul\":13813:13833   */\n      sub\n        /* \"#utility.yul\":13809:13810   */\n      0x00\n        /* \"#utility.yul\":13798:13807   */\n      dup4\n        /* \"#utility.yul\":13794:13811   */\n      add\n        /* \"#utility.yul\":13787:13834   */\n      mstore\n        /* \"#utility.yul\":13851:13982   */\n      tag_254\n        /* \"#utility.yul\":13977:13981   */\n      dup2\n        /* \"#utility.yul\":13851:13982   */\n      tag_129\n      jump\t// in\n    tag_254:\n        /* \"#utility.yul\":13843:13982   */\n      swap1\n      pop\n        /* \"#utility.yul\":13570:13989   */\n      swap2\n      swap1\n      pop\n      jump\t// out\n\n    auxdata: 0xa264697066735822122047273c4cdaf741a76d1bc58c914302f1c5cbe619606944b5c95265de868ed7e664736f6c63430008140033\n}\n",
				"bytecode": {
					"linkReferences": {},
					"object": "608060405234801562000010575f80fd5b5060405162001151380380620011518339818101604052810190620000369190620000e1565b805f806101000a81548173ffffffffffffffffffffffffffffffffffffffff021916908373ffffffffffffffffffffffffffffffffffffffff1602179055505062000111565b5f80fd5b5f73ffffffffffffffffffffffffffffffffffffffff82169050919050565b5f620000ab8262000080565b9050919050565b620000bd816200009f565b8114620000c8575f80fd5b50565b5f81519050620000db81620000b2565b92915050565b5f60208284031215620000f957620000f86200007c565b5b5f6200010884828501620000cb565b91505092915050565b611032806200011f5f395ff3fe60806040526004361061007a575f3560e01c806349c114fc1161004d57806349c114fc1461013857806351ed8288146101605780639895303714610188578063c48283ff146101b25761007a565b806324600fc31461007e578063265aa6211461009457806327e235e3146100d25780633f407b841461010e575b5f80fd5b348015610089575f80fd5b506100926101ce565b005b34801561009f575f80fd5b506100ba60048036038101906100b591906109a6565b61037b565b6040516100c993929190610a39565b60405180910390f35b3480156100dd575f80fd5b506100f860048036038101906100f39190610a98565b6103cc565b6040516101059190610ac3565b60405180910390f35b348015610119575f80fd5b506101226103e1565b60405161012f9190610ac3565b60405180910390f35b348015610143575f80fd5b5061015e60048036038101906101599190610adc565b6103e7565b005b34801561016b575f80fd5b50610186600480360381019061018191906109a6565b610561565b005b348015610193575f80fd5b5061019c6107aa565b6040516101a99190610b1a565b60405180910390f35b6101cc60048036038101906101c79190610adc565b6107cd565b005b5f60035f3373ffffffffffffffffffffffffffffffffffffffff1673ffffffffffffffffffffffffffffffffffffffff1681526020019081526020015f205490505f8111610251576040517f08c379a000000000000000000000000000000000000000000000000000000000815260040161024890610b8d565b60405180910390fd5b5f60035f3373ffffffffffffffffffffffffffffffffffffffff1673ffffffffffffffffffffffffffffffffffffffff1681526020019081526020015f20819055503373ffffffffffffffffffffffffffffffffffffffff166108fc8290811502906040515f60405180830381858888f193505050501580156102d6573d5f803e3d5ffd5b505f805f9054906101000a900473ffffffffffffffffffffffffffffffffffffffff1690508073ffffffffffffffffffffffffffffffffffffffff1663a9059cbb33846040518363ffffffff1660e01b8152600401610336929190610bab565b6020604051808303815f875af1158015610352573d5f803e3d5ffd5b505050506040513d601f19601f820116820180604052508101906103769190610bfc565b505050565b6002602052805f5260405f205f91509050805f015f9054906101000a900473ffffffffffffffffffffffffffffffffffffffff1690805f0160149054906101000a900460ff16908060010154905083565b6003602052805f5260405f205f915090505481565b60015481565b3373ffffffffffffffffffffffffffffffffffffffff1660025f8481526020019081526020015f205f015f9054906101000a900473ffffffffffffffffffffffffffffffffffffffff1673ffffffffffffffffffffffffffffffffffffffff1614610487576040517f08c379a000000000000000000000000000000000000000000000000000000000815260040161047e90610c71565b60405180910390fd5b60025f8381526020019081526020015f205f0160149054906101000a900460ff16156104e8576040517f08c379a00000000000000000000000000000000000000000000000000000000081526004016104df90610cd9565b60405180910390fd5b5f811161052a576040517f08c379a000000000000000000000000000000000000000000000000000000000815260040161052190610d67565b60405180910390fd5b80600181905550600160025f8481526020019081526020015f205f0160146101000a81548160ff0219169083151502179055505050565b5f60025f8381526020019081526020015f209050805f0160149054906101000a900460ff166105c5576040517f08c379a00000000000000000000000000000000000000000000000000000000081526004016105bc90610dcf565b60405180910390fd5b5f81600101541161060b576040517f08c379a000000000000000000000000000000000000000000000000000000000815260040161060290610e37565b60405180910390fd5b5f805f9054906101000a900473ffffffffffffffffffffffffffffffffffffffff1690508073ffffffffffffffffffffffffffffffffffffffff166323b872dd33845f015f9054906101000a900473ffffffffffffffffffffffffffffffffffffffff1660016040518463ffffffff1660e01b815260040161068f93929190610e97565b6020604051808303815f875af11580156106ab573d5f803e3d5ffd5b505050506040513d601f19601f820116820180604052508101906106cf9190610bfc565b50816001015460035f845f015f9054906101000a900473ffffffffffffffffffffffffffffffffffffffff1673ffffffffffffffffffffffffffffffffffffffff1673ffffffffffffffffffffffffffffffffffffffff1681526020019081526020015f205f8282546107429190610ef9565b9250508190555033825f015f6101000a81548173ffffffffffffffffffffffffffffffffffffffff021916908373ffffffffffffffffffffffffffffffffffffffff1602179055505f825f0160146101000a81548160ff021916908315150217905550505050565b5f8054906101000a900473ffffffffffffffffffffffffffffffffffffffff1681565b5f73ffffffffffffffffffffffffffffffffffffffff1660025f8481526020019081526020015f205f015f9054906101000a900473ffffffffffffffffffffffffffffffffffffffff1673ffffffffffffffffffffffffffffffffffffffff161461086d576040517f08c379a000000000000000000000000000000000000000000000000000000000815260040161086490610f76565b60405180910390fd5b67016345785d8a000034146108b7576040517f08c379a00000000000000000000000000000000000000000000000000000000081526004016108ae90610fde565b60405180910390fd5b60405180606001604052803373ffffffffffffffffffffffffffffffffffffffff1681526020015f151581526020018281525060025f8481526020019081526020015f205f820151815f015f6101000a81548173ffffffffffffffffffffffffffffffffffffffff021916908373ffffffffffffffffffffffffffffffffffffffff1602179055506020820151815f0160146101000a81548160ff021916908315150217905550604082015181600101559050505050565b5f80fd5b5f819050919050565b61098581610973565b811461098f575f80fd5b50565b5f813590506109a08161097c565b92915050565b5f602082840312156109bb576109ba61096f565b5b5f6109c884828501610992565b91505092915050565b5f73ffffffffffffffffffffffffffffffffffffffff82169050919050565b5f6109fa826109d1565b9050919050565b610a0a816109f0565b82525050565b5f8115159050919050565b610a2481610a10565b82525050565b610a3381610973565b82525050565b5f606082019050610a4c5f830186610a01565b610a596020830185610a1b565b610a666040830184610a2a565b949350505050565b610a77816109f0565b8114610a81575f80fd5b50565b5f81359050610a9281610a6e565b92915050565b5f60208284031215610aad57610aac61096f565b5b5f610aba84828501610a84565b91505092915050565b5f602082019050610ad65f830184610a2a565b92915050565b5f8060408385031215610af257610af161096f565b5b5f610aff85828601610992565b9250506020610b1085828601610992565b9150509250929050565b5f602082019050610b2d5f830184610a01565b92915050565b5f82825260208201905092915050565b7f4e6f2066756e647320746f2077697468647261770000000000000000000000005f82015250565b5f610b77601483610b33565b9150610b8282610b43565b602082019050919050565b5f6020820190508181035f830152610ba481610b6b565b9050919050565b5f604082019050610bbe5f830185610a01565b610bcb6020830184610a2a565b9392505050565b610bdb81610a10565b8114610be5575f80fd5b50565b5f81519050610bf681610bd2565b92915050565b5f60208284031215610c1157610c1061096f565b5b5f610c1e84828501610be8565b91505092915050565b7f4e6f7420746865204e4654206f776e65720000000000000000000000000000005f82015250565b5f610c5b601183610b33565b9150610c6682610c27565b602082019050919050565b5f6020820190508181035f830152610c8881610c4f565b9050919050565b7f4e465420697320616c726561647920666f722073616c650000000000000000005f82015250565b5f610cc3601783610b33565b9150610cce82610c8f565b602082019050919050565b5f6020820190508181035f830152610cf081610cb7565b9050919050565b7f53656c6c20616d6f756e74206d7573742062652067726561746572207468616e5f8201527f2030000000000000000000000000000000000000000000000000000000000000602082015250565b5f610d51602283610b33565b9150610d5c82610cf7565b604082019050919050565b5f6020820190508181035f830152610d7e81610d45565b9050919050565b7f4e4654206973206e6f7420666f722073616c65000000000000000000000000005f82015250565b5f610db9601383610b33565b9150610dc482610d85565b602082019050919050565b5f6020820190508181035f830152610de681610dad565b9050919050565b7f4e4654207072696365206d7573742062652067726561746572207468616e20305f82015250565b5f610e21602083610b33565b9150610e2c82610ded565b602082019050919050565b5f6020820190508181035f830152610e4e81610e15565b9050919050565b5f819050919050565b5f819050919050565b5f610e81610e7c610e7784610e55565b610e5e565b610973565b9050919050565b610e9181610e67565b82525050565b5f606082019050610eaa5f830186610a01565b610eb76020830185610a01565b610ec46040830184610e88565b949350505050565b7f4e487b71000000000000000000000000000000000000000000000000000000005f52601160045260245ffd5b5f610f0382610973565b9150610f0e83610973565b9250828201905080821115610f2657610f25610ecc565b5b92915050565b7f4e465420616c72656164792065786973747300000000000000000000000000005f82015250565b5f610f60601283610b33565b9150610f6b82610f2c565b602082019050919050565b5f6020820190508181035f830152610f8d81610f54565b9050919050565b7f496e73756666696369656e742045746865722073656e740000000000000000005f82015250565b5f610fc8601783610b33565b9150610fd382610f94565b602082019050919050565b5f6020820190508181035f830152610ff581610fbc565b905091905056fea264697066735822122047273c4cdaf741a76d1bc58c914302f1c5cbe619606944b5c95265de868ed7e664736f6c63430008140033",
					"opcodes": "PUSH1 0x80 PUSH1 0x40 MSTORE CALLVALUE DUP1 ISZERO PUSH3 0x10 JUMPI PUSH0 DUP1 REVERT JUMPDEST POP PUSH1 0x40 MLOAD PUSH3 0x1151 CODESIZE SUB DUP1 PUSH3 0x1151 DUP4 CODECOPY DUP2 DUP2 ADD PUSH1 0x40 MSTORE DUP2 ADD SWAP1 PUSH3 0x36 SWAP2 SWAP1 PUSH3 0xE1 JUMP JUMPDEST DUP1 PUSH0 DUP1 PUSH2 0x100 EXP DUP2 SLOAD DUP2 PUSH20 0xFFFFFFFFFFFFFFFFFFFFFFFFFFFFFFFFFFFFFFFF MUL NOT AND SWAP1 DUP4 PUSH20 0xFFFFFFFFFFFFFFFFFFFFFFFFFFFFFFFFFFFFFFFF AND MUL OR SWAP1 SSTORE POP POP PUSH3 0x111 JUMP JUMPDEST PUSH0 DUP1 REVERT JUMPDEST PUSH0 PUSH20 0xFFFFFFFFFFFFFFFFFFFFFFFFFFFFFFFFFFFFFFFF DUP3 AND SWAP1 POP SWAP2 SWAP1 POP JUMP JUMPDEST PUSH0 PUSH3 0xAB DUP3 PUSH3 0x80 JUMP JUMPDEST SWAP1 POP SWAP2 SWAP1 POP JUMP JUMPDEST PUSH3 0xBD DUP2 PUSH3 0x9F JUMP JUMPDEST DUP2 EQ PUSH3 0xC8 JUMPI PUSH0 DUP1 REVERT JUMPDEST POP JUMP JUMPDEST PUSH0 DUP2 MLOAD SWAP1 POP PUSH3 0xDB DUP2 PUSH3 0xB2 JUMP JUMPDEST SWAP3 SWAP2 POP POP JUMP JUMPDEST PUSH0 PUSH1 0x20 DUP3 DUP5 SUB SLT ISZERO PUSH3 0xF9 JUMPI PUSH3 0xF8 PUSH3 0x7C JUMP JUMPDEST JUMPDEST PUSH0 PUSH3 0x108 DUP5 DUP3 DUP6 ADD PUSH3 0xCB JUMP JUMPDEST SWAP2 POP POP SWAP3 SWAP2 POP POP JUMP JUMPDEST PUSH2 0x1032 DUP1 PUSH3 0x11F PUSH0 CODECOPY PUSH0 RETURN INVALID PUSH1 0x80 PUSH1 0x40 MSTORE PUSH1 0x4 CALLDATASIZE LT PUSH2 0x7A JUMPI PUSH0 CALLDATALOAD PUSH1 0xE0 SHR DUP1 PUSH4 0x49C114FC GT PUSH2 0x4D JUMPI DUP1 PUSH4 0x49C114FC EQ PUSH2 0x138 JUMPI DUP1 PUSH4 0x51ED8288 EQ PUSH2 0x160 JUMPI DUP1 PUSH4 0x98953037 EQ PUSH2 0x188 JUMPI DUP1 PUSH4 0xC48283FF EQ PUSH2 0x1B2 JUMPI PUSH2 0x7A JUMP JUMPDEST DUP1 PUSH4 0x24600FC3 EQ PUSH2 0x7E JUMPI DUP1 PUSH4 0x265AA621 EQ PUSH2 0x94 JUMPI DUP1 PUSH4 0x27E235E3 EQ PUSH2 0xD2 JUMPI DUP1 PUSH4 0x3F407B84 EQ PUSH2 0x10E JUMPI JUMPDEST PUSH0 DUP1 REVERT JUMPDEST CALLVALUE DUP1 ISZERO PUSH2 0x89 JUMPI PUSH0 DUP1 REVERT JUMPDEST POP PUSH2 0x92 PUSH2 0x1CE JUMP JUMPDEST STOP JUMPDEST CALLVALUE DUP1 ISZERO PUSH2 0x9F JUMPI PUSH0 DUP1 REVERT JUMPDEST POP PUSH2 0xBA PUSH1 0x4 DUP1 CALLDATASIZE SUB DUP2 ADD SWAP1 PUSH2 0xB5 SWAP2 SWAP1 PUSH2 0x9A6 JUMP JUMPDEST PUSH2 0x37B JUMP JUMPDEST PUSH1 0x40 MLOAD PUSH2 0xC9 SWAP4 SWAP3 SWAP2 SWAP1 PUSH2 0xA39 JUMP JUMPDEST PUSH1 0x40 MLOAD DUP1 SWAP2 SUB SWAP1 RETURN JUMPDEST CALLVALUE DUP1 ISZERO PUSH2 0xDD JUMPI PUSH0 DUP1 REVERT JUMPDEST POP PUSH2 0xF8 PUSH1 0x4 DUP1 CALLDATASIZE SUB DUP2 ADD SWAP1 PUSH2 0xF3 SWAP2 SWAP1 PUSH2 0xA98 JUMP JUMPDEST PUSH2 0x3CC JUMP JUMPDEST PUSH1 0x40 MLOAD PUSH2 0x105 SWAP2 SWAP1 PUSH2 0xAC3 JUMP JUMPDEST PUSH1 0x40 MLOAD DUP1 SWAP2 SUB SWAP1 RETURN JUMPDEST CALLVALUE DUP1 ISZERO PUSH2 0x119 JUMPI PUSH0 DUP1 REVERT JUMPDEST POP PUSH2 0x122 PUSH2 0x3E1 JUMP JUMPDEST PUSH1 0x40 MLOAD PUSH2 0x12F SWAP2 SWAP1 PUSH2 0xAC3 JUMP JUMPDEST PUSH1 0x40 MLOAD DUP1 SWAP2 SUB SWAP1 RETURN JUMPDEST CALLVALUE DUP1 ISZERO PUSH2 0x143 JUMPI PUSH0 DUP1 REVERT JUMPDEST POP PUSH2 0x15E PUSH1 0x4 DUP1 CALLDATASIZE SUB DUP2 ADD SWAP1 PUSH2 0x159 SWAP2 SWAP1 PUSH2 0xADC JUMP JUMPDEST PUSH2 0x3E7 JUMP JUMPDEST STOP JUMPDEST CALLVALUE DUP1 ISZERO PUSH2 0x16B JUMPI PUSH0 DUP1 REVERT JUMPDEST POP PUSH2 0x186 PUSH1 0x4 DUP1 CALLDATASIZE SUB DUP2 ADD SWAP1 PUSH2 0x181 SWAP2 SWAP1 PUSH2 0x9A6 JUMP JUMPDEST PUSH2 0x561 JUMP JUMPDEST STOP JUMPDEST CALLVALUE DUP1 ISZERO PUSH2 0x193 JUMPI PUSH0 DUP1 REVERT JUMPDEST POP PUSH2 0x19C PUSH2 0x7AA JUMP JUMPDEST PUSH1 0x40 MLOAD PUSH2 0x1A9 SWAP2 SWAP1 PUSH2 0xB1A JUMP JUMPDEST PUSH1 0x40 MLOAD DUP1 SWAP2 SUB SWAP1 RETURN JUMPDEST PUSH2 0x1CC PUSH1 0x4 DUP1 CALLDATASIZE SUB DUP2 ADD SWAP1 PUSH2 0x1C7 SWAP2 SWAP1 PUSH2 0xADC JUMP JUMPDEST PUSH2 0x7CD JUMP JUMPDEST STOP JUMPDEST PUSH0 PUSH1 0x3 PUSH0 CALLER PUSH20 0xFFFFFFFFFFFFFFFFFFFFFFFFFFFFFFFFFFFFFFFF AND PUSH20 0xFFFFFFFFFFFFFFFFFFFFFFFFFFFFFFFFFFFFFFFF AND DUP2 MSTORE PUSH1 0x20 ADD SWAP1 DUP2 MSTORE PUSH1 0x20 ADD PUSH0 KECCAK256 SLOAD SWAP1 POP PUSH0 DUP2 GT PUSH2 0x251 JUMPI PUSH1 0x40 MLOAD PUSH32 0x8C379A000000000000000000000000000000000000000000000000000000000 DUP2 MSTORE PUSH1 0x4 ADD PUSH2 0x248 SWAP1 PUSH2 0xB8D JUMP JUMPDEST PUSH1 0x40 MLOAD DUP1 SWAP2 SUB SWAP1 REVERT JUMPDEST PUSH0 PUSH1 0x3 PUSH0 CALLER PUSH20 0xFFFFFFFFFFFFFFFFFFFFFFFFFFFFFFFFFFFFFFFF AND PUSH20 0xFFFFFFFFFFFFFFFFFFFFFFFFFFFFFFFFFFFFFFFF AND DUP2 MSTORE PUSH1 0x20 ADD SWAP1 DUP2 MSTORE PUSH1 0x20 ADD PUSH0 KECCAK256 DUP2 SWAP1 SSTORE POP CALLER PUSH20 0xFFFFFFFFFFFFFFFFFFFFFFFFFFFFFFFFFFFFFFFF AND PUSH2 0x8FC DUP3 SWAP1 DUP2 ISZERO MUL SWAP1 PUSH1 0x40 MLOAD PUSH0 PUSH1 0x40 MLOAD DUP1 DUP4 SUB DUP2 DUP6 DUP9 DUP9 CALL SWAP4 POP POP POP POP ISZERO DUP1 ISZERO PUSH2 0x2D6 JUMPI RETURNDATASIZE PUSH0 DUP1 RETURNDATACOPY RETURNDATASIZE PUSH0 REVERT JUMPDEST POP PUSH0 DUP1 PUSH0 SWAP1 SLOAD SWAP1 PUSH2 0x100 EXP SWAP1 DIV PUSH20 0xFFFFFFFFFFFFFFFFFFFFFFFFFFFFFFFFFFFFFFFF AND SWAP1 POP DUP1 PUSH20 0xFFFFFFFFFFFFFFFFFFFFFFFFFFFFFFFFFFFFFFFF AND PUSH4 0xA9059CBB CALLER DUP5 PUSH1 0x40 MLOAD DUP4 PUSH4 0xFFFFFFFF AND PUSH1 0xE0 SHL DUP2 MSTORE PUSH1 0x4 ADD PUSH2 0x336 SWAP3 SWAP2 SWAP1 PUSH2 0xBAB JUMP JUMPDEST PUSH1 0x20 PUSH1 0x40 MLOAD DUP1 DUP4 SUB DUP2 PUSH0 DUP8 GAS CALL ISZERO DUP1 ISZERO PUSH2 0x352 JUMPI RETURNDATASIZE PUSH0 DUP1 RETURNDATACOPY RETURNDATASIZE PUSH0 REVERT JUMPDEST POP POP POP POP PUSH1 0x40 MLOAD RETURNDATASIZE PUSH1 0x1F NOT PUSH1 0x1F DUP3 ADD AND DUP3 ADD DUP1 PUSH1 0x40 MSTORE POP DUP2 ADD SWAP1 PUSH2 0x376 SWAP2 SWAP1 PUSH2 0xBFC JUMP JUMPDEST POP POP POP JUMP JUMPDEST PUSH1 0x2 PUSH1 0x20 MSTORE DUP1 PUSH0 MSTORE PUSH1 0x40 PUSH0 KECCAK256 PUSH0 SWAP2 POP SWAP1 POP DUP1 PUSH0 ADD PUSH0 SWAP1 SLOAD SWAP1 PUSH2 0x100 EXP SWAP1 DIV PUSH20 0xFFFFFFFFFFFFFFFFFFFFFFFFFFFFFFFFFFFFFFFF AND SWAP1 DUP1 PUSH0 ADD PUSH1 0x14 SWAP1 SLOAD SWAP1 PUSH2 0x100 EXP SWAP1 DIV PUSH1 0xFF AND SWAP1 DUP1 PUSH1 0x1 ADD SLOAD SWAP1 POP DUP4 JUMP JUMPDEST PUSH1 0x3 PUSH1 0x20 MSTORE DUP1 PUSH0 MSTORE PUSH1 0x40 PUSH0 KECCAK256 PUSH0 SWAP2 POP SWAP1 POP SLOAD DUP2 JUMP JUMPDEST PUSH1 0x1 SLOAD DUP2 JUMP JUMPDEST CALLER PUSH20 0xFFFFFFFFFFFFFFFFFFFFFFFFFFFFFFFFFFFFFFFF AND PUSH1 0x2 PUSH0 DUP5 DUP2 MSTORE PUSH1 0x20 ADD SWAP1 DUP2 MSTORE PUSH1 0x20 ADD PUSH0 KECCAK256 PUSH0 ADD PUSH0 SWAP1 SLOAD SWAP1 PUSH2 0x100 EXP SWAP1 DIV PUSH20 0xFFFFFFFFFFFFFFFFFFFFFFFFFFFFFFFFFFFFFFFF AND PUSH20 0xFFFFFFFFFFFFFFFFFFFFFFFFFFFFFFFFFFFFFFFF AND EQ PUSH2 0x487 JUMPI PUSH1 0x40 MLOAD PUSH32 0x8C379A000000000000000000000000000000000000000000000000000000000 DUP2 MSTORE PUSH1 0x4 ADD PUSH2 0x47E SWAP1 PUSH2 0xC71 JUMP JUMPDEST PUSH1 0x40 MLOAD DUP1 SWAP2 SUB SWAP1 REVERT JUMPDEST PUSH1 0x2 PUSH0 DUP4 DUP2 MSTORE PUSH1 0x20 ADD SWAP1 DUP2 MSTORE PUSH1 0x20 ADD PUSH0 KECCAK256 PUSH0 ADD PUSH1 0x14 SWAP1 SLOAD SWAP1 PUSH2 0x100 EXP SWAP1 DIV PUSH1 0xFF AND ISZERO PUSH2 0x4E8 JUMPI PUSH1 0x40 MLOAD PUSH32 0x8C379A000000000000000000000000000000000000000000000000000000000 DUP2 MSTORE PUSH1 0x4 ADD PUSH2 0x4DF SWAP1 PUSH2 0xCD9 JUMP JUMPDEST PUSH1 0x40 MLOAD DUP1 SWAP2 SUB SWAP1 REVERT JUMPDEST PUSH0 DUP2 GT PUSH2 0x52A JUMPI PUSH1 0x40 MLOAD PUSH32 0x8C379A000000000000000000000000000000000000000000000000000000000 DUP2 MSTORE PUSH1 0x4 ADD PUSH2 0x521 SWAP1 PUSH2 0xD67 JUMP JUMPDEST PUSH1 0x40 MLOAD DUP1 SWAP2 SUB SWAP1 REVERT JUMPDEST DUP1 PUSH1 0x1 DUP2 SWAP1 SSTORE POP PUSH1 0x1 PUSH1 0x2 PUSH0 DUP5 DUP2 MSTORE PUSH1 0x20 ADD SWAP1 DUP2 MSTORE PUSH1 0x20 ADD PUSH0 KECCAK256 PUSH0 ADD PUSH1 0x14 PUSH2 0x100 EXP DUP2 SLOAD DUP2 PUSH1 0xFF MUL NOT AND SWAP1 DUP4 ISZERO ISZERO MUL OR SWAP1 SSTORE POP POP POP JUMP JUMPDEST PUSH0 PUSH1 0x2 PUSH0 DUP4 DUP2 MSTORE PUSH1 0x20 ADD SWAP1 DUP2 MSTORE PUSH1 0x20 ADD PUSH0 KECCAK256 SWAP1 POP DUP1 PUSH0 ADD PUSH1 0x14 SWAP1 SLOAD SWAP1 PUSH2 0x100 EXP SWAP1 DIV PUSH1 0xFF AND PUSH2 0x5C5 JUMPI PUSH1 0x40 MLOAD PUSH32 0x8C379A000000000000000000000000000000000000000000000000000000000 DUP2 MSTORE PUSH1 0x4 ADD PUSH2 0x5BC SWAP1 PUSH2 0xDCF JUMP JUMPDEST PUSH1 0x40 MLOAD DUP1 SWAP2 SUB SWAP1 REVERT JUMPDEST PUSH0 DUP2 PUSH1 0x1 ADD SLOAD GT PUSH2 0x60B JUMPI PUSH1 0x40 MLOAD PUSH32 0x8C379A000000000000000000000000000000000000000000000000000000000 DUP2 MSTORE PUSH1 0x4 ADD PUSH2 0x602 SWAP1 PUSH2 0xE37 JUMP JUMPDEST PUSH1 0x40 MLOAD DUP1 SWAP2 SUB SWAP1 REVERT JUMPDEST PUSH0 DUP1 PUSH0 SWAP1 SLOAD SWAP1 PUSH2 0x100 EXP SWAP1 DIV PUSH20 0xFFFFFFFFFFFFFFFFFFFFFFFFFFFFFFFFFFFFFFFF AND SWAP1 POP DUP1 PUSH20 0xFFFFFFFFFFFFFFFFFFFFFFFFFFFFFFFFFFFFFFFF AND PUSH4 0x23B872DD CALLER DUP5 PUSH0 ADD PUSH0 SWAP1 SLOAD SWAP1 PUSH2 0x100 EXP SWAP1 DIV PUSH20 0xFFFFFFFFFFFFFFFFFFFFFFFFFFFFFFFFFFFFFFFF AND PUSH1 0x1 PUSH1 0x40 MLOAD DUP5 PUSH4 0xFFFFFFFF AND PUSH1 0xE0 SHL DUP2 MSTORE PUSH1 0x4 ADD PUSH2 0x68F SWAP4 SWAP3 SWAP2 SWAP1 PUSH2 0xE97 JUMP JUMPDEST PUSH1 0x20 PUSH1 0x40 MLOAD DUP1 DUP4 SUB DUP2 PUSH0 DUP8 GAS CALL ISZERO DUP1 ISZERO PUSH2 0x6AB JUMPI RETURNDATASIZE PUSH0 DUP1 RETURNDATACOPY RETURNDATASIZE PUSH0 REVERT JUMPDEST POP POP POP POP PUSH1 0x40 MLOAD RETURNDATASIZE PUSH1 0x1F NOT PUSH1 0x1F DUP3 ADD AND DUP3 ADD DUP1 PUSH1 0x40 MSTORE POP DUP2 ADD SWAP1 PUSH2 0x6CF SWAP2 SWAP1 PUSH2 0xBFC JUMP JUMPDEST POP DUP2 PUSH1 0x1 ADD SLOAD PUSH1 0x3 PUSH0 DUP5 PUSH0 ADD PUSH0 SWAP1 SLOAD SWAP1 PUSH2 0x100 EXP SWAP1 DIV PUSH20 0xFFFFFFFFFFFFFFFFFFFFFFFFFFFFFFFFFFFFFFFF AND PUSH20 0xFFFFFFFFFFFFFFFFFFFFFFFFFFFFFFFFFFFFFFFF AND PUSH20 0xFFFFFFFFFFFFFFFFFFFFFFFFFFFFFFFFFFFFFFFF AND DUP2 MSTORE PUSH1 0x20 ADD SWAP1 DUP2 MSTORE PUSH1 0x20 ADD PUSH0 KECCAK256 PUSH0 DUP3 DUP3 SLOAD PUSH2 0x742 SWAP2 SWAP1 PUSH2 0xEF9 JUMP JUMPDEST SWAP3 POP POP DUP2 SWAP1 SSTORE POP CALLER DUP3 PUSH0 ADD PUSH0 PUSH2 0x100 EXP DUP2 SLOAD DUP2 PUSH20 0xFFFFFFFFFFFFFFFFFFFFFFFFFFFFFFFFFFFFFFFF MUL NOT AND SWAP1 DUP4 PUSH20 0xFFFFFFFFFFFFFFFFFFFFFFFFFFFFFFFFFFFFFFFF AND MUL OR SWAP1 SSTORE POP PUSH0 DUP3 PUSH0 ADD PUSH1 0x14 PUSH2 0x100 EXP DUP2 SLOAD DUP2 PUSH1 0xFF MUL NOT AND SWAP1 DUP4 ISZERO ISZERO MUL OR SWAP1 SSTORE POP POP POP POP JUMP JUMPDEST PUSH0 DUP1 SLOAD SWAP1 PUSH2 0x100 EXP SWAP1 DIV PUSH20 0xFFFFFFFFFFFFFFFFFFFFFFFFFFFFFFFFFFFFFFFF AND DUP2 JUMP JUMPDEST PUSH0 PUSH20 0xFFFFFFFFFFFFFFFFFFFFFFFFFFFFFFFFFFFFFFFF AND PUSH1 0x2 PUSH0 DUP5 DUP2 MSTORE PUSH1 0x20 ADD SWAP1 DUP2 MSTORE PUSH1 0x20 ADD PUSH0 KECCAK256 PUSH0 ADD PUSH0 SWAP1 SLOAD SWAP1 PUSH2 0x100 EXP SWAP1 DIV PUSH20 0xFFFFFFFFFFFFFFFFFFFFFFFFFFFFFFFFFFFFFFFF AND PUSH20 0xFFFFFFFFFFFFFFFFFFFFFFFFFFFFFFFFFFFFFFFF AND EQ PUSH2 0x86D JUMPI PUSH1 0x40 MLOAD PUSH32 0x8C379A000000000000000000000000000000000000000000000000000000000 DUP2 MSTORE PUSH1 0x4 ADD PUSH2 0x864 SWAP1 PUSH2 0xF76 JUMP JUMPDEST PUSH1 0x40 MLOAD DUP1 SWAP2 SUB SWAP1 REVERT JUMPDEST PUSH8 0x16345785D8A0000 CALLVALUE EQ PUSH2 0x8B7 JUMPI PUSH1 0x40 MLOAD PUSH32 0x8C379A000000000000000000000000000000000000000000000000000000000 DUP2 MSTORE PUSH1 0x4 ADD PUSH2 0x8AE SWAP1 PUSH2 0xFDE JUMP JUMPDEST PUSH1 0x40 MLOAD DUP1 SWAP2 SUB SWAP1 REVERT JUMPDEST PUSH1 0x40 MLOAD DUP1 PUSH1 0x60 ADD PUSH1 0x40 MSTORE DUP1 CALLER PUSH20 0xFFFFFFFFFFFFFFFFFFFFFFFFFFFFFFFFFFFFFFFF AND DUP2 MSTORE PUSH1 0x20 ADD PUSH0 ISZERO ISZERO DUP2 MSTORE PUSH1 0x20 ADD DUP3 DUP2 MSTORE POP PUSH1 0x2 PUSH0 DUP5 DUP2 MSTORE PUSH1 0x20 ADD SWAP1 DUP2 MSTORE PUSH1 0x20 ADD PUSH0 KECCAK256 PUSH0 DUP3 ADD MLOAD DUP2 PUSH0 ADD PUSH0 PUSH2 0x100 EXP DUP2 SLOAD DUP2 PUSH20 0xFFFFFFFFFFFFFFFFFFFFFFFFFFFFFFFFFFFFFFFF MUL NOT AND SWAP1 DUP4 PUSH20 0xFFFFFFFFFFFFFFFFFFFFFFFFFFFFFFFFFFFFFFFF AND MUL OR SWAP1 SSTORE POP PUSH1 0x20 DUP3 ADD MLOAD DUP2 PUSH0 ADD PUSH1 0x14 PUSH2 0x100 EXP DUP2 SLOAD DUP2 PUSH1 0xFF MUL NOT AND SWAP1 DUP4 ISZERO ISZERO MUL OR SWAP1 SSTORE POP PUSH1 0x40 DUP3 ADD MLOAD DUP2 PUSH1 0x1 ADD SSTORE SWAP1 POP POP POP POP JUMP JUMPDEST PUSH0 DUP1 REVERT JUMPDEST PUSH0 DUP2 SWAP1 POP SWAP2 SWAP1 POP JUMP JUMPDEST PUSH2 0x985 DUP2 PUSH2 0x973 JUMP JUMPDEST DUP2 EQ PUSH2 0x98F JUMPI PUSH0 DUP1 REVERT JUMPDEST POP JUMP JUMPDEST PUSH0 DUP2 CALLDATALOAD SWAP1 POP PUSH2 0x9A0 DUP2 PUSH2 0x97C JUMP JUMPDEST SWAP3 SWAP2 POP POP JUMP JUMPDEST PUSH0 PUSH1 0x20 DUP3 DUP5 SUB SLT ISZERO PUSH2 0x9BB JUMPI PUSH2 0x9BA PUSH2 0x96F JUMP JUMPDEST JUMPDEST PUSH0 PUSH2 0x9C8 DUP5 DUP3 DUP6 ADD PUSH2 0x992 JUMP JUMPDEST SWAP2 POP POP SWAP3 SWAP2 POP POP JUMP JUMPDEST PUSH0 PUSH20 0xFFFFFFFFFFFFFFFFFFFFFFFFFFFFFFFFFFFFFFFF DUP3 AND SWAP1 POP SWAP2 SWAP1 POP JUMP JUMPDEST PUSH0 PUSH2 0x9FA DUP3 PUSH2 0x9D1 JUMP JUMPDEST SWAP1 POP SWAP2 SWAP1 POP JUMP JUMPDEST PUSH2 0xA0A DUP2 PUSH2 0x9F0 JUMP JUMPDEST DUP3 MSTORE POP POP JUMP JUMPDEST PUSH0 DUP2 ISZERO ISZERO SWAP1 POP SWAP2 SWAP1 POP JUMP JUMPDEST PUSH2 0xA24 DUP2 PUSH2 0xA10 JUMP JUMPDEST DUP3 MSTORE POP POP JUMP JUMPDEST PUSH2 0xA33 DUP2 PUSH2 0x973 JUMP JUMPDEST DUP3 MSTORE POP POP JUMP JUMPDEST PUSH0 PUSH1 0x60 DUP3 ADD SWAP1 POP PUSH2 0xA4C PUSH0 DUP4 ADD DUP7 PUSH2 0xA01 JUMP JUMPDEST PUSH2 0xA59 PUSH1 0x20 DUP4 ADD DUP6 PUSH2 0xA1B JUMP JUMPDEST PUSH2 0xA66 PUSH1 0x40 DUP4 ADD DUP5 PUSH2 0xA2A JUMP JUMPDEST SWAP5 SWAP4 POP POP POP POP JUMP JUMPDEST PUSH2 0xA77 DUP2 PUSH2 0x9F0 JUMP JUMPDEST DUP2 EQ PUSH2 0xA81 JUMPI PUSH0 DUP1 REVERT JUMPDEST POP JUMP JUMPDEST PUSH0 DUP2 CALLDATALOAD SWAP1 POP PUSH2 0xA92 DUP2 PUSH2 0xA6E JUMP JUMPDEST SWAP3 SWAP2 POP POP JUMP JUMPDEST PUSH0 PUSH1 0x20 DUP3 DUP5 SUB SLT ISZERO PUSH2 0xAAD JUMPI PUSH2 0xAAC PUSH2 0x96F JUMP JUMPDEST JUMPDEST PUSH0 PUSH2 0xABA DUP5 DUP3 DUP6 ADD PUSH2 0xA84 JUMP JUMPDEST SWAP2 POP POP SWAP3 SWAP2 POP POP JUMP JUMPDEST PUSH0 PUSH1 0x20 DUP3 ADD SWAP1 POP PUSH2 0xAD6 PUSH0 DUP4 ADD DUP5 PUSH2 0xA2A JUMP JUMPDEST SWAP3 SWAP2 POP POP JUMP JUMPDEST PUSH0 DUP1 PUSH1 0x40 DUP4 DUP6 SUB SLT ISZERO PUSH2 0xAF2 JUMPI PUSH2 0xAF1 PUSH2 0x96F JUMP JUMPDEST JUMPDEST PUSH0 PUSH2 0xAFF DUP6 DUP3 DUP7 ADD PUSH2 0x992 JUMP JUMPDEST SWAP3 POP POP PUSH1 0x20 PUSH2 0xB10 DUP6 DUP3 DUP7 ADD PUSH2 0x992 JUMP JUMPDEST SWAP2 POP POP SWAP3 POP SWAP3 SWAP1 POP JUMP JUMPDEST PUSH0 PUSH1 0x20 DUP3 ADD SWAP1 POP PUSH2 0xB2D PUSH0 DUP4 ADD DUP5 PUSH2 0xA01 JUMP JUMPDEST SWAP3 SWAP2 POP POP JUMP JUMPDEST PUSH0 DUP3 DUP3 MSTORE PUSH1 0x20 DUP3 ADD SWAP1 POP SWAP3 SWAP2 POP POP JUMP JUMPDEST PUSH32 0x4E6F2066756E647320746F207769746864726177000000000000000000000000 PUSH0 DUP3 ADD MSTORE POP JUMP JUMPDEST PUSH0 PUSH2 0xB77 PUSH1 0x14 DUP4 PUSH2 0xB33 JUMP JUMPDEST SWAP2 POP PUSH2 0xB82 DUP3 PUSH2 0xB43 JUMP JUMPDEST PUSH1 0x20 DUP3 ADD SWAP1 POP SWAP2 SWAP1 POP JUMP JUMPDEST PUSH0 PUSH1 0x20 DUP3 ADD SWAP1 POP DUP2 DUP2 SUB PUSH0 DUP4 ADD MSTORE PUSH2 0xBA4 DUP2 PUSH2 0xB6B JUMP JUMPDEST SWAP1 POP SWAP2 SWAP1 POP JUMP JUMPDEST PUSH0 PUSH1 0x40 DUP3 ADD SWAP1 POP PUSH2 0xBBE PUSH0 DUP4 ADD DUP6 PUSH2 0xA01 JUMP JUMPDEST PUSH2 0xBCB PUSH1 0x20 DUP4 ADD DUP5 PUSH2 0xA2A JUMP JUMPDEST SWAP4 SWAP3 POP POP POP JUMP JUMPDEST PUSH2 0xBDB DUP2 PUSH2 0xA10 JUMP JUMPDEST DUP2 EQ PUSH2 0xBE5 JUMPI PUSH0 DUP1 REVERT JUMPDEST POP JUMP JUMPDEST PUSH0 DUP2 MLOAD SWAP1 POP PUSH2 0xBF6 DUP2 PUSH2 0xBD2 JUMP JUMPDEST SWAP3 SWAP2 POP POP JUMP JUMPDEST PUSH0 PUSH1 0x20 DUP3 DUP5 SUB SLT ISZERO PUSH2 0xC11 JUMPI PUSH2 0xC10 PUSH2 0x96F JUMP JUMPDEST JUMPDEST PUSH0 PUSH2 0xC1E DUP5 DUP3 DUP6 ADD PUSH2 0xBE8 JUMP JUMPDEST SWAP2 POP POP SWAP3 SWAP2 POP POP JUMP JUMPDEST PUSH32 0x4E6F7420746865204E4654206F776E6572000000000000000000000000000000 PUSH0 DUP3 ADD MSTORE POP JUMP JUMPDEST PUSH0 PUSH2 0xC5B PUSH1 0x11 DUP4 PUSH2 0xB33 JUMP JUMPDEST SWAP2 POP PUSH2 0xC66 DUP3 PUSH2 0xC27 JUMP JUMPDEST PUSH1 0x20 DUP3 ADD SWAP1 POP SWAP2 SWAP1 POP JUMP JUMPDEST PUSH0 PUSH1 0x20 DUP3 ADD SWAP1 POP DUP2 DUP2 SUB PUSH0 DUP4 ADD MSTORE PUSH2 0xC88 DUP2 PUSH2 0xC4F JUMP JUMPDEST SWAP1 POP SWAP2 SWAP1 POP JUMP JUMPDEST PUSH32 0x4E465420697320616C726561647920666F722073616C65000000000000000000 PUSH0 DUP3 ADD MSTORE POP JUMP JUMPDEST PUSH0 PUSH2 0xCC3 PUSH1 0x17 DUP4 PUSH2 0xB33 JUMP JUMPDEST SWAP2 POP PUSH2 0xCCE DUP3 PUSH2 0xC8F JUMP JUMPDEST PUSH1 0x20 DUP3 ADD SWAP1 POP SWAP2 SWAP1 POP JUMP JUMPDEST PUSH0 PUSH1 0x20 DUP3 ADD SWAP1 POP DUP2 DUP2 SUB PUSH0 DUP4 ADD MSTORE PUSH2 0xCF0 DUP2 PUSH2 0xCB7 JUMP JUMPDEST SWAP1 POP SWAP2 SWAP1 POP JUMP JUMPDEST PUSH32 0x53656C6C20616D6F756E74206D7573742062652067726561746572207468616E PUSH0 DUP3 ADD MSTORE PUSH32 0x2030000000000000000000000000000000000000000000000000000000000000 PUSH1 0x20 DUP3 ADD MSTORE POP JUMP JUMPDEST PUSH0 PUSH2 0xD51 PUSH1 0x22 DUP4 PUSH2 0xB33 JUMP JUMPDEST SWAP2 POP PUSH2 0xD5C DUP3 PUSH2 0xCF7 JUMP JUMPDEST PUSH1 0x40 DUP3 ADD SWAP1 POP SWAP2 SWAP1 POP JUMP JUMPDEST PUSH0 PUSH1 0x20 DUP3 ADD SWAP1 POP DUP2 DUP2 SUB PUSH0 DUP4 ADD MSTORE PUSH2 0xD7E DUP2 PUSH2 0xD45 JUMP JUMPDEST SWAP1 POP SWAP2 SWAP1 POP JUMP JUMPDEST PUSH32 0x4E4654206973206E6F7420666F722073616C6500000000000000000000000000 PUSH0 DUP3 ADD MSTORE POP JUMP JUMPDEST PUSH0 PUSH2 0xDB9 PUSH1 0x13 DUP4 PUSH2 0xB33 JUMP JUMPDEST SWAP2 POP PUSH2 0xDC4 DUP3 PUSH2 0xD85 JUMP JUMPDEST PUSH1 0x20 DUP3 ADD SWAP1 POP SWAP2 SWAP1 POP JUMP JUMPDEST PUSH0 PUSH1 0x20 DUP3 ADD SWAP1 POP DUP2 DUP2 SUB PUSH0 DUP4 ADD MSTORE PUSH2 0xDE6 DUP2 PUSH2 0xDAD JUMP JUMPDEST SWAP1 POP SWAP2 SWAP1 POP JUMP JUMPDEST PUSH32 0x4E4654207072696365206D7573742062652067726561746572207468616E2030 PUSH0 DUP3 ADD MSTORE POP JUMP JUMPDEST PUSH0 PUSH2 0xE21 PUSH1 0x20 DUP4 PUSH2 0xB33 JUMP JUMPDEST SWAP2 POP PUSH2 0xE2C DUP3 PUSH2 0xDED JUMP JUMPDEST PUSH1 0x20 DUP3 ADD SWAP1 POP SWAP2 SWAP1 POP JUMP JUMPDEST PUSH0 PUSH1 0x20 DUP3 ADD SWAP1 POP DUP2 DUP2 SUB PUSH0 DUP4 ADD MSTORE PUSH2 0xE4E DUP2 PUSH2 0xE15 JUMP JUMPDEST SWAP1 POP SWAP2 SWAP1 POP JUMP JUMPDEST PUSH0 DUP2 SWAP1 POP SWAP2 SWAP1 POP JUMP JUMPDEST PUSH0 DUP2 SWAP1 POP SWAP2 SWAP1 POP JUMP JUMPDEST PUSH0 PUSH2 0xE81 PUSH2 0xE7C PUSH2 0xE77 DUP5 PUSH2 0xE55 JUMP JUMPDEST PUSH2 0xE5E JUMP JUMPDEST PUSH2 0x973 JUMP JUMPDEST SWAP1 POP SWAP2 SWAP1 POP JUMP JUMPDEST PUSH2 0xE91 DUP2 PUSH2 0xE67 JUMP JUMPDEST DUP3 MSTORE POP POP JUMP JUMPDEST PUSH0 PUSH1 0x60 DUP3 ADD SWAP1 POP PUSH2 0xEAA PUSH0 DUP4 ADD DUP7 PUSH2 0xA01 JUMP JUMPDEST PUSH2 0xEB7 PUSH1 0x20 DUP4 ADD DUP6 PUSH2 0xA01 JUMP JUMPDEST PUSH2 0xEC4 PUSH1 0x40 DUP4 ADD DUP5 PUSH2 0xE88 JUMP JUMPDEST SWAP5 SWAP4 POP POP POP POP JUMP JUMPDEST PUSH32 0x4E487B7100000000000000000000000000000000000000000000000000000000 PUSH0 MSTORE PUSH1 0x11 PUSH1 0x4 MSTORE PUSH1 0x24 PUSH0 REVERT JUMPDEST PUSH0 PUSH2 0xF03 DUP3 PUSH2 0x973 JUMP JUMPDEST SWAP2 POP PUSH2 0xF0E DUP4 PUSH2 0x973 JUMP JUMPDEST SWAP3 POP DUP3 DUP3 ADD SWAP1 POP DUP1 DUP3 GT ISZERO PUSH2 0xF26 JUMPI PUSH2 0xF25 PUSH2 0xECC JUMP JUMPDEST JUMPDEST SWAP3 SWAP2 POP POP JUMP JUMPDEST PUSH32 0x4E465420616C7265616479206578697374730000000000000000000000000000 PUSH0 DUP3 ADD MSTORE POP JUMP JUMPDEST PUSH0 PUSH2 0xF60 PUSH1 0x12 DUP4 PUSH2 0xB33 JUMP JUMPDEST SWAP2 POP PUSH2 0xF6B DUP3 PUSH2 0xF2C JUMP JUMPDEST PUSH1 0x20 DUP3 ADD SWAP1 POP SWAP2 SWAP1 POP JUMP JUMPDEST PUSH0 PUSH1 0x20 DUP3 ADD SWAP1 POP DUP2 DUP2 SUB PUSH0 DUP4 ADD MSTORE PUSH2 0xF8D DUP2 PUSH2 0xF54 JUMP JUMPDEST SWAP1 POP SWAP2 SWAP1 POP JUMP JUMPDEST PUSH32 0x496E73756666696369656E742045746865722073656E74000000000000000000 PUSH0 DUP3 ADD MSTORE POP JUMP JUMPDEST PUSH0 PUSH2 0xFC8 PUSH1 0x17 DUP4 PUSH2 0xB33 JUMP JUMPDEST SWAP2 POP PUSH2 0xFD3 DUP3 PUSH2 0xF94 JUMP JUMPDEST PUSH1 0x20 DUP3 ADD SWAP1 POP SWAP2 SWAP1 POP JUMP JUMPDEST PUSH0 PUSH1 0x20 DUP3 ADD SWAP1 POP DUP2 DUP2 SUB PUSH0 DUP4 ADD MSTORE PUSH2 0xFF5 DUP2 PUSH2 0xFBC JUMP JUMPDEST SWAP1 POP SWAP2 SWAP1 POP JUMP INVALID LOG2 PUSH5 0x6970667358 0x22 SLT KECCAK256 SELFBALANCE 0x27 EXTCODECOPY 0x4C 0xDA 0xF7 COINBASE 0xA7 PUSH14 0x1BC58C914302F1C5CBE619606944 0xB5 0xC9 MSTORE PUSH6 0xDE868ED7E664 PUSH20 0x6F6C634300081400330000000000000000000000 "
				},
				"gasEstimates": {
					"creation": {
						"codeDepositCost": "829200",
						"executionCost": "infinite",
						"totalCost": "infinite"
					},
					"external": {
						"NFTSale(uint256,uint256)": "infinite",
						"TokenAd()": "2549",
						"balances(address)": "2847",
						"buyNFT(uint256)": "infinite",
						"mintNFT(uint256,uint256)": "infinite",
						"nfts(uint256)": "infinite",
						"sellAmount()": "2492",
						"withdrawFunds()": "infinite"
					}
				},
				"methodIdentifiers": {
					"NFTSale(uint256,uint256)": "49c114fc",
					"TokenAd()": "98953037",
					"balances(address)": "27e235e3",
					"buyNFT(uint256)": "51ed8288",
					"mintNFT(uint256,uint256)": "c48283ff",
					"nfts(uint256)": "265aa621",
					"sellAmount()": "3f407b84",
					"withdrawFunds()": "24600fc3"
				}
			},
			"storageLayout": {
				"storage": [
					{
						"astId": 11,
						"contract": "1_NFT Marketplace/NFT_Marketplace.sol:NFTMarketplace",
						"label": "TokenAd",
						"offset": 0,
						"slot": "0",
						"type": "t_address"
					},
					{
						"astId": 13,
						"contract": "1_NFT Marketplace/NFT_Marketplace.sol:NFTMarketplace",
						"label": "sellAmount",
						"offset": 0,
						"slot": "1",
						"type": "t_uint256"
					},
					{
						"astId": 18,
						"contract": "1_NFT Marketplace/NFT_Marketplace.sol:NFTMarketplace",
						"label": "nfts",
						"offset": 0,
						"slot": "2",
						"type": "t_mapping(t_uint256,t_struct(NFT)9_storage)"
					},
					{
						"astId": 22,
						"contract": "1_NFT Marketplace/NFT_Marketplace.sol:NFTMarketplace",
						"label": "balances",
						"offset": 0,
						"slot": "3",
						"type": "t_mapping(t_address,t_uint256)"
					}
				],
				"types": {
					"t_address": {
						"encoding": "inplace",
						"label": "address",
						"numberOfBytes": "20"
					},
					"t_bool": {
						"encoding": "inplace",
						"label": "bool",
						"numberOfBytes": "1"
					},
					"t_mapping(t_address,t_uint256)": {
						"encoding": "mapping",
						"key": "t_address",
						"label": "mapping(address => uint256)",
						"numberOfBytes": "32",
						"value": "t_uint256"
					},
					"t_mapping(t_uint256,t_struct(NFT)9_storage)": {
						"encoding": "mapping",
						"key": "t_uint256",
						"label": "mapping(uint256 => struct NFTMarketplace.NFT)",
						"numberOfBytes": "32",
						"value": "t_struct(NFT)9_storage"
					},
					"t_struct(NFT)9_storage": {
						"encoding": "inplace",
						"label": "struct NFTMarketplace.NFT",
						"members": [
							{
								"astId": 4,
								"contract": "1_NFT Marketplace/NFT_Marketplace.sol:NFTMarketplace",
								"label": "owner",
								"offset": 0,
								"slot": "0",
								"type": "t_address"
							},
							{
								"astId": 6,
								"contract": "1_NFT Marketplace/NFT_Marketplace.sol:NFTMarketplace",
								"label": "isForSale",
								"offset": 20,
								"slot": "0",
								"type": "t_bool"
							},
							{
								"astId": 8,
								"contract": "1_NFT Marketplace/NFT_Marketplace.sol:NFTMarketplace",
								"label": "price",
								"offset": 0,
								"slot": "1",
								"type": "t_uint256"
							}
						],
						"numberOfBytes": "64"
					},
					"t_uint256": {
						"encoding": "inplace",
						"label": "uint256",
						"numberOfBytes": "32"
					}
				}
			},
			"userdoc": {
				"kind": "user",
				"methods": {},
				"version": 1
			}
		}
	}
}