{
	"3_Token Swap/DEX.sol": {
		"DEX": {
			"abi": [
				{
					"inputs": [
						{
							"internalType": "address",
							"name": "_tokenA",
							"type": "address"
						},
						{
							"internalType": "address",
							"name": "_tokenB",
							"type": "address"
						},
						{
							"internalType": "address",
							"name": "_tokenOwner",
							"type": "address"
						}
					],
					"stateMutability": "nonpayable",
					"type": "constructor"
				},
				{
					"inputs": [
						{
							"internalType": "uint256",
							"name": "_amount",
							"type": "uint256"
						}
					],
					"name": "AtoB",
					"outputs": [
						{
							"internalType": "uint256",
							"name": "amountOfA",
							"type": "uint256"
						},
						{
							"internalType": "uint256",
							"name": "totalAmount",
							"type": "uint256"
						},
						{
							"internalType": "uint256",
							"name": "amountOfB",
							"type": "uint256"
						}
					],
					"stateMutability": "nonpayable",
					"type": "function"
				},
				{
					"inputs": [
						{
							"internalType": "uint256",
							"name": "_amount",
							"type": "uint256"
						}
					],
					"name": "BtoA",
					"outputs": [
						{
							"internalType": "uint256",
							"name": "amountOfB",
							"type": "uint256"
						},
						{
							"internalType": "uint256",
							"name": "totalAmount",
							"type": "uint256"
						},
						{
							"internalType": "uint256",
							"name": "amountOfA",
							"type": "uint256"
						}
					],
					"stateMutability": "nonpayable",
					"type": "function"
				},
				{
					"inputs": [
						{
							"internalType": "uint256",
							"name": "_amountTokenA_B",
							"type": "uint256"
						}
					],
					"name": "addLiquidity",
					"outputs": [],
					"stateMutability": "nonpayable",
					"type": "function"
				},
				{
					"inputs": [],
					"name": "checkPool",
					"outputs": [
						{
							"internalType": "uint256",
							"name": "A",
							"type": "uint256"
						},
						{
							"internalType": "uint256",
							"name": "B",
							"type": "uint256"
						}
					],
					"stateMutability": "view",
					"type": "function"
				},
				{
					"inputs": [],
					"name": "swapRate",
					"outputs": [
						{
							"internalType": "uint256",
							"name": "",
							"type": "uint256"
						},
						{
							"internalType": "uint256",
							"name": "",
							"type": "uint256"
						}
					],
					"stateMutability": "nonpayable",
					"type": "function"
				},
				{
					"inputs": [],
					"name": "tokenA",
					"outputs": [
						{
							"internalType": "address",
							"name": "",
							"type": "address"
						}
					],
					"stateMutability": "view",
					"type": "function"
				},
				{
					"inputs": [],
					"name": "tokenAPrice",
					"outputs": [
						{
							"internalType": "uint256",
							"name": "",
							"type": "uint256"
						}
					],
					"stateMutability": "view",
					"type": "function"
				},
				{
					"inputs": [],
					"name": "tokenB",
					"outputs": [
						{
							"internalType": "address",
							"name": "",
							"type": "address"
						}
					],
					"stateMutability": "view",
					"type": "function"
				},
				{
					"inputs": [],
					"name": "tokenBPrice",
					"outputs": [
						{
							"internalType": "uint256",
							"name": "",
							"type": "uint256"
						}
					],
					"stateMutability": "view",
					"type": "function"
				},
				{
					"inputs": [],
					"name": "totalA",
					"outputs": [
						{
							"internalType": "uint256",
							"name": "",
							"type": "uint256"
						}
					],
					"stateMutability": "view",
					"type": "function"
				},
				{
					"inputs": [],
					"name": "totalB",
					"outputs": [
						{
							"internalType": "uint256",
							"name": "",
							"type": "uint256"
						}
					],
					"stateMutability": "view",
					"type": "function"
				}
			],
			"devdoc": {
				"kind": "dev",
				"methods": {},
				"version": 1
			},
			"evm": {
				"assembly": "    /* \"3_Token Swap/DEX.sol\":176:2906  contract DEX... */\n  mstore(0x40, 0x80)\n    /* \"3_Token Swap/DEX.sol\":394:563  constructor(address _tokenA, address _tokenB, address _tokenOwner)... */\n  callvalue\n  dup1\n  iszero\n  tag_1\n  jumpi\n  0x00\n  dup1\n  revert\ntag_1:\n  pop\n  mload(0x40)\n  sub(codesize, bytecodeSize)\n  dup1\n  bytecodeSize\n  dup4\n  codecopy\n  dup2\n  dup2\n  add\n  0x40\n  mstore\n  dup2\n  add\n  swap1\n  tag_2\n  swap2\n  swap1\n  tag_3\n  jump\t// in\ntag_2:\n    /* \"3_Token Swap/DEX.sol\":486:493  _tokenA */\n  dup3\n    /* \"3_Token Swap/DEX.sol\":477:483  tokenA */\n  0x00\n  dup1\n    /* \"3_Token Swap/DEX.sol\":477:493  tokenA = _tokenA */\n  0x0100\n  exp\n  dup2\n  sload\n  dup2\n  0xffffffffffffffffffffffffffffffffffffffff\n  mul\n  not\n  and\n  swap1\n  dup4\n  0xffffffffffffffffffffffffffffffffffffffff\n  and\n  mul\n  or\n  swap1\n  sstore\n  pop\n    /* \"3_Token Swap/DEX.sol\":513:520  _tokenB */\n  dup2\n    /* \"3_Token Swap/DEX.sol\":504:510  tokenB */\n  0x01\n  0x00\n    /* \"3_Token Swap/DEX.sol\":504:520  tokenB = _tokenB */\n  0x0100\n  exp\n  dup2\n  sload\n  dup2\n  0xffffffffffffffffffffffffffffffffffffffff\n  mul\n  not\n  and\n  swap1\n  dup4\n  0xffffffffffffffffffffffffffffffffffffffff\n  and\n  mul\n  or\n  swap1\n  sstore\n  pop\n    /* \"3_Token Swap/DEX.sol\":544:555  _tokenOwner */\n  dup1\n    /* \"3_Token Swap/DEX.sol\":531:541  tokenOwner */\n  0x02\n  0x00\n    /* \"3_Token Swap/DEX.sol\":531:555  tokenOwner = _tokenOwner */\n  0x0100\n  exp\n  dup2\n  sload\n  dup2\n  0xffffffffffffffffffffffffffffffffffffffff\n  mul\n  not\n  and\n  swap1\n  dup4\n  0xffffffffffffffffffffffffffffffffffffffff\n  and\n  mul\n  or\n  swap1\n  sstore\n  pop\n    /* \"3_Token Swap/DEX.sol\":394:563  constructor(address _tokenA, address _tokenB, address _tokenOwner)... */\n  pop\n  pop\n  pop\n    /* \"3_Token Swap/DEX.sol\":176:2906  contract DEX... */\n  jump(tag_6)\n    /* \"#utility.yul\":88:205   */\ntag_8:\n    /* \"#utility.yul\":197:198   */\n  0x00\n    /* \"#utility.yul\":194:195   */\n  dup1\n    /* \"#utility.yul\":187:199   */\n  revert\n    /* \"#utility.yul\":334:460   */\ntag_10:\n    /* \"#utility.yul\":371:378   */\n  0x00\n    /* \"#utility.yul\":411:453   */\n  0xffffffffffffffffffffffffffffffffffffffff\n    /* \"#utility.yul\":404:409   */\n  dup3\n    /* \"#utility.yul\":400:454   */\n  and\n    /* \"#utility.yul\":389:454   */\n  swap1\n  pop\n    /* \"#utility.yul\":334:460   */\n  swap2\n  swap1\n  pop\n  jump\t// out\n    /* \"#utility.yul\":466:562   */\ntag_11:\n    /* \"#utility.yul\":503:510   */\n  0x00\n    /* \"#utility.yul\":532:556   */\n  tag_20\n    /* \"#utility.yul\":550:555   */\n  dup3\n    /* \"#utility.yul\":532:556   */\n  tag_10\n  jump\t// in\ntag_20:\n    /* \"#utility.yul\":521:556   */\n  swap1\n  pop\n    /* \"#utility.yul\":466:562   */\n  swap2\n  swap1\n  pop\n  jump\t// out\n    /* \"#utility.yul\":568:690   */\ntag_12:\n    /* \"#utility.yul\":641:665   */\n  tag_22\n    /* \"#utility.yul\":659:664   */\n  dup2\n    /* \"#utility.yul\":641:665   */\n  tag_11\n  jump\t// in\ntag_22:\n    /* \"#utility.yul\":634:639   */\n  dup2\n    /* \"#utility.yul\":631:666   */\n  eq\n    /* \"#utility.yul\":621:684   */\n  tag_23\n  jumpi\n    /* \"#utility.yul\":680:681   */\n  0x00\n    /* \"#utility.yul\":677:678   */\n  dup1\n    /* \"#utility.yul\":670:682   */\n  revert\n    /* \"#utility.yul\":621:684   */\ntag_23:\n    /* \"#utility.yul\":568:690   */\n  pop\n  jump\t// out\n    /* \"#utility.yul\":696:839   */\ntag_13:\n    /* \"#utility.yul\":753:758   */\n  0x00\n    /* \"#utility.yul\":784:790   */\n  dup2\n    /* \"#utility.yul\":778:791   */\n  mload\n    /* \"#utility.yul\":769:791   */\n  swap1\n  pop\n    /* \"#utility.yul\":800:833   */\n  tag_25\n    /* \"#utility.yul\":827:832   */\n  dup2\n    /* \"#utility.yul\":800:833   */\n  tag_12\n  jump\t// in\ntag_25:\n    /* \"#utility.yul\":696:839   */\n  swap3\n  swap2\n  pop\n  pop\n  jump\t// out\n    /* \"#utility.yul\":845:1508   */\ntag_3:\n    /* \"#utility.yul\":933:939   */\n  0x00\n    /* \"#utility.yul\":941:947   */\n  dup1\n    /* \"#utility.yul\":949:955   */\n  0x00\n    /* \"#utility.yul\":998:1000   */\n  0x60\n    /* \"#utility.yul\":986:995   */\n  dup5\n    /* \"#utility.yul\":977:984   */\n  dup7\n    /* \"#utility.yul\":973:996   */\n  sub\n    /* \"#utility.yul\":969:1001   */\n  slt\n    /* \"#utility.yul\":966:1085   */\n  iszero\n  tag_27\n  jumpi\n    /* \"#utility.yul\":1004:1083   */\n  tag_28\n  tag_8\n  jump\t// in\ntag_28:\n    /* \"#utility.yul\":966:1085   */\ntag_27:\n    /* \"#utility.yul\":1124:1125   */\n  0x00\n    /* \"#utility.yul\":1149:1213   */\n  tag_29\n    /* \"#utility.yul\":1205:1212   */\n  dup7\n    /* \"#utility.yul\":1196:1202   */\n  dup3\n    /* \"#utility.yul\":1185:1194   */\n  dup8\n    /* \"#utility.yul\":1181:1203   */\n  add\n    /* \"#utility.yul\":1149:1213   */\n  tag_13\n  jump\t// in\ntag_29:\n    /* \"#utility.yul\":1139:1213   */\n  swap4\n  pop\n    /* \"#utility.yul\":1095:1223   */\n  pop\n    /* \"#utility.yul\":1262:1264   */\n  0x20\n    /* \"#utility.yul\":1288:1352   */\n  tag_30\n    /* \"#utility.yul\":1344:1351   */\n  dup7\n    /* \"#utility.yul\":1335:1341   */\n  dup3\n    /* \"#utility.yul\":1324:1333   */\n  dup8\n    /* \"#utility.yul\":1320:1342   */\n  add\n    /* \"#utility.yul\":1288:1352   */\n  tag_13\n  jump\t// in\ntag_30:\n    /* \"#utility.yul\":1278:1352   */\n  swap3\n  pop\n    /* \"#utility.yul\":1233:1362   */\n  pop\n    /* \"#utility.yul\":1401:1403   */\n  0x40\n    /* \"#utility.yul\":1427:1491   */\n  tag_31\n    /* \"#utility.yul\":1483:1490   */\n  dup7\n    /* \"#utility.yul\":1474:1480   */\n  dup3\n    /* \"#utility.yul\":1463:1472   */\n  dup8\n    /* \"#utility.yul\":1459:1481   */\n  add\n    /* \"#utility.yul\":1427:1491   */\n  tag_13\n  jump\t// in\ntag_31:\n    /* \"#utility.yul\":1417:1491   */\n  swap2\n  pop\n    /* \"#utility.yul\":1372:1501   */\n  pop\n    /* \"#utility.yul\":845:1508   */\n  swap3\n  pop\n  swap3\n  pop\n  swap3\n  jump\t// out\n    /* \"3_Token Swap/DEX.sol\":176:2906  contract DEX... */\ntag_6:\n  dataSize(sub_0)\n  dup1\n  dataOffset(sub_0)\n  0x00\n  codecopy\n  0x00\n  return\nstop\n\nsub_0: assembly {\n        /* \"3_Token Swap/DEX.sol\":176:2906  contract DEX... */\n      mstore(0x40, 0x80)\n      callvalue\n      dup1\n      iszero\n      tag_1\n      jumpi\n      0x00\n      dup1\n      revert\n    tag_1:\n      pop\n      jumpi(tag_2, lt(calldatasize, 0x04))\n      shr(0xe0, calldataload(0x00))\n      dup1\n      0x51c6590a\n      gt\n      tag_14\n      jumpi\n      dup1\n      0x51c6590a\n      eq\n      tag_8\n      jumpi\n      dup1\n      0x5f64b55b\n      eq\n      tag_9\n      jumpi\n      dup1\n      0x698518e5\n      eq\n      tag_10\n      jumpi\n      dup1\n      0x88d35559\n      eq\n      tag_11\n      jumpi\n      dup1\n      0xb629640b\n      eq\n      tag_12\n      jumpi\n      dup1\n      0xc4a11910\n      eq\n      tag_13\n      jumpi\n      jump(tag_2)\n    tag_14:\n      dup1\n      0x0fc63d10\n      eq\n      tag_3\n      jumpi\n      dup1\n      0x1382e263\n      eq\n      tag_4\n      jumpi\n      dup1\n      0x193491b5\n      eq\n      tag_5\n      jumpi\n      dup1\n      0x43c93333\n      eq\n      tag_6\n      jumpi\n      dup1\n      0x4771218a\n      eq\n      tag_7\n      jumpi\n    tag_2:\n      0x00\n      dup1\n      revert\n        /* \"3_Token Swap/DEX.sol\":197:218  address public tokenA */\n    tag_3:\n      tag_15\n      tag_16\n      jump\t// in\n    tag_15:\n      mload(0x40)\n      tag_17\n      swap2\n      swap1\n      tag_18\n      jump\t// in\n    tag_17:\n      mload(0x40)\n      dup1\n      swap2\n      sub\n      swap1\n      return\n        /* \"3_Token Swap/DEX.sol\":2302:2903  function BtoA(uint _amount) public returns(uint amountOfB, uint totalAmount, uint amountOfA)... */\n    tag_4:\n      tag_19\n      0x04\n      dup1\n      calldatasize\n      sub\n      dup2\n      add\n      swap1\n      tag_20\n      swap2\n      swap1\n      tag_21\n      jump\t// in\n    tag_20:\n      tag_22\n      jump\t// in\n    tag_19:\n      mload(0x40)\n      tag_23\n      swap4\n      swap3\n      swap2\n      swap1\n      tag_24\n      jump\t// in\n    tag_23:\n      mload(0x40)\n      dup1\n      swap2\n      sub\n      swap1\n      return\n        /* \"3_Token Swap/DEX.sol\":305:323  uint public totalB */\n    tag_5:\n      tag_25\n      tag_26\n      jump\t// in\n    tag_25:\n      mload(0x40)\n      tag_27\n      swap2\n      swap1\n      tag_28\n      jump\t// in\n    tag_27:\n      mload(0x40)\n      dup1\n      swap2\n      sub\n      swap1\n      return\n        /* \"3_Token Swap/DEX.sol\":362:385  uint public tokenBPrice */\n    tag_6:\n      tag_29\n      tag_30\n      jump\t// in\n    tag_29:\n      mload(0x40)\n      tag_31\n      swap2\n      swap1\n      tag_28\n      jump\t// in\n    tag_31:\n      mload(0x40)\n      dup1\n      swap2\n      sub\n      swap1\n      return\n        /* \"3_Token Swap/DEX.sol\":1129:1300  function checkPool() public view returns(uint A, uint B)... */\n    tag_7:\n      tag_32\n      tag_33\n      jump\t// in\n    tag_32:\n      mload(0x40)\n      tag_34\n      swap3\n      swap2\n      swap1\n      tag_35\n      jump\t// in\n    tag_34:\n      mload(0x40)\n      dup1\n      swap2\n      sub\n      swap1\n      return\n        /* \"3_Token Swap/DEX.sol\":571:1121  function addLiquidity(uint _amountTokenA_B) public... */\n    tag_8:\n      tag_36\n      0x04\n      dup1\n      calldatasize\n      sub\n      dup2\n      add\n      swap1\n      tag_37\n      swap2\n      swap1\n      tag_21\n      jump\t// in\n    tag_37:\n      tag_38\n      jump\t// in\n    tag_36:\n      stop\n        /* \"3_Token Swap/DEX.sol\":225:246  address public tokenB */\n    tag_9:\n      tag_39\n      tag_40\n      jump\t// in\n    tag_39:\n      mload(0x40)\n      tag_41\n      swap2\n      swap1\n      tag_18\n      jump\t// in\n    tag_41:\n      mload(0x40)\n      dup1\n      swap2\n      sub\n      swap1\n      return\n        /* \"3_Token Swap/DEX.sol\":1308:1677  function swapRate() public returns(uint, uint)... */\n    tag_10:\n      tag_42\n      tag_43\n      jump\t// in\n    tag_42:\n      mload(0x40)\n      tag_44\n      swap3\n      swap2\n      swap1\n      tag_35\n      jump\t// in\n    tag_44:\n      mload(0x40)\n      dup1\n      swap2\n      sub\n      swap1\n      return\n        /* \"3_Token Swap/DEX.sol\":332:355  uint public tokenAPrice */\n    tag_11:\n      tag_45\n      tag_46\n      jump\t// in\n    tag_45:\n      mload(0x40)\n      tag_47\n      swap2\n      swap1\n      tag_28\n      jump\t// in\n    tag_47:\n      mload(0x40)\n      dup1\n      swap2\n      sub\n      swap1\n      return\n        /* \"3_Token Swap/DEX.sol\":280:298  uint public totalA */\n    tag_12:\n      tag_48\n      tag_49\n      jump\t// in\n    tag_48:\n      mload(0x40)\n      tag_50\n      swap2\n      swap1\n      tag_28\n      jump\t// in\n    tag_50:\n      mload(0x40)\n      dup1\n      swap2\n      sub\n      swap1\n      return\n        /* \"3_Token Swap/DEX.sol\":1685:2294  function AtoB(uint _amount) public returns(uint amountOfA, uint totalAmount, uint amountOfB)... */\n    tag_13:\n      tag_51\n      0x04\n      dup1\n      calldatasize\n      sub\n      dup2\n      add\n      swap1\n      tag_52\n      swap2\n      swap1\n      tag_21\n      jump\t// in\n    tag_52:\n      tag_53\n      jump\t// in\n    tag_51:\n      mload(0x40)\n      tag_54\n      swap4\n      swap3\n      swap2\n      swap1\n      tag_24\n      jump\t// in\n    tag_54:\n      mload(0x40)\n      dup1\n      swap2\n      sub\n      swap1\n      return\n        /* \"3_Token Swap/DEX.sol\":197:218  address public tokenA */\n    tag_16:\n      0x00\n      dup1\n      sload\n      swap1\n      0x0100\n      exp\n      swap1\n      div\n      0xffffffffffffffffffffffffffffffffffffffff\n      and\n      dup2\n      jump\t// out\n        /* \"3_Token Swap/DEX.sol\":2302:2903  function BtoA(uint _amount) public returns(uint amountOfB, uint totalAmount, uint amountOfA)... */\n    tag_22:\n        /* \"3_Token Swap/DEX.sol\":2345:2359  uint amountOfB */\n      0x00\n        /* \"3_Token Swap/DEX.sol\":2361:2377  uint totalAmount */\n      dup1\n        /* \"3_Token Swap/DEX.sol\":2379:2393  uint amountOfA */\n      0x00\n        /* \"3_Token Swap/DEX.sol\":2459:2466  _amount */\n      dup4\n        /* \"3_Token Swap/DEX.sol\":2426:2432  tokenB */\n      0x01\n      0x00\n      swap1\n      sload\n      swap1\n      0x0100\n      exp\n      swap1\n      div\n      0xffffffffffffffffffffffffffffffffffffffff\n      and\n        /* \"3_Token Swap/DEX.sol\":2419:2443  IERC20(tokenB).balanceOf */\n      0xffffffffffffffffffffffffffffffffffffffff\n      and\n      0x70a08231\n        /* \"3_Token Swap/DEX.sol\":2444:2454  msg.sender */\n      caller\n        /* \"3_Token Swap/DEX.sol\":2419:2455  IERC20(tokenB).balanceOf(msg.sender) */\n      mload(0x40)\n      dup3\n      0xffffffff\n      and\n      0xe0\n      shl\n      dup2\n      mstore\n      0x04\n      add\n      tag_56\n      swap2\n      swap1\n      tag_18\n      jump\t// in\n    tag_56:\n      0x20\n      mload(0x40)\n      dup1\n      dup4\n      sub\n      dup2\n      dup7\n      gas\n      staticcall\n      iszero\n      dup1\n      iszero\n      tag_58\n      jumpi\n      returndatasize\n      0x00\n      dup1\n      returndatacopy\n      revert(0x00, returndatasize)\n    tag_58:\n      pop\n      pop\n      pop\n      pop\n      mload(0x40)\n      returndatasize\n      not(0x1f)\n      0x1f\n      dup3\n      add\n      and\n      dup3\n      add\n      dup1\n      0x40\n      mstore\n      pop\n      dup2\n      add\n      swap1\n      tag_59\n      swap2\n      swap1\n      tag_60\n      jump\t// in\n    tag_59:\n        /* \"3_Token Swap/DEX.sol\":2419:2466  IERC20(tokenB).balanceOf(msg.sender) >= _amount */\n      lt\n      iszero\n        /* \"3_Token Swap/DEX.sol\":2411:2508  require(IERC20(tokenB).balanceOf(msg.sender) >= _amount, \"You haven't enough balance of TokenB \") */\n      tag_61\n      jumpi\n      mload(0x40)\n      0x08c379a000000000000000000000000000000000000000000000000000000000\n      dup2\n      mstore\n      0x04\n      add\n      tag_62\n      swap1\n      tag_63\n      jump\t// in\n    tag_62:\n      mload(0x40)\n      dup1\n      swap2\n      sub\n      swap1\n      revert\n    tag_61:\n        /* \"3_Token Swap/DEX.sol\":2521:2533  uint amountB */\n      0x00\n        /* \"3_Token Swap/DEX.sol\":2546:2557  tokenBPrice */\n      sload(0x06)\n        /* \"3_Token Swap/DEX.sol\":2536:2543  _amount */\n      dup6\n        /* \"3_Token Swap/DEX.sol\":2536:2557  _amount * tokenBPrice */\n      tag_64\n      swap2\n      swap1\n      tag_65\n      jump\t// in\n    tag_64:\n        /* \"3_Token Swap/DEX.sol\":2521:2557  uint amountB = _amount * tokenBPrice */\n      swap1\n      pop\n        /* \"3_Token Swap/DEX.sol\":2568:2578  uint swapA */\n      0x00\n        /* \"3_Token Swap/DEX.sol\":2591:2602  tokenAPrice */\n      sload(0x05)\n        /* \"3_Token Swap/DEX.sol\":2581:2588  amountB */\n      dup3\n        /* \"3_Token Swap/DEX.sol\":2581:2602  amountB / tokenAPrice */\n      tag_66\n      swap2\n      swap1\n      tag_67\n      jump\t// in\n    tag_66:\n        /* \"3_Token Swap/DEX.sol\":2568:2602  uint swapA = amountB / tokenAPrice */\n      swap1\n      pop\n        /* \"3_Token Swap/DEX.sol\":2664:2669  swapA */\n      dup1\n        /* \"3_Token Swap/DEX.sol\":2628:2634  tokenA */\n      0x00\n      dup1\n      sload\n      swap1\n      0x0100\n      exp\n      swap1\n      div\n      0xffffffffffffffffffffffffffffffffffffffff\n      and\n        /* \"3_Token Swap/DEX.sol\":2621:2645  IERC20(tokenA).balanceOf */\n      0xffffffffffffffffffffffffffffffffffffffff\n      and\n      0x70a08231\n        /* \"3_Token Swap/DEX.sol\":2654:2658  this */\n      address\n        /* \"3_Token Swap/DEX.sol\":2621:2660  IERC20(tokenA).balanceOf(address(this)) */\n      mload(0x40)\n      dup3\n      0xffffffff\n      and\n      0xe0\n      shl\n      dup2\n      mstore\n      0x04\n      add\n      tag_68\n      swap2\n      swap1\n      tag_18\n      jump\t// in\n    tag_68:\n      0x20\n      mload(0x40)\n      dup1\n      dup4\n      sub\n      dup2\n      dup7\n      gas\n      staticcall\n      iszero\n      dup1\n      iszero\n      tag_70\n      jumpi\n      returndatasize\n      0x00\n      dup1\n      returndatacopy\n      revert(0x00, returndatasize)\n    tag_70:\n      pop\n      pop\n      pop\n      pop\n      mload(0x40)\n      returndatasize\n      not(0x1f)\n      0x1f\n      dup3\n      add\n      and\n      dup3\n      add\n      dup1\n      0x40\n      mstore\n      pop\n      dup2\n      add\n      swap1\n      tag_71\n      swap2\n      swap1\n      tag_60\n      jump\t// in\n    tag_71:\n        /* \"3_Token Swap/DEX.sol\":2621:2669  IERC20(tokenA).balanceOf(address(this)) >= swapA */\n      lt\n      iszero\n        /* \"3_Token Swap/DEX.sol\":2613:2703  require(IERC20(tokenA).balanceOf(address(this)) >= swapA, \"There is not enough Liquidity\") */\n      tag_72\n      jumpi\n      mload(0x40)\n      0x08c379a000000000000000000000000000000000000000000000000000000000\n      dup2\n      mstore\n      0x04\n      add\n      tag_73\n      swap1\n      tag_74\n      jump\t// in\n    tag_73:\n      mload(0x40)\n      dup1\n      swap2\n      sub\n      swap1\n      revert\n    tag_72:\n        /* \"3_Token Swap/DEX.sol\":2723:2729  tokenB */\n      0x01\n      0x00\n      swap1\n      sload\n      swap1\n      0x0100\n      exp\n      swap1\n      div\n      0xffffffffffffffffffffffffffffffffffffffff\n      and\n        /* \"3_Token Swap/DEX.sol\":2716:2743  IERC20(tokenB).transferFrom */\n      0xffffffffffffffffffffffffffffffffffffffff\n      and\n      0x23b872dd\n        /* \"3_Token Swap/DEX.sol\":2744:2754  msg.sender */\n      caller\n        /* \"3_Token Swap/DEX.sol\":2764:2768  this */\n      address\n        /* \"3_Token Swap/DEX.sol\":2771:2778  _amount */\n      dup10\n        /* \"3_Token Swap/DEX.sol\":2716:2779  IERC20(tokenB).transferFrom(msg.sender, address(this), _amount) */\n      mload(0x40)\n      dup5\n      0xffffffff\n      and\n      0xe0\n      shl\n      dup2\n      mstore\n      0x04\n      add\n      tag_75\n      swap4\n      swap3\n      swap2\n      swap1\n      tag_76\n      jump\t// in\n    tag_75:\n      0x20\n      mload(0x40)\n      dup1\n      dup4\n      sub\n      dup2\n      0x00\n      dup8\n      gas\n      call\n      iszero\n      dup1\n      iszero\n      tag_78\n      jumpi\n      returndatasize\n      0x00\n      dup1\n      returndatacopy\n      revert(0x00, returndatasize)\n    tag_78:\n      pop\n      pop\n      pop\n      pop\n      mload(0x40)\n      returndatasize\n      not(0x1f)\n      0x1f\n      dup3\n      add\n      and\n      dup3\n      add\n      dup1\n      0x40\n      mstore\n      pop\n      dup2\n      add\n      swap1\n      tag_79\n      swap2\n      swap1\n      tag_80\n      jump\t// in\n    tag_79:\n      pop\n        /* \"3_Token Swap/DEX.sol\":2797:2803  tokenA */\n      0x00\n      dup1\n      sload\n      swap1\n      0x0100\n      exp\n      swap1\n      div\n      0xffffffffffffffffffffffffffffffffffffffff\n      and\n        /* \"3_Token Swap/DEX.sol\":2790:2817  IERC20(tokenA).transferFrom */\n      0xffffffffffffffffffffffffffffffffffffffff\n      and\n      0x23b872dd\n        /* \"3_Token Swap/DEX.sol\":2826:2830  this */\n      address\n        /* \"3_Token Swap/DEX.sol\":2833:2843  msg.sender */\n      caller\n        /* \"3_Token Swap/DEX.sol\":2845:2850  swapA */\n      dup5\n        /* \"3_Token Swap/DEX.sol\":2790:2851  IERC20(tokenA).transferFrom(address(this), msg.sender, swapA) */\n      mload(0x40)\n      dup5\n      0xffffffff\n      and\n      0xe0\n      shl\n      dup2\n      mstore\n      0x04\n      add\n      tag_81\n      swap4\n      swap3\n      swap2\n      swap1\n      tag_76\n      jump\t// in\n    tag_81:\n      0x20\n      mload(0x40)\n      dup1\n      dup4\n      sub\n      dup2\n      0x00\n      dup8\n      gas\n      call\n      iszero\n      dup1\n      iszero\n      tag_83\n      jumpi\n      returndatasize\n      0x00\n      dup1\n      returndatacopy\n      revert(0x00, returndatasize)\n    tag_83:\n      pop\n      pop\n      pop\n      pop\n      mload(0x40)\n      returndatasize\n      not(0x1f)\n      0x1f\n      dup3\n      add\n      and\n      dup3\n      add\n      dup1\n      0x40\n      mstore\n      pop\n      dup2\n      add\n      swap1\n      tag_84\n      swap2\n      swap1\n      tag_80\n      jump\t// in\n    tag_84:\n      pop\n        /* \"3_Token Swap/DEX.sol\":2871:2878  _amount */\n      dup6\n        /* \"3_Token Swap/DEX.sol\":2879:2886  amountB */\n      dup3\n        /* \"3_Token Swap/DEX.sol\":2887:2892  swapA */\n      dup3\n        /* \"3_Token Swap/DEX.sol\":2864:2893  return(_amount,amountB,swapA) */\n      swap5\n      pop\n      swap5\n      pop\n      swap5\n      pop\n      pop\n      pop\n        /* \"3_Token Swap/DEX.sol\":2302:2903  function BtoA(uint _amount) public returns(uint amountOfB, uint totalAmount, uint amountOfA)... */\n      swap2\n      swap4\n      swap1\n      swap3\n      pop\n      jump\t// out\n        /* \"3_Token Swap/DEX.sol\":305:323  uint public totalB */\n    tag_26:\n      sload(0x04)\n      dup2\n      jump\t// out\n        /* \"3_Token Swap/DEX.sol\":362:385  uint public tokenBPrice */\n    tag_30:\n      sload(0x06)\n      dup2\n      jump\t// out\n        /* \"3_Token Swap/DEX.sol\":1129:1300  function checkPool() public view returns(uint A, uint B)... */\n    tag_33:\n        /* \"3_Token Swap/DEX.sol\":1170:1176  uint A */\n      0x00\n        /* \"3_Token Swap/DEX.sol\":1178:1184  uint B */\n      dup1\n        /* \"3_Token Swap/DEX.sol\":1217:1223  tokenA */\n      0x00\n      dup1\n      sload\n      swap1\n      0x0100\n      exp\n      swap1\n      div\n      0xffffffffffffffffffffffffffffffffffffffff\n      and\n        /* \"3_Token Swap/DEX.sol\":1210:1234  IERC20(tokenA).balanceOf */\n      0xffffffffffffffffffffffffffffffffffffffff\n      and\n      0x70a08231\n        /* \"3_Token Swap/DEX.sol\":1243:1247  this */\n      address\n        /* \"3_Token Swap/DEX.sol\":1210:1249  IERC20(tokenA).balanceOf(address(this)) */\n      mload(0x40)\n      dup3\n      0xffffffff\n      and\n      0xe0\n      shl\n      dup2\n      mstore\n      0x04\n      add\n      tag_86\n      swap2\n      swap1\n      tag_18\n      jump\t// in\n    tag_86:\n      0x20\n      mload(0x40)\n      dup1\n      dup4\n      sub\n      dup2\n      dup7\n      gas\n      staticcall\n      iszero\n      dup1\n      iszero\n      tag_88\n      jumpi\n      returndatasize\n      0x00\n      dup1\n      returndatacopy\n      revert(0x00, returndatasize)\n    tag_88:\n      pop\n      pop\n      pop\n      pop\n      mload(0x40)\n      returndatasize\n      not(0x1f)\n      0x1f\n      dup3\n      add\n      and\n      dup3\n      add\n      dup1\n      0x40\n      mstore\n      pop\n      dup2\n      add\n      swap1\n      tag_89\n      swap2\n      swap1\n      tag_60\n      jump\t// in\n    tag_89:\n        /* \"3_Token Swap/DEX.sol\":1258:1264  tokenB */\n      0x01\n      0x00\n      swap1\n      sload\n      swap1\n      0x0100\n      exp\n      swap1\n      div\n      0xffffffffffffffffffffffffffffffffffffffff\n      and\n        /* \"3_Token Swap/DEX.sol\":1251:1275  IERC20(tokenB).balanceOf */\n      0xffffffffffffffffffffffffffffffffffffffff\n      and\n      0x70a08231\n        /* \"3_Token Swap/DEX.sol\":1284:1288  this */\n      address\n        /* \"3_Token Swap/DEX.sol\":1251:1290  IERC20(tokenB).balanceOf(address(this)) */\n      mload(0x40)\n      dup3\n      0xffffffff\n      and\n      0xe0\n      shl\n      dup2\n      mstore\n      0x04\n      add\n      tag_90\n      swap2\n      swap1\n      tag_18\n      jump\t// in\n    tag_90:\n      0x20\n      mload(0x40)\n      dup1\n      dup4\n      sub\n      dup2\n      dup7\n      gas\n      staticcall\n      iszero\n      dup1\n      iszero\n      tag_92\n      jumpi\n      returndatasize\n      0x00\n      dup1\n      returndatacopy\n      revert(0x00, returndatasize)\n    tag_92:\n      pop\n      pop\n      pop\n      pop\n      mload(0x40)\n      returndatasize\n      not(0x1f)\n      0x1f\n      dup3\n      add\n      and\n      dup3\n      add\n      dup1\n      0x40\n      mstore\n      pop\n      dup2\n      add\n      swap1\n      tag_93\n      swap2\n      swap1\n      tag_60\n      jump\t// in\n    tag_93:\n        /* \"3_Token Swap/DEX.sol\":1202:1292  return (IERC20(tokenA).balanceOf(address(this)), IERC20(tokenB).balanceOf(address(this)) ) */\n      swap2\n      pop\n      swap2\n      pop\n        /* \"3_Token Swap/DEX.sol\":1129:1300  function checkPool() public view returns(uint A, uint B)... */\n      swap1\n      swap2\n      jump\t// out\n        /* \"3_Token Swap/DEX.sol\":571:1121  function addLiquidity(uint _amountTokenA_B) public... */\n    tag_38:\n        /* \"3_Token Swap/DEX.sol\":686:701  _amountTokenA_B */\n      dup1\n        /* \"3_Token Swap/DEX.sol\":653:659  tokenA */\n      0x00\n      dup1\n      sload\n      swap1\n      0x0100\n      exp\n      swap1\n      div\n      0xffffffffffffffffffffffffffffffffffffffff\n      and\n        /* \"3_Token Swap/DEX.sol\":646:670  IERC20(tokenA).balanceOf */\n      0xffffffffffffffffffffffffffffffffffffffff\n      and\n      0x70a08231\n        /* \"3_Token Swap/DEX.sol\":671:681  msg.sender */\n      caller\n        /* \"3_Token Swap/DEX.sol\":646:682  IERC20(tokenA).balanceOf(msg.sender) */\n      mload(0x40)\n      dup3\n      0xffffffff\n      and\n      0xe0\n      shl\n      dup2\n      mstore\n      0x04\n      add\n      tag_95\n      swap2\n      swap1\n      tag_18\n      jump\t// in\n    tag_95:\n      0x20\n      mload(0x40)\n      dup1\n      dup4\n      sub\n      dup2\n      dup7\n      gas\n      staticcall\n      iszero\n      dup1\n      iszero\n      tag_97\n      jumpi\n      returndatasize\n      0x00\n      dup1\n      returndatacopy\n      revert(0x00, returndatasize)\n    tag_97:\n      pop\n      pop\n      pop\n      pop\n      mload(0x40)\n      returndatasize\n      not(0x1f)\n      0x1f\n      dup3\n      add\n      and\n      dup3\n      add\n      dup1\n      0x40\n      mstore\n      pop\n      dup2\n      add\n      swap1\n      tag_98\n      swap2\n      swap1\n      tag_60\n      jump\t// in\n    tag_98:\n        /* \"3_Token Swap/DEX.sol\":646:701  IERC20(tokenA).balanceOf(msg.sender) >= _amountTokenA_B */\n      lt\n      iszero\n        /* \"3_Token Swap/DEX.sol\":638:723  require(IERC20(tokenA).balanceOf(msg.sender) >= _amountTokenA_B, \"Not enough TokenA\") */\n      tag_99\n      jumpi\n      mload(0x40)\n      0x08c379a000000000000000000000000000000000000000000000000000000000\n      dup2\n      mstore\n      0x04\n      add\n      tag_100\n      swap1\n      tag_101\n      jump\t// in\n    tag_100:\n      mload(0x40)\n      dup1\n      swap2\n      sub\n      swap1\n      revert\n    tag_99:\n        /* \"3_Token Swap/DEX.sol\":782:797  _amountTokenA_B */\n      dup1\n        /* \"3_Token Swap/DEX.sol\":749:755  tokenB */\n      0x01\n      0x00\n      swap1\n      sload\n      swap1\n      0x0100\n      exp\n      swap1\n      div\n      0xffffffffffffffffffffffffffffffffffffffff\n      and\n        /* \"3_Token Swap/DEX.sol\":742:766  IERC20(tokenB).balanceOf */\n      0xffffffffffffffffffffffffffffffffffffffff\n      and\n      0x70a08231\n        /* \"3_Token Swap/DEX.sol\":767:777  msg.sender */\n      caller\n        /* \"3_Token Swap/DEX.sol\":742:778  IERC20(tokenB).balanceOf(msg.sender) */\n      mload(0x40)\n      dup3\n      0xffffffff\n      and\n      0xe0\n      shl\n      dup2\n      mstore\n      0x04\n      add\n      tag_102\n      swap2\n      swap1\n      tag_18\n      jump\t// in\n    tag_102:\n      0x20\n      mload(0x40)\n      dup1\n      dup4\n      sub\n      dup2\n      dup7\n      gas\n      staticcall\n      iszero\n      dup1\n      iszero\n      tag_104\n      jumpi\n      returndatasize\n      0x00\n      dup1\n      returndatacopy\n      revert(0x00, returndatasize)\n    tag_104:\n      pop\n      pop\n      pop\n      pop\n      mload(0x40)\n      returndatasize\n      not(0x1f)\n      0x1f\n      dup3\n      add\n      and\n      dup3\n      add\n      dup1\n      0x40\n      mstore\n      pop\n      dup2\n      add\n      swap1\n      tag_105\n      swap2\n      swap1\n      tag_60\n      jump\t// in\n    tag_105:\n        /* \"3_Token Swap/DEX.sol\":742:797  IERC20(tokenB).balanceOf(msg.sender) >= _amountTokenA_B */\n      lt\n      iszero\n        /* \"3_Token Swap/DEX.sol\":734:819  require(IERC20(tokenB).balanceOf(msg.sender) >= _amountTokenA_B, \"Not enough TokenB\") */\n      tag_106\n      jumpi\n      mload(0x40)\n      0x08c379a000000000000000000000000000000000000000000000000000000000\n      dup2\n      mstore\n      0x04\n      add\n      tag_107\n      swap1\n      tag_108\n      jump\t// in\n    tag_107:\n      mload(0x40)\n      dup1\n      swap2\n      sub\n      swap1\n      revert\n    tag_106:\n        /* \"3_Token Swap/DEX.sol\":839:845  tokenA */\n      0x00\n      dup1\n      sload\n      swap1\n      0x0100\n      exp\n      swap1\n      div\n      0xffffffffffffffffffffffffffffffffffffffff\n      and\n        /* \"3_Token Swap/DEX.sol\":832:854  IERC20(tokenA).approve */\n      0xffffffffffffffffffffffffffffffffffffffff\n      and\n      0x095ea7b3\n        /* \"3_Token Swap/DEX.sol\":863:867  this */\n      address\n        /* \"3_Token Swap/DEX.sol\":869:884  _amountTokenA_B */\n      dup4\n        /* \"3_Token Swap/DEX.sol\":832:885  IERC20(tokenA).approve(address(this),_amountTokenA_B) */\n      mload(0x40)\n      dup4\n      0xffffffff\n      and\n      0xe0\n      shl\n      dup2\n      mstore\n      0x04\n      add\n      tag_109\n      swap3\n      swap2\n      swap1\n      tag_110\n      jump\t// in\n    tag_109:\n      0x20\n      mload(0x40)\n      dup1\n      dup4\n      sub\n      dup2\n      0x00\n      dup8\n      gas\n      call\n      iszero\n      dup1\n      iszero\n      tag_112\n      jumpi\n      returndatasize\n      0x00\n      dup1\n      returndatacopy\n      revert(0x00, returndatasize)\n    tag_112:\n      pop\n      pop\n      pop\n      pop\n      mload(0x40)\n      returndatasize\n      not(0x1f)\n      0x1f\n      dup3\n      add\n      and\n      dup3\n      add\n      dup1\n      0x40\n      mstore\n      pop\n      dup2\n      add\n      swap1\n      tag_113\n      swap2\n      swap1\n      tag_80\n      jump\t// in\n    tag_113:\n      pop\n        /* \"3_Token Swap/DEX.sol\":903:909  tokenB */\n      0x01\n      0x00\n      swap1\n      sload\n      swap1\n      0x0100\n      exp\n      swap1\n      div\n      0xffffffffffffffffffffffffffffffffffffffff\n      and\n        /* \"3_Token Swap/DEX.sol\":896:918  IERC20(tokenB).approve */\n      0xffffffffffffffffffffffffffffffffffffffff\n      and\n      0x095ea7b3\n        /* \"3_Token Swap/DEX.sol\":927:931  this */\n      address\n        /* \"3_Token Swap/DEX.sol\":933:948  _amountTokenA_B */\n      dup4\n        /* \"3_Token Swap/DEX.sol\":896:949  IERC20(tokenB).approve(address(this),_amountTokenA_B) */\n      mload(0x40)\n      dup4\n      0xffffffff\n      and\n      0xe0\n      shl\n      dup2\n      mstore\n      0x04\n      add\n      tag_114\n      swap3\n      swap2\n      swap1\n      tag_110\n      jump\t// in\n    tag_114:\n      0x20\n      mload(0x40)\n      dup1\n      dup4\n      sub\n      dup2\n      0x00\n      dup8\n      gas\n      call\n      iszero\n      dup1\n      iszero\n      tag_116\n      jumpi\n      returndatasize\n      0x00\n      dup1\n      returndatacopy\n      revert(0x00, returndatasize)\n    tag_116:\n      pop\n      pop\n      pop\n      pop\n      mload(0x40)\n      returndatasize\n      not(0x1f)\n      0x1f\n      dup3\n      add\n      and\n      dup3\n      add\n      dup1\n      0x40\n      mstore\n      pop\n      dup2\n      add\n      swap1\n      tag_117\n      swap2\n      swap1\n      tag_80\n      jump\t// in\n    tag_117:\n      pop\n        /* \"3_Token Swap/DEX.sol\":967:973  tokenA */\n      0x00\n      dup1\n      sload\n      swap1\n      0x0100\n      exp\n      swap1\n      div\n      0xffffffffffffffffffffffffffffffffffffffff\n      and\n        /* \"3_Token Swap/DEX.sol\":960:987  IERC20(tokenA).transferFrom */\n      0xffffffffffffffffffffffffffffffffffffffff\n      and\n      0x23b872dd\n        /* \"3_Token Swap/DEX.sol\":988:998  msg.sender */\n      caller\n        /* \"3_Token Swap/DEX.sol\":1008:1012  this */\n      address\n        /* \"3_Token Swap/DEX.sol\":1015:1030  _amountTokenA_B */\n      dup5\n        /* \"3_Token Swap/DEX.sol\":960:1031  IERC20(tokenA).transferFrom(msg.sender, address(this), _amountTokenA_B) */\n      mload(0x40)\n      dup5\n      0xffffffff\n      and\n      0xe0\n      shl\n      dup2\n      mstore\n      0x04\n      add\n      tag_118\n      swap4\n      swap3\n      swap2\n      swap1\n      tag_76\n      jump\t// in\n    tag_118:\n      0x20\n      mload(0x40)\n      dup1\n      dup4\n      sub\n      dup2\n      0x00\n      dup8\n      gas\n      call\n      iszero\n      dup1\n      iszero\n      tag_120\n      jumpi\n      returndatasize\n      0x00\n      dup1\n      returndatacopy\n      revert(0x00, returndatasize)\n    tag_120:\n      pop\n      pop\n      pop\n      pop\n      mload(0x40)\n      returndatasize\n      not(0x1f)\n      0x1f\n      dup3\n      add\n      and\n      dup3\n      add\n      dup1\n      0x40\n      mstore\n      pop\n      dup2\n      add\n      swap1\n      tag_121\n      swap2\n      swap1\n      tag_80\n      jump\t// in\n    tag_121:\n      pop\n        /* \"3_Token Swap/DEX.sol\":1049:1055  tokenB */\n      0x01\n      0x00\n      swap1\n      sload\n      swap1\n      0x0100\n      exp\n      swap1\n      div\n      0xffffffffffffffffffffffffffffffffffffffff\n      and\n        /* \"3_Token Swap/DEX.sol\":1042:1069  IERC20(tokenB).transferFrom */\n      0xffffffffffffffffffffffffffffffffffffffff\n      and\n      0x23b872dd\n        /* \"3_Token Swap/DEX.sol\":1070:1080  msg.sender */\n      caller\n        /* \"3_Token Swap/DEX.sol\":1090:1094  this */\n      address\n        /* \"3_Token Swap/DEX.sol\":1097:1112  _amountTokenA_B */\n      dup5\n        /* \"3_Token Swap/DEX.sol\":1042:1113  IERC20(tokenB).transferFrom(msg.sender, address(this), _amountTokenA_B) */\n      mload(0x40)\n      dup5\n      0xffffffff\n      and\n      0xe0\n      shl\n      dup2\n      mstore\n      0x04\n      add\n      tag_122\n      swap4\n      swap3\n      swap2\n      swap1\n      tag_76\n      jump\t// in\n    tag_122:\n      0x20\n      mload(0x40)\n      dup1\n      dup4\n      sub\n      dup2\n      0x00\n      dup8\n      gas\n      call\n      iszero\n      dup1\n      iszero\n      tag_124\n      jumpi\n      returndatasize\n      0x00\n      dup1\n      returndatacopy\n      revert(0x00, returndatasize)\n    tag_124:\n      pop\n      pop\n      pop\n      pop\n      mload(0x40)\n      returndatasize\n      not(0x1f)\n      0x1f\n      dup3\n      add\n      and\n      dup3\n      add\n      dup1\n      0x40\n      mstore\n      pop\n      dup2\n      add\n      swap1\n      tag_125\n      swap2\n      swap1\n      tag_80\n      jump\t// in\n    tag_125:\n      pop\n        /* \"3_Token Swap/DEX.sol\":571:1121  function addLiquidity(uint _amountTokenA_B) public... */\n      pop\n      jump\t// out\n        /* \"3_Token Swap/DEX.sol\":225:246  address public tokenB */\n    tag_40:\n      0x01\n      0x00\n      swap1\n      sload\n      swap1\n      0x0100\n      exp\n      swap1\n      div\n      0xffffffffffffffffffffffffffffffffffffffff\n      and\n      dup2\n      jump\t// out\n        /* \"3_Token Swap/DEX.sol\":1308:1677  function swapRate() public returns(uint, uint)... */\n    tag_43:\n        /* \"3_Token Swap/DEX.sol\":1343:1347  uint */\n      0x00\n        /* \"3_Token Swap/DEX.sol\":1349:1353  uint */\n      dup1\n        /* \"3_Token Swap/DEX.sol\":1371:1378  uint tA */\n      0x00\n        /* \"3_Token Swap/DEX.sol\":1388:1394  tokenA */\n      dup1\n      0x00\n      swap1\n      sload\n      swap1\n      0x0100\n      exp\n      swap1\n      div\n      0xffffffffffffffffffffffffffffffffffffffff\n      and\n        /* \"3_Token Swap/DEX.sol\":1381:1405  IERC20(tokenA).balanceOf */\n      0xffffffffffffffffffffffffffffffffffffffff\n      and\n      0x70a08231\n        /* \"3_Token Swap/DEX.sol\":1414:1418  this */\n      address\n        /* \"3_Token Swap/DEX.sol\":1381:1420  IERC20(tokenA).balanceOf(address(this)) */\n      mload(0x40)\n      dup3\n      0xffffffff\n      and\n      0xe0\n      shl\n      dup2\n      mstore\n      0x04\n      add\n      tag_127\n      swap2\n      swap1\n      tag_18\n      jump\t// in\n    tag_127:\n      0x20\n      mload(0x40)\n      dup1\n      dup4\n      sub\n      dup2\n      dup7\n      gas\n      staticcall\n      iszero\n      dup1\n      iszero\n      tag_129\n      jumpi\n      returndatasize\n      0x00\n      dup1\n      returndatacopy\n      revert(0x00, returndatasize)\n    tag_129:\n      pop\n      pop\n      pop\n      pop\n      mload(0x40)\n      returndatasize\n      not(0x1f)\n      0x1f\n      dup3\n      add\n      and\n      dup3\n      add\n      dup1\n      0x40\n      mstore\n      pop\n      dup2\n      add\n      swap1\n      tag_130\n      swap2\n      swap1\n      tag_60\n      jump\t// in\n    tag_130:\n        /* \"3_Token Swap/DEX.sol\":1371:1420  uint tA = IERC20(tokenA).balanceOf(address(this)) */\n      swap1\n      pop\n        /* \"3_Token Swap/DEX.sol\":1432:1439  uint tB */\n      0x00\n        /* \"3_Token Swap/DEX.sol\":1449:1455  tokenB */\n      0x01\n      0x00\n      swap1\n      sload\n      swap1\n      0x0100\n      exp\n      swap1\n      div\n      0xffffffffffffffffffffffffffffffffffffffff\n      and\n        /* \"3_Token Swap/DEX.sol\":1442:1466  IERC20(tokenB).balanceOf */\n      0xffffffffffffffffffffffffffffffffffffffff\n      and\n      0x70a08231\n        /* \"3_Token Swap/DEX.sol\":1475:1479  this */\n      address\n        /* \"3_Token Swap/DEX.sol\":1442:1481  IERC20(tokenB).balanceOf(address(this)) */\n      mload(0x40)\n      dup3\n      0xffffffff\n      and\n      0xe0\n      shl\n      dup2\n      mstore\n      0x04\n      add\n      tag_131\n      swap2\n      swap1\n      tag_18\n      jump\t// in\n    tag_131:\n      0x20\n      mload(0x40)\n      dup1\n      dup4\n      sub\n      dup2\n      dup7\n      gas\n      staticcall\n      iszero\n      dup1\n      iszero\n      tag_133\n      jumpi\n      returndatasize\n      0x00\n      dup1\n      returndatacopy\n      revert(0x00, returndatasize)\n    tag_133:\n      pop\n      pop\n      pop\n      pop\n      mload(0x40)\n      returndatasize\n      not(0x1f)\n      0x1f\n      dup3\n      add\n      and\n      dup3\n      add\n      dup1\n      0x40\n      mstore\n      pop\n      dup2\n      add\n      swap1\n      tag_134\n      swap2\n      swap1\n      tag_60\n      jump\t// in\n    tag_134:\n        /* \"3_Token Swap/DEX.sol\":1432:1481  uint tB = IERC20(tokenB).balanceOf(address(this)) */\n      swap1\n      pop\n        /* \"3_Token Swap/DEX.sol\":1506:1514  10 ** 18 */\n      0x0de0b6b3a7640000\n        /* \"3_Token Swap/DEX.sol\":1501:1503  tA */\n      dup3\n        /* \"3_Token Swap/DEX.sol\":1501:1514  tA * 10 ** 18 */\n      tag_135\n      swap2\n      swap1\n      tag_65\n      jump\t// in\n    tag_135:\n        /* \"3_Token Swap/DEX.sol\":1492:1498  totalA */\n      0x03\n        /* \"3_Token Swap/DEX.sol\":1492:1514  totalA = tA * 10 ** 18 */\n      dup2\n      swap1\n      sstore\n      pop\n        /* \"3_Token Swap/DEX.sol\":1540:1548  10 ** 18 */\n      0x0de0b6b3a7640000\n        /* \"3_Token Swap/DEX.sol\":1535:1537  tB */\n      dup2\n        /* \"3_Token Swap/DEX.sol\":1535:1548  tB * 10 ** 18 */\n      tag_136\n      swap2\n      swap1\n      tag_65\n      jump\t// in\n    tag_136:\n        /* \"3_Token Swap/DEX.sol\":1526:1532  totalB */\n      0x04\n        /* \"3_Token Swap/DEX.sol\":1526:1548  totalB = tB * 10 ** 18 */\n      dup2\n      swap1\n      sstore\n      pop\n        /* \"3_Token Swap/DEX.sol\":1582:1588  totalB */\n      sload(0x04)\n        /* \"3_Token Swap/DEX.sol\":1577:1579  tA */\n      dup3\n        /* \"3_Token Swap/DEX.sol\":1577:1588  tA / totalB */\n      tag_137\n      swap2\n      swap1\n      tag_67\n      jump\t// in\n    tag_137:\n        /* \"3_Token Swap/DEX.sol\":1562:1573  tokenAPrice */\n      0x05\n        /* \"3_Token Swap/DEX.sol\":1562:1588  tokenAPrice =  tA / totalB */\n      dup2\n      swap1\n      sstore\n      pop\n        /* \"3_Token Swap/DEX.sol\":1619:1625  totalA */\n      sload(0x03)\n        /* \"3_Token Swap/DEX.sol\":1614:1616  tB */\n      dup2\n        /* \"3_Token Swap/DEX.sol\":1614:1625  tB / totalA */\n      tag_138\n      swap2\n      swap1\n      tag_67\n      jump\t// in\n    tag_138:\n        /* \"3_Token Swap/DEX.sol\":1599:1610  tokenBPrice */\n      0x06\n        /* \"3_Token Swap/DEX.sol\":1599:1625  tokenBPrice =  tB / totalA */\n      dup2\n      swap1\n      sstore\n      pop\n        /* \"3_Token Swap/DEX.sol\":1645:1656  tokenAPrice */\n      sload(0x05)\n        /* \"3_Token Swap/DEX.sol\":1657:1668  tokenBPrice */\n      sload(0x06)\n        /* \"3_Token Swap/DEX.sol\":1638:1669  return(tokenAPrice,tokenBPrice) */\n      swap4\n      pop\n      swap4\n      pop\n      pop\n      pop\n        /* \"3_Token Swap/DEX.sol\":1308:1677  function swapRate() public returns(uint, uint)... */\n      swap1\n      swap2\n      jump\t// out\n        /* \"3_Token Swap/DEX.sol\":332:355  uint public tokenAPrice */\n    tag_46:\n      sload(0x05)\n      dup2\n      jump\t// out\n        /* \"3_Token Swap/DEX.sol\":280:298  uint public totalA */\n    tag_49:\n      sload(0x03)\n      dup2\n      jump\t// out\n        /* \"3_Token Swap/DEX.sol\":1685:2294  function AtoB(uint _amount) public returns(uint amountOfA, uint totalAmount, uint amountOfB)... */\n    tag_53:\n        /* \"3_Token Swap/DEX.sol\":1728:1742  uint amountOfA */\n      0x00\n        /* \"3_Token Swap/DEX.sol\":1744:1760  uint totalAmount */\n      dup1\n        /* \"3_Token Swap/DEX.sol\":1762:1776  uint amountOfB */\n      0x00\n        /* \"3_Token Swap/DEX.sol\":1842:1849  _amount */\n      dup4\n        /* \"3_Token Swap/DEX.sol\":1809:1815  tokenA */\n      0x00\n      dup1\n      sload\n      swap1\n      0x0100\n      exp\n      swap1\n      div\n      0xffffffffffffffffffffffffffffffffffffffff\n      and\n        /* \"3_Token Swap/DEX.sol\":1802:1826  IERC20(tokenA).balanceOf */\n      0xffffffffffffffffffffffffffffffffffffffff\n      and\n      0x70a08231\n        /* \"3_Token Swap/DEX.sol\":1827:1837  msg.sender */\n      caller\n        /* \"3_Token Swap/DEX.sol\":1802:1838  IERC20(tokenA).balanceOf(msg.sender) */\n      mload(0x40)\n      dup3\n      0xffffffff\n      and\n      0xe0\n      shl\n      dup2\n      mstore\n      0x04\n      add\n      tag_140\n      swap2\n      swap1\n      tag_18\n      jump\t// in\n    tag_140:\n      0x20\n      mload(0x40)\n      dup1\n      dup4\n      sub\n      dup2\n      dup7\n      gas\n      staticcall\n      iszero\n      dup1\n      iszero\n      tag_142\n      jumpi\n      returndatasize\n      0x00\n      dup1\n      returndatacopy\n      revert(0x00, returndatasize)\n    tag_142:\n      pop\n      pop\n      pop\n      pop\n      mload(0x40)\n      returndatasize\n      not(0x1f)\n      0x1f\n      dup3\n      add\n      and\n      dup3\n      add\n      dup1\n      0x40\n      mstore\n      pop\n      dup2\n      add\n      swap1\n      tag_143\n      swap2\n      swap1\n      tag_60\n      jump\t// in\n    tag_143:\n        /* \"3_Token Swap/DEX.sol\":1802:1849  IERC20(tokenA).balanceOf(msg.sender) >= _amount */\n      lt\n      iszero\n        /* \"3_Token Swap/DEX.sol\":1794:1891  require(IERC20(tokenA).balanceOf(msg.sender) >= _amount, \"you haven't enough balance of TokenA \") */\n      tag_144\n      jumpi\n      mload(0x40)\n      0x08c379a000000000000000000000000000000000000000000000000000000000\n      dup2\n      mstore\n      0x04\n      add\n      tag_145\n      swap1\n      tag_146\n      jump\t// in\n    tag_145:\n      mload(0x40)\n      dup1\n      swap2\n      sub\n      swap1\n      revert\n    tag_144:\n        /* \"3_Token Swap/DEX.sol\":1912:1924  uint amountA */\n      0x00\n        /* \"3_Token Swap/DEX.sol\":1937:1948  tokenAPrice */\n      sload(0x05)\n        /* \"3_Token Swap/DEX.sol\":1927:1934  _amount */\n      dup6\n        /* \"3_Token Swap/DEX.sol\":1927:1948  _amount * tokenAPrice */\n      tag_147\n      swap2\n      swap1\n      tag_65\n      jump\t// in\n    tag_147:\n        /* \"3_Token Swap/DEX.sol\":1912:1948  uint amountA = _amount * tokenAPrice */\n      swap1\n      pop\n        /* \"3_Token Swap/DEX.sol\":1959:1969  uint swapB */\n      0x00\n        /* \"3_Token Swap/DEX.sol\":1982:1993  tokenBPrice */\n      sload(0x06)\n        /* \"3_Token Swap/DEX.sol\":1972:1979  amountA */\n      dup3\n        /* \"3_Token Swap/DEX.sol\":1972:1993  amountA / tokenBPrice */\n      tag_148\n      swap2\n      swap1\n      tag_67\n      jump\t// in\n    tag_148:\n        /* \"3_Token Swap/DEX.sol\":1959:1993  uint swapB = amountA / tokenBPrice */\n      swap1\n      pop\n        /* \"3_Token Swap/DEX.sol\":2055:2060  swapB */\n      dup1\n        /* \"3_Token Swap/DEX.sol\":2019:2025  tokenB */\n      0x01\n      0x00\n      swap1\n      sload\n      swap1\n      0x0100\n      exp\n      swap1\n      div\n      0xffffffffffffffffffffffffffffffffffffffff\n      and\n        /* \"3_Token Swap/DEX.sol\":2012:2036  IERC20(tokenB).balanceOf */\n      0xffffffffffffffffffffffffffffffffffffffff\n      and\n      0x70a08231\n        /* \"3_Token Swap/DEX.sol\":2045:2049  this */\n      address\n        /* \"3_Token Swap/DEX.sol\":2012:2051  IERC20(tokenB).balanceOf(address(this)) */\n      mload(0x40)\n      dup3\n      0xffffffff\n      and\n      0xe0\n      shl\n      dup2\n      mstore\n      0x04\n      add\n      tag_149\n      swap2\n      swap1\n      tag_18\n      jump\t// in\n    tag_149:\n      0x20\n      mload(0x40)\n      dup1\n      dup4\n      sub\n      dup2\n      dup7\n      gas\n      staticcall\n      iszero\n      dup1\n      iszero\n      tag_151\n      jumpi\n      returndatasize\n      0x00\n      dup1\n      returndatacopy\n      revert(0x00, returndatasize)\n    tag_151:\n      pop\n      pop\n      pop\n      pop\n      mload(0x40)\n      returndatasize\n      not(0x1f)\n      0x1f\n      dup3\n      add\n      and\n      dup3\n      add\n      dup1\n      0x40\n      mstore\n      pop\n      dup2\n      add\n      swap1\n      tag_152\n      swap2\n      swap1\n      tag_60\n      jump\t// in\n    tag_152:\n        /* \"3_Token Swap/DEX.sol\":2012:2060  IERC20(tokenB).balanceOf(address(this)) >= swapB */\n      lt\n      iszero\n        /* \"3_Token Swap/DEX.sol\":2004:2094  require(IERC20(tokenB).balanceOf(address(this)) >= swapB, \"There is not enough Liquidity\") */\n      tag_153\n      jumpi\n      mload(0x40)\n      0x08c379a000000000000000000000000000000000000000000000000000000000\n      dup2\n      mstore\n      0x04\n      add\n      tag_154\n      swap1\n      tag_74\n      jump\t// in\n    tag_154:\n      mload(0x40)\n      dup1\n      swap2\n      sub\n      swap1\n      revert\n    tag_153:\n        /* \"3_Token Swap/DEX.sol\":2114:2120  tokenA */\n      0x00\n      dup1\n      sload\n      swap1\n      0x0100\n      exp\n      swap1\n      div\n      0xffffffffffffffffffffffffffffffffffffffff\n      and\n        /* \"3_Token Swap/DEX.sol\":2107:2134  IERC20(tokenA).transferFrom */\n      0xffffffffffffffffffffffffffffffffffffffff\n      and\n      0x23b872dd\n        /* \"3_Token Swap/DEX.sol\":2135:2145  msg.sender */\n      caller\n        /* \"3_Token Swap/DEX.sol\":2155:2159  this */\n      address\n        /* \"3_Token Swap/DEX.sol\":2162:2169  _amount */\n      dup10\n        /* \"3_Token Swap/DEX.sol\":2107:2170  IERC20(tokenA).transferFrom(msg.sender, address(this), _amount) */\n      mload(0x40)\n      dup5\n      0xffffffff\n      and\n      0xe0\n      shl\n      dup2\n      mstore\n      0x04\n      add\n      tag_155\n      swap4\n      swap3\n      swap2\n      swap1\n      tag_76\n      jump\t// in\n    tag_155:\n      0x20\n      mload(0x40)\n      dup1\n      dup4\n      sub\n      dup2\n      0x00\n      dup8\n      gas\n      call\n      iszero\n      dup1\n      iszero\n      tag_157\n      jumpi\n      returndatasize\n      0x00\n      dup1\n      returndatacopy\n      revert(0x00, returndatasize)\n    tag_157:\n      pop\n      pop\n      pop\n      pop\n      mload(0x40)\n      returndatasize\n      not(0x1f)\n      0x1f\n      dup3\n      add\n      and\n      dup3\n      add\n      dup1\n      0x40\n      mstore\n      pop\n      dup2\n      add\n      swap1\n      tag_158\n      swap2\n      swap1\n      tag_80\n      jump\t// in\n    tag_158:\n      pop\n        /* \"3_Token Swap/DEX.sol\":2188:2194  tokenB */\n      0x01\n      0x00\n      swap1\n      sload\n      swap1\n      0x0100\n      exp\n      swap1\n      div\n      0xffffffffffffffffffffffffffffffffffffffff\n      and\n        /* \"3_Token Swap/DEX.sol\":2181:2208  IERC20(tokenB).transferFrom */\n      0xffffffffffffffffffffffffffffffffffffffff\n      and\n      0x23b872dd\n        /* \"3_Token Swap/DEX.sol\":2217:2221  this */\n      address\n        /* \"3_Token Swap/DEX.sol\":2223:2233  msg.sender */\n      caller\n        /* \"3_Token Swap/DEX.sol\":2234:2239  swapB */\n      dup5\n        /* \"3_Token Swap/DEX.sol\":2181:2240  IERC20(tokenB).transferFrom(address(this),msg.sender,swapB) */\n      mload(0x40)\n      dup5\n      0xffffffff\n      and\n      0xe0\n      shl\n      dup2\n      mstore\n      0x04\n      add\n      tag_159\n      swap4\n      swap3\n      swap2\n      swap1\n      tag_76\n      jump\t// in\n    tag_159:\n      0x20\n      mload(0x40)\n      dup1\n      dup4\n      sub\n      dup2\n      0x00\n      dup8\n      gas\n      call\n      iszero\n      dup1\n      iszero\n      tag_161\n      jumpi\n      returndatasize\n      0x00\n      dup1\n      returndatacopy\n      revert(0x00, returndatasize)\n    tag_161:\n      pop\n      pop\n      pop\n      pop\n      mload(0x40)\n      returndatasize\n      not(0x1f)\n      0x1f\n      dup3\n      add\n      and\n      dup3\n      add\n      dup1\n      0x40\n      mstore\n      pop\n      dup2\n      add\n      swap1\n      tag_162\n      swap2\n      swap1\n      tag_80\n      jump\t// in\n    tag_162:\n      pop\n        /* \"3_Token Swap/DEX.sol\":2260:2267  _amount */\n      dup6\n        /* \"3_Token Swap/DEX.sol\":2268:2275  amountA */\n      dup3\n        /* \"3_Token Swap/DEX.sol\":2276:2281  swapB */\n      dup3\n        /* \"3_Token Swap/DEX.sol\":2253:2283  return(_amount,amountA,swapB ) */\n      swap5\n      pop\n      swap5\n      pop\n      swap5\n      pop\n      pop\n      pop\n        /* \"3_Token Swap/DEX.sol\":1685:2294  function AtoB(uint _amount) public returns(uint amountOfA, uint totalAmount, uint amountOfB)... */\n      swap2\n      swap4\n      swap1\n      swap3\n      pop\n      jump\t// out\n        /* \"#utility.yul\":7:133   */\n    tag_163:\n        /* \"#utility.yul\":44:51   */\n      0x00\n        /* \"#utility.yul\":84:126   */\n      0xffffffffffffffffffffffffffffffffffffffff\n        /* \"#utility.yul\":77:82   */\n      dup3\n        /* \"#utility.yul\":73:127   */\n      and\n        /* \"#utility.yul\":62:127   */\n      swap1\n      pop\n        /* \"#utility.yul\":7:133   */\n      swap2\n      swap1\n      pop\n      jump\t// out\n        /* \"#utility.yul\":139:235   */\n    tag_164:\n        /* \"#utility.yul\":176:183   */\n      0x00\n        /* \"#utility.yul\":205:229   */\n      tag_193\n        /* \"#utility.yul\":223:228   */\n      dup3\n        /* \"#utility.yul\":205:229   */\n      tag_163\n      jump\t// in\n    tag_193:\n        /* \"#utility.yul\":194:229   */\n      swap1\n      pop\n        /* \"#utility.yul\":139:235   */\n      swap2\n      swap1\n      pop\n      jump\t// out\n        /* \"#utility.yul\":241:359   */\n    tag_165:\n        /* \"#utility.yul\":328:352   */\n      tag_195\n        /* \"#utility.yul\":346:351   */\n      dup2\n        /* \"#utility.yul\":328:352   */\n      tag_164\n      jump\t// in\n    tag_195:\n        /* \"#utility.yul\":323:326   */\n      dup3\n        /* \"#utility.yul\":316:353   */\n      mstore\n        /* \"#utility.yul\":241:359   */\n      pop\n      pop\n      jump\t// out\n        /* \"#utility.yul\":365:587   */\n    tag_18:\n        /* \"#utility.yul\":458:462   */\n      0x00\n        /* \"#utility.yul\":496:498   */\n      0x20\n        /* \"#utility.yul\":485:494   */\n      dup3\n        /* \"#utility.yul\":481:499   */\n      add\n        /* \"#utility.yul\":473:499   */\n      swap1\n      pop\n        /* \"#utility.yul\":509:580   */\n      tag_197\n        /* \"#utility.yul\":577:578   */\n      0x00\n        /* \"#utility.yul\":566:575   */\n      dup4\n        /* \"#utility.yul\":562:579   */\n      add\n        /* \"#utility.yul\":553:559   */\n      dup5\n        /* \"#utility.yul\":509:580   */\n      tag_165\n      jump\t// in\n    tag_197:\n        /* \"#utility.yul\":365:587   */\n      swap3\n      swap2\n      pop\n      pop\n      jump\t// out\n        /* \"#utility.yul\":674:791   */\n    tag_167:\n        /* \"#utility.yul\":783:784   */\n      0x00\n        /* \"#utility.yul\":780:781   */\n      dup1\n        /* \"#utility.yul\":773:785   */\n      revert\n        /* \"#utility.yul\":920:997   */\n    tag_169:\n        /* \"#utility.yul\":957:964   */\n      0x00\n        /* \"#utility.yul\":986:991   */\n      dup2\n        /* \"#utility.yul\":975:991   */\n      swap1\n      pop\n        /* \"#utility.yul\":920:997   */\n      swap2\n      swap1\n      pop\n      jump\t// out\n        /* \"#utility.yul\":1003:1125   */\n    tag_170:\n        /* \"#utility.yul\":1076:1100   */\n      tag_203\n        /* \"#utility.yul\":1094:1099   */\n      dup2\n        /* \"#utility.yul\":1076:1100   */\n      tag_169\n      jump\t// in\n    tag_203:\n        /* \"#utility.yul\":1069:1074   */\n      dup2\n        /* \"#utility.yul\":1066:1101   */\n      eq\n        /* \"#utility.yul\":1056:1119   */\n      tag_204\n      jumpi\n        /* \"#utility.yul\":1115:1116   */\n      0x00\n        /* \"#utility.yul\":1112:1113   */\n      dup1\n        /* \"#utility.yul\":1105:1117   */\n      revert\n        /* \"#utility.yul\":1056:1119   */\n    tag_204:\n        /* \"#utility.yul\":1003:1125   */\n      pop\n      jump\t// out\n        /* \"#utility.yul\":1131:1270   */\n    tag_171:\n        /* \"#utility.yul\":1177:1182   */\n      0x00\n        /* \"#utility.yul\":1215:1221   */\n      dup2\n        /* \"#utility.yul\":1202:1222   */\n      calldataload\n        /* \"#utility.yul\":1193:1222   */\n      swap1\n      pop\n        /* \"#utility.yul\":1231:1264   */\n      tag_206\n        /* \"#utility.yul\":1258:1263   */\n      dup2\n        /* \"#utility.yul\":1231:1264   */\n      tag_170\n      jump\t// in\n    tag_206:\n        /* \"#utility.yul\":1131:1270   */\n      swap3\n      swap2\n      pop\n      pop\n      jump\t// out\n        /* \"#utility.yul\":1276:1605   */\n    tag_21:\n        /* \"#utility.yul\":1335:1341   */\n      0x00\n        /* \"#utility.yul\":1384:1386   */\n      0x20\n        /* \"#utility.yul\":1372:1381   */\n      dup3\n        /* \"#utility.yul\":1363:1370   */\n      dup5\n        /* \"#utility.yul\":1359:1382   */\n      sub\n        /* \"#utility.yul\":1355:1387   */\n      slt\n        /* \"#utility.yul\":1352:1471   */\n      iszero\n      tag_208\n      jumpi\n        /* \"#utility.yul\":1390:1469   */\n      tag_209\n      tag_167\n      jump\t// in\n    tag_209:\n        /* \"#utility.yul\":1352:1471   */\n    tag_208:\n        /* \"#utility.yul\":1510:1511   */\n      0x00\n        /* \"#utility.yul\":1535:1588   */\n      tag_210\n        /* \"#utility.yul\":1580:1587   */\n      dup5\n        /* \"#utility.yul\":1571:1577   */\n      dup3\n        /* \"#utility.yul\":1560:1569   */\n      dup6\n        /* \"#utility.yul\":1556:1578   */\n      add\n        /* \"#utility.yul\":1535:1588   */\n      tag_171\n      jump\t// in\n    tag_210:\n        /* \"#utility.yul\":1525:1588   */\n      swap2\n      pop\n        /* \"#utility.yul\":1481:1598   */\n      pop\n        /* \"#utility.yul\":1276:1605   */\n      swap3\n      swap2\n      pop\n      pop\n      jump\t// out\n        /* \"#utility.yul\":1611:1729   */\n    tag_172:\n        /* \"#utility.yul\":1698:1722   */\n      tag_212\n        /* \"#utility.yul\":1716:1721   */\n      dup2\n        /* \"#utility.yul\":1698:1722   */\n      tag_169\n      jump\t// in\n    tag_212:\n        /* \"#utility.yul\":1693:1696   */\n      dup3\n        /* \"#utility.yul\":1686:1723   */\n      mstore\n        /* \"#utility.yul\":1611:1729   */\n      pop\n      pop\n      jump\t// out\n        /* \"#utility.yul\":1735:2177   */\n    tag_24:\n        /* \"#utility.yul\":1884:1888   */\n      0x00\n        /* \"#utility.yul\":1922:1924   */\n      0x60\n        /* \"#utility.yul\":1911:1920   */\n      dup3\n        /* \"#utility.yul\":1907:1925   */\n      add\n        /* \"#utility.yul\":1899:1925   */\n      swap1\n      pop\n        /* \"#utility.yul\":1935:2006   */\n      tag_214\n        /* \"#utility.yul\":2003:2004   */\n      0x00\n        /* \"#utility.yul\":1992:2001   */\n      dup4\n        /* \"#utility.yul\":1988:2005   */\n      add\n        /* \"#utility.yul\":1979:1985   */\n      dup7\n        /* \"#utility.yul\":1935:2006   */\n      tag_172\n      jump\t// in\n    tag_214:\n        /* \"#utility.yul\":2016:2088   */\n      tag_215\n        /* \"#utility.yul\":2084:2086   */\n      0x20\n        /* \"#utility.yul\":2073:2082   */\n      dup4\n        /* \"#utility.yul\":2069:2087   */\n      add\n        /* \"#utility.yul\":2060:2066   */\n      dup6\n        /* \"#utility.yul\":2016:2088   */\n      tag_172\n      jump\t// in\n    tag_215:\n        /* \"#utility.yul\":2098:2170   */\n      tag_216\n        /* \"#utility.yul\":2166:2168   */\n      0x40\n        /* \"#utility.yul\":2155:2164   */\n      dup4\n        /* \"#utility.yul\":2151:2169   */\n      add\n        /* \"#utility.yul\":2142:2148   */\n      dup5\n        /* \"#utility.yul\":2098:2170   */\n      tag_172\n      jump\t// in\n    tag_216:\n        /* \"#utility.yul\":1735:2177   */\n      swap5\n      swap4\n      pop\n      pop\n      pop\n      pop\n      jump\t// out\n        /* \"#utility.yul\":2183:2405   */\n    tag_28:\n        /* \"#utility.yul\":2276:2280   */\n      0x00\n        /* \"#utility.yul\":2314:2316   */\n      0x20\n        /* \"#utility.yul\":2303:2312   */\n      dup3\n        /* \"#utility.yul\":2299:2317   */\n      add\n        /* \"#utility.yul\":2291:2317   */\n      swap1\n      pop\n        /* \"#utility.yul\":2327:2398   */\n      tag_218\n        /* \"#utility.yul\":2395:2396   */\n      0x00\n        /* \"#utility.yul\":2384:2393   */\n      dup4\n        /* \"#utility.yul\":2380:2397   */\n      add\n        /* \"#utility.yul\":2371:2377   */\n      dup5\n        /* \"#utility.yul\":2327:2398   */\n      tag_172\n      jump\t// in\n    tag_218:\n        /* \"#utility.yul\":2183:2405   */\n      swap3\n      swap2\n      pop\n      pop\n      jump\t// out\n        /* \"#utility.yul\":2411:2743   */\n    tag_35:\n        /* \"#utility.yul\":2532:2536   */\n      0x00\n        /* \"#utility.yul\":2570:2572   */\n      0x40\n        /* \"#utility.yul\":2559:2568   */\n      dup3\n        /* \"#utility.yul\":2555:2573   */\n      add\n        /* \"#utility.yul\":2547:2573   */\n      swap1\n      pop\n        /* \"#utility.yul\":2583:2654   */\n      tag_220\n        /* \"#utility.yul\":2651:2652   */\n      0x00\n        /* \"#utility.yul\":2640:2649   */\n      dup4\n        /* \"#utility.yul\":2636:2653   */\n      add\n        /* \"#utility.yul\":2627:2633   */\n      dup6\n        /* \"#utility.yul\":2583:2654   */\n      tag_172\n      jump\t// in\n    tag_220:\n        /* \"#utility.yul\":2664:2736   */\n      tag_221\n        /* \"#utility.yul\":2732:2734   */\n      0x20\n        /* \"#utility.yul\":2721:2730   */\n      dup4\n        /* \"#utility.yul\":2717:2735   */\n      add\n        /* \"#utility.yul\":2708:2714   */\n      dup5\n        /* \"#utility.yul\":2664:2736   */\n      tag_172\n      jump\t// in\n    tag_221:\n        /* \"#utility.yul\":2411:2743   */\n      swap4\n      swap3\n      pop\n      pop\n      pop\n      jump\t// out\n        /* \"#utility.yul\":2749:2892   */\n    tag_173:\n        /* \"#utility.yul\":2806:2811   */\n      0x00\n        /* \"#utility.yul\":2837:2843   */\n      dup2\n        /* \"#utility.yul\":2831:2844   */\n      mload\n        /* \"#utility.yul\":2822:2844   */\n      swap1\n      pop\n        /* \"#utility.yul\":2853:2886   */\n      tag_223\n        /* \"#utility.yul\":2880:2885   */\n      dup2\n        /* \"#utility.yul\":2853:2886   */\n      tag_170\n      jump\t// in\n    tag_223:\n        /* \"#utility.yul\":2749:2892   */\n      swap3\n      swap2\n      pop\n      pop\n      jump\t// out\n        /* \"#utility.yul\":2898:3249   */\n    tag_60:\n        /* \"#utility.yul\":2968:2974   */\n      0x00\n        /* \"#utility.yul\":3017:3019   */\n      0x20\n        /* \"#utility.yul\":3005:3014   */\n      dup3\n        /* \"#utility.yul\":2996:3003   */\n      dup5\n        /* \"#utility.yul\":2992:3015   */\n      sub\n        /* \"#utility.yul\":2988:3020   */\n      slt\n        /* \"#utility.yul\":2985:3104   */\n      iszero\n      tag_225\n      jumpi\n        /* \"#utility.yul\":3023:3102   */\n      tag_226\n      tag_167\n      jump\t// in\n    tag_226:\n        /* \"#utility.yul\":2985:3104   */\n    tag_225:\n        /* \"#utility.yul\":3143:3144   */\n      0x00\n        /* \"#utility.yul\":3168:3232   */\n      tag_227\n        /* \"#utility.yul\":3224:3231   */\n      dup5\n        /* \"#utility.yul\":3215:3221   */\n      dup3\n        /* \"#utility.yul\":3204:3213   */\n      dup6\n        /* \"#utility.yul\":3200:3222   */\n      add\n        /* \"#utility.yul\":3168:3232   */\n      tag_173\n      jump\t// in\n    tag_227:\n        /* \"#utility.yul\":3158:3232   */\n      swap2\n      pop\n        /* \"#utility.yul\":3114:3242   */\n      pop\n        /* \"#utility.yul\":2898:3249   */\n      swap3\n      swap2\n      pop\n      pop\n      jump\t// out\n        /* \"#utility.yul\":3255:3424   */\n    tag_174:\n        /* \"#utility.yul\":3339:3350   */\n      0x00\n        /* \"#utility.yul\":3373:3379   */\n      dup3\n        /* \"#utility.yul\":3368:3371   */\n      dup3\n        /* \"#utility.yul\":3361:3380   */\n      mstore\n        /* \"#utility.yul\":3413:3417   */\n      0x20\n        /* \"#utility.yul\":3408:3411   */\n      dup3\n        /* \"#utility.yul\":3404:3418   */\n      add\n        /* \"#utility.yul\":3389:3418   */\n      swap1\n      pop\n        /* \"#utility.yul\":3255:3424   */\n      swap3\n      swap2\n      pop\n      pop\n      jump\t// out\n        /* \"#utility.yul\":3430:3654   */\n    tag_175:\n        /* \"#utility.yul\":3570:3604   */\n      0x596f7520686176656e277420656e6f7567682062616c616e6365206f6620546f\n        /* \"#utility.yul\":3566:3567   */\n      0x00\n        /* \"#utility.yul\":3558:3564   */\n      dup3\n        /* \"#utility.yul\":3554:3568   */\n      add\n        /* \"#utility.yul\":3547:3605   */\n      mstore\n        /* \"#utility.yul\":3639:3646   */\n      0x6b656e4220000000000000000000000000000000000000000000000000000000\n        /* \"#utility.yul\":3634:3636   */\n      0x20\n        /* \"#utility.yul\":3626:3632   */\n      dup3\n        /* \"#utility.yul\":3622:3637   */\n      add\n        /* \"#utility.yul\":3615:3647   */\n      mstore\n        /* \"#utility.yul\":3430:3654   */\n      pop\n      jump\t// out\n        /* \"#utility.yul\":3660:4026   */\n    tag_176:\n        /* \"#utility.yul\":3802:3805   */\n      0x00\n        /* \"#utility.yul\":3823:3890   */\n      tag_231\n        /* \"#utility.yul\":3887:3889   */\n      0x25\n        /* \"#utility.yul\":3882:3885   */\n      dup4\n        /* \"#utility.yul\":3823:3890   */\n      tag_174\n      jump\t// in\n    tag_231:\n        /* \"#utility.yul\":3816:3890   */\n      swap2\n      pop\n        /* \"#utility.yul\":3899:3992   */\n      tag_232\n        /* \"#utility.yul\":3988:3991   */\n      dup3\n        /* \"#utility.yul\":3899:3992   */\n      tag_175\n      jump\t// in\n    tag_232:\n        /* \"#utility.yul\":4017:4019   */\n      0x40\n        /* \"#utility.yul\":4012:4015   */\n      dup3\n        /* \"#utility.yul\":4008:4020   */\n      add\n        /* \"#utility.yul\":4001:4020   */\n      swap1\n      pop\n        /* \"#utility.yul\":3660:4026   */\n      swap2\n      swap1\n      pop\n      jump\t// out\n        /* \"#utility.yul\":4032:4451   */\n    tag_63:\n        /* \"#utility.yul\":4198:4202   */\n      0x00\n        /* \"#utility.yul\":4236:4238   */\n      0x20\n        /* \"#utility.yul\":4225:4234   */\n      dup3\n        /* \"#utility.yul\":4221:4239   */\n      add\n        /* \"#utility.yul\":4213:4239   */\n      swap1\n      pop\n        /* \"#utility.yul\":4285:4294   */\n      dup2\n        /* \"#utility.yul\":4279:4283   */\n      dup2\n        /* \"#utility.yul\":4275:4295   */\n      sub\n        /* \"#utility.yul\":4271:4272   */\n      0x00\n        /* \"#utility.yul\":4260:4269   */\n      dup4\n        /* \"#utility.yul\":4256:4273   */\n      add\n        /* \"#utility.yul\":4249:4296   */\n      mstore\n        /* \"#utility.yul\":4313:4444   */\n      tag_234\n        /* \"#utility.yul\":4439:4443   */\n      dup2\n        /* \"#utility.yul\":4313:4444   */\n      tag_176\n      jump\t// in\n    tag_234:\n        /* \"#utility.yul\":4305:4444   */\n      swap1\n      pop\n        /* \"#utility.yul\":4032:4451   */\n      swap2\n      swap1\n      pop\n      jump\t// out\n        /* \"#utility.yul\":4457:4637   */\n    tag_177:\n        /* \"#utility.yul\":4505:4582   */\n      0x4e487b7100000000000000000000000000000000000000000000000000000000\n        /* \"#utility.yul\":4502:4503   */\n      0x00\n        /* \"#utility.yul\":4495:4583   */\n      mstore\n        /* \"#utility.yul\":4602:4606   */\n      0x11\n        /* \"#utility.yul\":4599:4600   */\n      0x04\n        /* \"#utility.yul\":4592:4607   */\n      mstore\n        /* \"#utility.yul\":4626:4630   */\n      0x24\n        /* \"#utility.yul\":4623:4624   */\n      0x00\n        /* \"#utility.yul\":4616:4631   */\n      revert\n        /* \"#utility.yul\":4643:5053   */\n    tag_65:\n        /* \"#utility.yul\":4683:4690   */\n      0x00\n        /* \"#utility.yul\":4706:4726   */\n      tag_237\n        /* \"#utility.yul\":4724:4725   */\n      dup3\n        /* \"#utility.yul\":4706:4726   */\n      tag_169\n      jump\t// in\n    tag_237:\n        /* \"#utility.yul\":4701:4726   */\n      swap2\n      pop\n        /* \"#utility.yul\":4740:4760   */\n      tag_238\n        /* \"#utility.yul\":4758:4759   */\n      dup4\n        /* \"#utility.yul\":4740:4760   */\n      tag_169\n      jump\t// in\n    tag_238:\n        /* \"#utility.yul\":4735:4760   */\n      swap3\n      pop\n        /* \"#utility.yul\":4795:4796   */\n      dup3\n        /* \"#utility.yul\":4792:4793   */\n      dup3\n        /* \"#utility.yul\":4788:4797   */\n      mul\n        /* \"#utility.yul\":4817:4847   */\n      tag_239\n        /* \"#utility.yul\":4835:4846   */\n      dup2\n        /* \"#utility.yul\":4817:4847   */\n      tag_169\n      jump\t// in\n    tag_239:\n        /* \"#utility.yul\":4806:4847   */\n      swap2\n      pop\n        /* \"#utility.yul\":4996:4997   */\n      dup3\n        /* \"#utility.yul\":4987:4994   */\n      dup3\n        /* \"#utility.yul\":4983:4998   */\n      div\n        /* \"#utility.yul\":4980:4981   */\n      dup5\n        /* \"#utility.yul\":4977:4999   */\n      eq\n        /* \"#utility.yul\":4957:4958   */\n      dup4\n        /* \"#utility.yul\":4950:4959   */\n      iszero\n        /* \"#utility.yul\":4930:5013   */\n      or\n        /* \"#utility.yul\":4907:5046   */\n      tag_240\n      jumpi\n        /* \"#utility.yul\":5026:5044   */\n      tag_241\n      tag_177\n      jump\t// in\n    tag_241:\n        /* \"#utility.yul\":4907:5046   */\n    tag_240:\n        /* \"#utility.yul\":4691:5053   */\n      pop\n        /* \"#utility.yul\":4643:5053   */\n      swap3\n      swap2\n      pop\n      pop\n      jump\t// out\n        /* \"#utility.yul\":5059:5239   */\n    tag_178:\n        /* \"#utility.yul\":5107:5184   */\n      0x4e487b7100000000000000000000000000000000000000000000000000000000\n        /* \"#utility.yul\":5104:5105   */\n      0x00\n        /* \"#utility.yul\":5097:5185   */\n      mstore\n        /* \"#utility.yul\":5204:5208   */\n      0x12\n        /* \"#utility.yul\":5201:5202   */\n      0x04\n        /* \"#utility.yul\":5194:5209   */\n      mstore\n        /* \"#utility.yul\":5228:5232   */\n      0x24\n        /* \"#utility.yul\":5225:5226   */\n      0x00\n        /* \"#utility.yul\":5218:5233   */\n      revert\n        /* \"#utility.yul\":5245:5430   */\n    tag_67:\n        /* \"#utility.yul\":5285:5286   */\n      0x00\n        /* \"#utility.yul\":5302:5322   */\n      tag_244\n        /* \"#utility.yul\":5320:5321   */\n      dup3\n        /* \"#utility.yul\":5302:5322   */\n      tag_169\n      jump\t// in\n    tag_244:\n        /* \"#utility.yul\":5297:5322   */\n      swap2\n      pop\n        /* \"#utility.yul\":5336:5356   */\n      tag_245\n        /* \"#utility.yul\":5354:5355   */\n      dup4\n        /* \"#utility.yul\":5336:5356   */\n      tag_169\n      jump\t// in\n    tag_245:\n        /* \"#utility.yul\":5331:5356   */\n      swap3\n      pop\n        /* \"#utility.yul\":5375:5376   */\n      dup3\n        /* \"#utility.yul\":5365:5400   */\n      tag_246\n      jumpi\n        /* \"#utility.yul\":5380:5398   */\n      tag_247\n      tag_178\n      jump\t// in\n    tag_247:\n        /* \"#utility.yul\":5365:5400   */\n    tag_246:\n        /* \"#utility.yul\":5422:5423   */\n      dup3\n        /* \"#utility.yul\":5419:5420   */\n      dup3\n        /* \"#utility.yul\":5415:5424   */\n      div\n        /* \"#utility.yul\":5410:5424   */\n      swap1\n      pop\n        /* \"#utility.yul\":5245:5430   */\n      swap3\n      swap2\n      pop\n      pop\n      jump\t// out\n        /* \"#utility.yul\":5436:5615   */\n    tag_179:\n        /* \"#utility.yul\":5576:5607   */\n      0x5468657265206973206e6f7420656e6f756768204c6971756964697479000000\n        /* \"#utility.yul\":5572:5573   */\n      0x00\n        /* \"#utility.yul\":5564:5570   */\n      dup3\n        /* \"#utility.yul\":5560:5574   */\n      add\n        /* \"#utility.yul\":5553:5608   */\n      mstore\n        /* \"#utility.yul\":5436:5615   */\n      pop\n      jump\t// out\n        /* \"#utility.yul\":5621:5987   */\n    tag_180:\n        /* \"#utility.yul\":5763:5766   */\n      0x00\n        /* \"#utility.yul\":5784:5851   */\n      tag_250\n        /* \"#utility.yul\":5848:5850   */\n      0x1d\n        /* \"#utility.yul\":5843:5846   */\n      dup4\n        /* \"#utility.yul\":5784:5851   */\n      tag_174\n      jump\t// in\n    tag_250:\n        /* \"#utility.yul\":5777:5851   */\n      swap2\n      pop\n        /* \"#utility.yul\":5860:5953   */\n      tag_251\n        /* \"#utility.yul\":5949:5952   */\n      dup3\n        /* \"#utility.yul\":5860:5953   */\n      tag_179\n      jump\t// in\n    tag_251:\n        /* \"#utility.yul\":5978:5980   */\n      0x20\n        /* \"#utility.yul\":5973:5976   */\n      dup3\n        /* \"#utility.yul\":5969:5981   */\n      add\n        /* \"#utility.yul\":5962:5981   */\n      swap1\n      pop\n        /* \"#utility.yul\":5621:5987   */\n      swap2\n      swap1\n      pop\n      jump\t// out\n        /* \"#utility.yul\":5993:6412   */\n    tag_74:\n        /* \"#utility.yul\":6159:6163   */\n      0x00\n        /* \"#utility.yul\":6197:6199   */\n      0x20\n        /* \"#utility.yul\":6186:6195   */\n      dup3\n        /* \"#utility.yul\":6182:6200   */\n      add\n        /* \"#utility.yul\":6174:6200   */\n      swap1\n      pop\n        /* \"#utility.yul\":6246:6255   */\n      dup2\n        /* \"#utility.yul\":6240:6244   */\n      dup2\n        /* \"#utility.yul\":6236:6256   */\n      sub\n        /* \"#utility.yul\":6232:6233   */\n      0x00\n        /* \"#utility.yul\":6221:6230   */\n      dup4\n        /* \"#utility.yul\":6217:6234   */\n      add\n        /* \"#utility.yul\":6210:6257   */\n      mstore\n        /* \"#utility.yul\":6274:6405   */\n      tag_253\n        /* \"#utility.yul\":6400:6404   */\n      dup2\n        /* \"#utility.yul\":6274:6405   */\n      tag_180\n      jump\t// in\n    tag_253:\n        /* \"#utility.yul\":6266:6405   */\n      swap1\n      pop\n        /* \"#utility.yul\":5993:6412   */\n      swap2\n      swap1\n      pop\n      jump\t// out\n        /* \"#utility.yul\":6418:6860   */\n    tag_76:\n        /* \"#utility.yul\":6567:6571   */\n      0x00\n        /* \"#utility.yul\":6605:6607   */\n      0x60\n        /* \"#utility.yul\":6594:6603   */\n      dup3\n        /* \"#utility.yul\":6590:6608   */\n      add\n        /* \"#utility.yul\":6582:6608   */\n      swap1\n      pop\n        /* \"#utility.yul\":6618:6689   */\n      tag_255\n        /* \"#utility.yul\":6686:6687   */\n      0x00\n        /* \"#utility.yul\":6675:6684   */\n      dup4\n        /* \"#utility.yul\":6671:6688   */\n      add\n        /* \"#utility.yul\":6662:6668   */\n      dup7\n        /* \"#utility.yul\":6618:6689   */\n      tag_165\n      jump\t// in\n    tag_255:\n        /* \"#utility.yul\":6699:6771   */\n      tag_256\n        /* \"#utility.yul\":6767:6769   */\n      0x20\n        /* \"#utility.yul\":6756:6765   */\n      dup4\n        /* \"#utility.yul\":6752:6770   */\n      add\n        /* \"#utility.yul\":6743:6749   */\n      dup6\n        /* \"#utility.yul\":6699:6771   */\n      tag_165\n      jump\t// in\n    tag_256:\n        /* \"#utility.yul\":6781:6853   */\n      tag_257\n        /* \"#utility.yul\":6849:6851   */\n      0x40\n        /* \"#utility.yul\":6838:6847   */\n      dup4\n        /* \"#utility.yul\":6834:6852   */\n      add\n        /* \"#utility.yul\":6825:6831   */\n      dup5\n        /* \"#utility.yul\":6781:6853   */\n      tag_172\n      jump\t// in\n    tag_257:\n        /* \"#utility.yul\":6418:6860   */\n      swap5\n      swap4\n      pop\n      pop\n      pop\n      pop\n      jump\t// out\n        /* \"#utility.yul\":6866:6956   */\n    tag_181:\n        /* \"#utility.yul\":6900:6907   */\n      0x00\n        /* \"#utility.yul\":6943:6948   */\n      dup2\n        /* \"#utility.yul\":6936:6949   */\n      iszero\n        /* \"#utility.yul\":6929:6950   */\n      iszero\n        /* \"#utility.yul\":6918:6950   */\n      swap1\n      pop\n        /* \"#utility.yul\":6866:6956   */\n      swap2\n      swap1\n      pop\n      jump\t// out\n        /* \"#utility.yul\":6962:7078   */\n    tag_182:\n        /* \"#utility.yul\":7032:7053   */\n      tag_260\n        /* \"#utility.yul\":7047:7052   */\n      dup2\n        /* \"#utility.yul\":7032:7053   */\n      tag_181\n      jump\t// in\n    tag_260:\n        /* \"#utility.yul\":7025:7030   */\n      dup2\n        /* \"#utility.yul\":7022:7054   */\n      eq\n        /* \"#utility.yul\":7012:7072   */\n      tag_261\n      jumpi\n        /* \"#utility.yul\":7068:7069   */\n      0x00\n        /* \"#utility.yul\":7065:7066   */\n      dup1\n        /* \"#utility.yul\":7058:7070   */\n      revert\n        /* \"#utility.yul\":7012:7072   */\n    tag_261:\n        /* \"#utility.yul\":6962:7078   */\n      pop\n      jump\t// out\n        /* \"#utility.yul\":7084:7221   */\n    tag_183:\n        /* \"#utility.yul\":7138:7143   */\n      0x00\n        /* \"#utility.yul\":7169:7175   */\n      dup2\n        /* \"#utility.yul\":7163:7176   */\n      mload\n        /* \"#utility.yul\":7154:7176   */\n      swap1\n      pop\n        /* \"#utility.yul\":7185:7215   */\n      tag_263\n        /* \"#utility.yul\":7209:7214   */\n      dup2\n        /* \"#utility.yul\":7185:7215   */\n      tag_182\n      jump\t// in\n    tag_263:\n        /* \"#utility.yul\":7084:7221   */\n      swap3\n      swap2\n      pop\n      pop\n      jump\t// out\n        /* \"#utility.yul\":7227:7572   */\n    tag_80:\n        /* \"#utility.yul\":7294:7300   */\n      0x00\n        /* \"#utility.yul\":7343:7345   */\n      0x20\n        /* \"#utility.yul\":7331:7340   */\n      dup3\n        /* \"#utility.yul\":7322:7329   */\n      dup5\n        /* \"#utility.yul\":7318:7341   */\n      sub\n        /* \"#utility.yul\":7314:7346   */\n      slt\n        /* \"#utility.yul\":7311:7430   */\n      iszero\n      tag_265\n      jumpi\n        /* \"#utility.yul\":7349:7428   */\n      tag_266\n      tag_167\n      jump\t// in\n    tag_266:\n        /* \"#utility.yul\":7311:7430   */\n    tag_265:\n        /* \"#utility.yul\":7469:7470   */\n      0x00\n        /* \"#utility.yul\":7494:7555   */\n      tag_267\n        /* \"#utility.yul\":7547:7554   */\n      dup5\n        /* \"#utility.yul\":7538:7544   */\n      dup3\n        /* \"#utility.yul\":7527:7536   */\n      dup6\n        /* \"#utility.yul\":7523:7545   */\n      add\n        /* \"#utility.yul\":7494:7555   */\n      tag_183\n      jump\t// in\n    tag_267:\n        /* \"#utility.yul\":7484:7555   */\n      swap2\n      pop\n        /* \"#utility.yul\":7440:7565   */\n      pop\n        /* \"#utility.yul\":7227:7572   */\n      swap3\n      swap2\n      pop\n      pop\n      jump\t// out\n        /* \"#utility.yul\":7578:7745   */\n    tag_184:\n        /* \"#utility.yul\":7718:7737   */\n      0x4e6f7420656e6f75676820546f6b656e41000000000000000000000000000000\n        /* \"#utility.yul\":7714:7715   */\n      0x00\n        /* \"#utility.yul\":7706:7712   */\n      dup3\n        /* \"#utility.yul\":7702:7716   */\n      add\n        /* \"#utility.yul\":7695:7738   */\n      mstore\n        /* \"#utility.yul\":7578:7745   */\n      pop\n      jump\t// out\n        /* \"#utility.yul\":7751:8117   */\n    tag_185:\n        /* \"#utility.yul\":7893:7896   */\n      0x00\n        /* \"#utility.yul\":7914:7981   */\n      tag_270\n        /* \"#utility.yul\":7978:7980   */\n      0x11\n        /* \"#utility.yul\":7973:7976   */\n      dup4\n        /* \"#utility.yul\":7914:7981   */\n      tag_174\n      jump\t// in\n    tag_270:\n        /* \"#utility.yul\":7907:7981   */\n      swap2\n      pop\n        /* \"#utility.yul\":7990:8083   */\n      tag_271\n        /* \"#utility.yul\":8079:8082   */\n      dup3\n        /* \"#utility.yul\":7990:8083   */\n      tag_184\n      jump\t// in\n    tag_271:\n        /* \"#utility.yul\":8108:8110   */\n      0x20\n        /* \"#utility.yul\":8103:8106   */\n      dup3\n        /* \"#utility.yul\":8099:8111   */\n      add\n        /* \"#utility.yul\":8092:8111   */\n      swap1\n      pop\n        /* \"#utility.yul\":7751:8117   */\n      swap2\n      swap1\n      pop\n      jump\t// out\n        /* \"#utility.yul\":8123:8542   */\n    tag_101:\n        /* \"#utility.yul\":8289:8293   */\n      0x00\n        /* \"#utility.yul\":8327:8329   */\n      0x20\n        /* \"#utility.yul\":8316:8325   */\n      dup3\n        /* \"#utility.yul\":8312:8330   */\n      add\n        /* \"#utility.yul\":8304:8330   */\n      swap1\n      pop\n        /* \"#utility.yul\":8376:8385   */\n      dup2\n        /* \"#utility.yul\":8370:8374   */\n      dup2\n        /* \"#utility.yul\":8366:8386   */\n      sub\n        /* \"#utility.yul\":8362:8363   */\n      0x00\n        /* \"#utility.yul\":8351:8360   */\n      dup4\n        /* \"#utility.yul\":8347:8364   */\n      add\n        /* \"#utility.yul\":8340:8387   */\n      mstore\n        /* \"#utility.yul\":8404:8535   */\n      tag_273\n        /* \"#utility.yul\":8530:8534   */\n      dup2\n        /* \"#utility.yul\":8404:8535   */\n      tag_185\n      jump\t// in\n    tag_273:\n        /* \"#utility.yul\":8396:8535   */\n      swap1\n      pop\n        /* \"#utility.yul\":8123:8542   */\n      swap2\n      swap1\n      pop\n      jump\t// out\n        /* \"#utility.yul\":8548:8715   */\n    tag_186:\n        /* \"#utility.yul\":8688:8707   */\n      0x4e6f7420656e6f75676820546f6b656e42000000000000000000000000000000\n        /* \"#utility.yul\":8684:8685   */\n      0x00\n        /* \"#utility.yul\":8676:8682   */\n      dup3\n        /* \"#utility.yul\":8672:8686   */\n      add\n        /* \"#utility.yul\":8665:8708   */\n      mstore\n        /* \"#utility.yul\":8548:8715   */\n      pop\n      jump\t// out\n        /* \"#utility.yul\":8721:9087   */\n    tag_187:\n        /* \"#utility.yul\":8863:8866   */\n      0x00\n        /* \"#utility.yul\":8884:8951   */\n      tag_276\n        /* \"#utility.yul\":8948:8950   */\n      0x11\n        /* \"#utility.yul\":8943:8946   */\n      dup4\n        /* \"#utility.yul\":8884:8951   */\n      tag_174\n      jump\t// in\n    tag_276:\n        /* \"#utility.yul\":8877:8951   */\n      swap2\n      pop\n        /* \"#utility.yul\":8960:9053   */\n      tag_277\n        /* \"#utility.yul\":9049:9052   */\n      dup3\n        /* \"#utility.yul\":8960:9053   */\n      tag_186\n      jump\t// in\n    tag_277:\n        /* \"#utility.yul\":9078:9080   */\n      0x20\n        /* \"#utility.yul\":9073:9076   */\n      dup3\n        /* \"#utility.yul\":9069:9081   */\n      add\n        /* \"#utility.yul\":9062:9081   */\n      swap1\n      pop\n        /* \"#utility.yul\":8721:9087   */\n      swap2\n      swap1\n      pop\n      jump\t// out\n        /* \"#utility.yul\":9093:9512   */\n    tag_108:\n        /* \"#utility.yul\":9259:9263   */\n      0x00\n        /* \"#utility.yul\":9297:9299   */\n      0x20\n        /* \"#utility.yul\":9286:9295   */\n      dup3\n        /* \"#utility.yul\":9282:9300   */\n      add\n        /* \"#utility.yul\":9274:9300   */\n      swap1\n      pop\n        /* \"#utility.yul\":9346:9355   */\n      dup2\n        /* \"#utility.yul\":9340:9344   */\n      dup2\n        /* \"#utility.yul\":9336:9356   */\n      sub\n        /* \"#utility.yul\":9332:9333   */\n      0x00\n        /* \"#utility.yul\":9321:9330   */\n      dup4\n        /* \"#utility.yul\":9317:9334   */\n      add\n        /* \"#utility.yul\":9310:9357   */\n      mstore\n        /* \"#utility.yul\":9374:9505   */\n      tag_279\n        /* \"#utility.yul\":9500:9504   */\n      dup2\n        /* \"#utility.yul\":9374:9505   */\n      tag_187\n      jump\t// in\n    tag_279:\n        /* \"#utility.yul\":9366:9505   */\n      swap1\n      pop\n        /* \"#utility.yul\":9093:9512   */\n      swap2\n      swap1\n      pop\n      jump\t// out\n        /* \"#utility.yul\":9518:9850   */\n    tag_110:\n        /* \"#utility.yul\":9639:9643   */\n      0x00\n        /* \"#utility.yul\":9677:9679   */\n      0x40\n        /* \"#utility.yul\":9666:9675   */\n      dup3\n        /* \"#utility.yul\":9662:9680   */\n      add\n        /* \"#utility.yul\":9654:9680   */\n      swap1\n      pop\n        /* \"#utility.yul\":9690:9761   */\n      tag_281\n        /* \"#utility.yul\":9758:9759   */\n      0x00\n        /* \"#utility.yul\":9747:9756   */\n      dup4\n        /* \"#utility.yul\":9743:9760   */\n      add\n        /* \"#utility.yul\":9734:9740   */\n      dup6\n        /* \"#utility.yul\":9690:9761   */\n      tag_165\n      jump\t// in\n    tag_281:\n        /* \"#utility.yul\":9771:9843   */\n      tag_282\n        /* \"#utility.yul\":9839:9841   */\n      0x20\n        /* \"#utility.yul\":9828:9837   */\n      dup4\n        /* \"#utility.yul\":9824:9842   */\n      add\n        /* \"#utility.yul\":9815:9821   */\n      dup5\n        /* \"#utility.yul\":9771:9843   */\n      tag_172\n      jump\t// in\n    tag_282:\n        /* \"#utility.yul\":9518:9850   */\n      swap4\n      swap3\n      pop\n      pop\n      pop\n      jump\t// out\n        /* \"#utility.yul\":9856:10080   */\n    tag_188:\n        /* \"#utility.yul\":9996:10030   */\n      0x796f7520686176656e277420656e6f7567682062616c616e6365206f6620546f\n        /* \"#utility.yul\":9992:9993   */\n      0x00\n        /* \"#utility.yul\":9984:9990   */\n      dup3\n        /* \"#utility.yul\":9980:9994   */\n      add\n        /* \"#utility.yul\":9973:10031   */\n      mstore\n        /* \"#utility.yul\":10065:10072   */\n      0x6b656e4120000000000000000000000000000000000000000000000000000000\n        /* \"#utility.yul\":10060:10062   */\n      0x20\n        /* \"#utility.yul\":10052:10058   */\n      dup3\n        /* \"#utility.yul\":10048:10063   */\n      add\n        /* \"#utility.yul\":10041:10073   */\n      mstore\n        /* \"#utility.yul\":9856:10080   */\n      pop\n      jump\t// out\n        /* \"#utility.yul\":10086:10452   */\n    tag_189:\n        /* \"#utility.yul\":10228:10231   */\n      0x00\n        /* \"#utility.yul\":10249:10316   */\n      tag_285\n        /* \"#utility.yul\":10313:10315   */\n      0x25\n        /* \"#utility.yul\":10308:10311   */\n      dup4\n        /* \"#utility.yul\":10249:10316   */\n      tag_174\n      jump\t// in\n    tag_285:\n        /* \"#utility.yul\":10242:10316   */\n      swap2\n      pop\n        /* \"#utility.yul\":10325:10418   */\n      tag_286\n        /* \"#utility.yul\":10414:10417   */\n      dup3\n        /* \"#utility.yul\":10325:10418   */\n      tag_188\n      jump\t// in\n    tag_286:\n        /* \"#utility.yul\":10443:10445   */\n      0x40\n        /* \"#utility.yul\":10438:10441   */\n      dup3\n        /* \"#utility.yul\":10434:10446   */\n      add\n        /* \"#utility.yul\":10427:10446   */\n      swap1\n      pop\n        /* \"#utility.yul\":10086:10452   */\n      swap2\n      swap1\n      pop\n      jump\t// out\n        /* \"#utility.yul\":10458:10877   */\n    tag_146:\n        /* \"#utility.yul\":10624:10628   */\n      0x00\n        /* \"#utility.yul\":10662:10664   */\n      0x20\n        /* \"#utility.yul\":10651:10660   */\n      dup3\n        /* \"#utility.yul\":10647:10665   */\n      add\n        /* \"#utility.yul\":10639:10665   */\n      swap1\n      pop\n        /* \"#utility.yul\":10711:10720   */\n      dup2\n        /* \"#utility.yul\":10705:10709   */\n      dup2\n        /* \"#utility.yul\":10701:10721   */\n      sub\n        /* \"#utility.yul\":10697:10698   */\n      0x00\n        /* \"#utility.yul\":10686:10695   */\n      dup4\n        /* \"#utility.yul\":10682:10699   */\n      add\n        /* \"#utility.yul\":10675:10722   */\n      mstore\n        /* \"#utility.yul\":10739:10870   */\n      tag_288\n        /* \"#utility.yul\":10865:10869   */\n      dup2\n        /* \"#utility.yul\":10739:10870   */\n      tag_189\n      jump\t// in\n    tag_288:\n        /* \"#utility.yul\":10731:10870   */\n      swap1\n      pop\n        /* \"#utility.yul\":10458:10877   */\n      swap2\n      swap1\n      pop\n      jump\t// out\n\n    auxdata: 0xa26469706673582212204bcef209da7db0ecd8fcc850f32a0a05555bac8e0922dbb9720b6a00c8976ceb64736f6c63430008140033\n}\n",
				"bytecode": {
					"linkReferences": {},
					"object": "608060405234801562000010575f80fd5b506040516200173d3803806200173d833981810160405281019062000036919062000163565b825f806101000a81548173ffffffffffffffffffffffffffffffffffffffff021916908373ffffffffffffffffffffffffffffffffffffffff1602179055508160015f6101000a81548173ffffffffffffffffffffffffffffffffffffffff021916908373ffffffffffffffffffffffffffffffffffffffff1602179055508060025f6101000a81548173ffffffffffffffffffffffffffffffffffffffff021916908373ffffffffffffffffffffffffffffffffffffffff160217905550505050620001bc565b5f80fd5b5f73ffffffffffffffffffffffffffffffffffffffff82169050919050565b5f6200012d8262000102565b9050919050565b6200013f8162000121565b81146200014a575f80fd5b50565b5f815190506200015d8162000134565b92915050565b5f805f606084860312156200017d576200017c620000fe565b5b5f6200018c868287016200014d565b93505060206200019f868287016200014d565b9250506040620001b2868287016200014d565b9150509250925092565b61157380620001ca5f395ff3fe608060405234801561000f575f80fd5b50600436106100a7575f3560e01c806351c6590a1161006f57806351c6590a146101565780635f64b55b14610172578063698518e51461019057806388d35559146101af578063b629640b146101cd578063c4a11910146101eb576100a7565b80630fc63d10146100ab5780631382e263146100c9578063193491b5146100fb57806343c93333146101195780634771218a14610137575b5f80fd5b6100b361021d565b6040516100c09190611014565b60405180910390f35b6100e360048036038101906100de9190611064565b610240565b6040516100f29392919061109e565b60405180910390f35b610103610567565b60405161011091906110d3565b60405180910390f35b61012161056d565b60405161012e91906110d3565b60405180910390f35b61013f610573565b60405161014d9291906110ec565b60405180910390f35b610170600480360381019061016b9190611064565b6106ad565b005b61017a610ad8565b6040516101879190611014565b60405180910390f35b610198610afd565b6040516101a69291906110ec565b60405180910390f35b6101b7610ca2565b6040516101c491906110d3565b60405180910390f35b6101d5610ca8565b6040516101e291906110d3565b60405180910390f35b61020560048036038101906102009190611064565b610cae565b6040516102149392919061109e565b60405180910390f35b5f8054906101000a900473ffffffffffffffffffffffffffffffffffffffff1681565b5f805f8360015f9054906101000a900473ffffffffffffffffffffffffffffffffffffffff1673ffffffffffffffffffffffffffffffffffffffff166370a08231336040518263ffffffff1660e01b815260040161029e9190611014565b602060405180830381865afa1580156102b9573d5f803e3d5ffd5b505050506040513d601f19601f820116820180604052508101906102dd9190611127565b101561031e576040517f08c379a0000000000000000000000000000000000000000000000000000000008152600401610315906111d2565b60405180910390fd5b5f6006548561032d919061121d565b90505f6005548261033e919061128b565b9050805f8054906101000a900473ffffffffffffffffffffffffffffffffffffffff1673ffffffffffffffffffffffffffffffffffffffff166370a08231306040518263ffffffff1660e01b81526004016103999190611014565b602060405180830381865afa1580156103b4573d5f803e3d5ffd5b505050506040513d601f19601f820116820180604052508101906103d89190611127565b1015610419576040517f08c379a000000000000000000000000000000000000000000000000000000000815260040161041090611305565b60405180910390fd5b60015f9054906101000a900473ffffffffffffffffffffffffffffffffffffffff1673ffffffffffffffffffffffffffffffffffffffff166323b872dd3330896040518463ffffffff1660e01b815260040161047793929190611323565b6020604051808303815f875af1158015610493573d5f803e3d5ffd5b505050506040513d601f19601f820116820180604052508101906104b7919061138d565b505f8054906101000a900473ffffffffffffffffffffffffffffffffffffffff1673ffffffffffffffffffffffffffffffffffffffff166323b872dd3033846040518463ffffffff1660e01b815260040161051493929190611323565b6020604051808303815f875af1158015610530573d5f803e3d5ffd5b505050506040513d601f19601f82011682018060405250810190610554919061138d565b5085828294509450945050509193909250565b60045481565b60065481565b5f805f8054906101000a900473ffffffffffffffffffffffffffffffffffffffff1673ffffffffffffffffffffffffffffffffffffffff166370a08231306040518263ffffffff1660e01b81526004016105cd9190611014565b602060405180830381865afa1580156105e8573d5f803e3d5ffd5b505050506040513d601f19601f8201168201806040525081019061060c9190611127565b60015f9054906101000a900473ffffffffffffffffffffffffffffffffffffffff1673ffffffffffffffffffffffffffffffffffffffff166370a08231306040518263ffffffff1660e01b81526004016106669190611014565b602060405180830381865afa158015610681573d5f803e3d5ffd5b505050506040513d601f19601f820116820180604052508101906106a59190611127565b915091509091565b805f8054906101000a900473ffffffffffffffffffffffffffffffffffffffff1673ffffffffffffffffffffffffffffffffffffffff166370a08231336040518263ffffffff1660e01b81526004016107069190611014565b602060405180830381865afa158015610721573d5f803e3d5ffd5b505050506040513d601f19601f820116820180604052508101906107459190611127565b1015610786576040517f08c379a000000000000000000000000000000000000000000000000000000000815260040161077d90611402565b60405180910390fd5b8060015f9054906101000a900473ffffffffffffffffffffffffffffffffffffffff1673ffffffffffffffffffffffffffffffffffffffff166370a08231336040518263ffffffff1660e01b81526004016107e19190611014565b602060405180830381865afa1580156107fc573d5f803e3d5ffd5b505050506040513d601f19601f820116820180604052508101906108209190611127565b1015610861576040517f08c379a00000000000000000000000000000000000000000000000000000000081526004016108589061146a565b60405180910390fd5b5f8054906101000a900473ffffffffffffffffffffffffffffffffffffffff1673ffffffffffffffffffffffffffffffffffffffff1663095ea7b330836040518363ffffffff1660e01b81526004016108bb929190611488565b6020604051808303815f875af11580156108d7573d5f803e3d5ffd5b505050506040513d601f19601f820116820180604052508101906108fb919061138d565b5060015f9054906101000a900473ffffffffffffffffffffffffffffffffffffffff1673ffffffffffffffffffffffffffffffffffffffff1663095ea7b330836040518363ffffffff1660e01b8152600401610958929190611488565b6020604051808303815f875af1158015610974573d5f803e3d5ffd5b505050506040513d601f19601f82011682018060405250810190610998919061138d565b505f8054906101000a900473ffffffffffffffffffffffffffffffffffffffff1673ffffffffffffffffffffffffffffffffffffffff166323b872dd3330846040518463ffffffff1660e01b81526004016109f593929190611323565b6020604051808303815f875af1158015610a11573d5f803e3d5ffd5b505050506040513d601f19601f82011682018060405250810190610a35919061138d565b5060015f9054906101000a900473ffffffffffffffffffffffffffffffffffffffff1673ffffffffffffffffffffffffffffffffffffffff166323b872dd3330846040518463ffffffff1660e01b8152600401610a9493929190611323565b6020604051808303815f875af1158015610ab0573d5f803e3d5ffd5b505050506040513d601f19601f82011682018060405250810190610ad4919061138d565b5050565b60015f9054906101000a900473ffffffffffffffffffffffffffffffffffffffff1681565b5f805f805f9054906101000a900473ffffffffffffffffffffffffffffffffffffffff1673ffffffffffffffffffffffffffffffffffffffff166370a08231306040518263ffffffff1660e01b8152600401610b599190611014565b602060405180830381865afa158015610b74573d5f803e3d5ffd5b505050506040513d601f19601f82011682018060405250810190610b989190611127565b90505f60015f9054906101000a900473ffffffffffffffffffffffffffffffffffffffff1673ffffffffffffffffffffffffffffffffffffffff166370a08231306040518263ffffffff1660e01b8152600401610bf59190611014565b602060405180830381865afa158015610c10573d5f803e3d5ffd5b505050506040513d601f19601f82011682018060405250810190610c349190611127565b9050670de0b6b3a764000082610c4a919061121d565b600381905550670de0b6b3a764000081610c64919061121d565b60048190555060045482610c78919061128b565b60058190555060035481610c8c919061128b565b6006819055506005546006549350935050509091565b60055481565b60035481565b5f805f835f8054906101000a900473ffffffffffffffffffffffffffffffffffffffff1673ffffffffffffffffffffffffffffffffffffffff166370a08231336040518263ffffffff1660e01b8152600401610d0a9190611014565b602060405180830381865afa158015610d25573d5f803e3d5ffd5b505050506040513d601f19601f82011682018060405250810190610d499190611127565b1015610d8a576040517f08c379a0000000000000000000000000000000000000000000000000000000008152600401610d819061151f565b60405180910390fd5b5f60055485610d99919061121d565b90505f60065482610daa919061128b565b90508060015f9054906101000a900473ffffffffffffffffffffffffffffffffffffffff1673ffffffffffffffffffffffffffffffffffffffff166370a08231306040518263ffffffff1660e01b8152600401610e079190611014565b602060405180830381865afa158015610e22573d5f803e3d5ffd5b505050506040513d601f19601f82011682018060405250810190610e469190611127565b1015610e87576040517f08c379a0000000000000000000000000000000000000000000000000000000008152600401610e7e90611305565b60405180910390fd5b5f8054906101000a900473ffffffffffffffffffffffffffffffffffffffff1673ffffffffffffffffffffffffffffffffffffffff166323b872dd3330896040518463ffffffff1660e01b8152600401610ee393929190611323565b6020604051808303815f875af1158015610eff573d5f803e3d5ffd5b505050506040513d601f19601f82011682018060405250810190610f23919061138d565b5060015f9054906101000a900473ffffffffffffffffffffffffffffffffffffffff1673ffffffffffffffffffffffffffffffffffffffff166323b872dd3033846040518463ffffffff1660e01b8152600401610f8293929190611323565b6020604051808303815f875af1158015610f9e573d5f803e3d5ffd5b505050506040513d601f19601f82011682018060405250810190610fc2919061138d565b5085828294509450945050509193909250565b5f73ffffffffffffffffffffffffffffffffffffffff82169050919050565b5f610ffe82610fd5565b9050919050565b61100e81610ff4565b82525050565b5f6020820190506110275f830184611005565b92915050565b5f80fd5b5f819050919050565b61104381611031565b811461104d575f80fd5b50565b5f8135905061105e8161103a565b92915050565b5f602082840312156110795761107861102d565b5b5f61108684828501611050565b91505092915050565b61109881611031565b82525050565b5f6060820190506110b15f83018661108f565b6110be602083018561108f565b6110cb604083018461108f565b949350505050565b5f6020820190506110e65f83018461108f565b92915050565b5f6040820190506110ff5f83018561108f565b61110c602083018461108f565b9392505050565b5f815190506111218161103a565b92915050565b5f6020828403121561113c5761113b61102d565b5b5f61114984828501611113565b91505092915050565b5f82825260208201905092915050565b7f596f7520686176656e277420656e6f7567682062616c616e6365206f6620546f5f8201527f6b656e4220000000000000000000000000000000000000000000000000000000602082015250565b5f6111bc602583611152565b91506111c782611162565b604082019050919050565b5f6020820190508181035f8301526111e9816111b0565b9050919050565b7f4e487b71000000000000000000000000000000000000000000000000000000005f52601160045260245ffd5b5f61122782611031565b915061123283611031565b925082820261124081611031565b91508282048414831517611257576112566111f0565b5b5092915050565b7f4e487b71000000000000000000000000000000000000000000000000000000005f52601260045260245ffd5b5f61129582611031565b91506112a083611031565b9250826112b0576112af61125e565b5b828204905092915050565b7f5468657265206973206e6f7420656e6f756768204c69717569646974790000005f82015250565b5f6112ef601d83611152565b91506112fa826112bb565b602082019050919050565b5f6020820190508181035f83015261131c816112e3565b9050919050565b5f6060820190506113365f830186611005565b6113436020830185611005565b611350604083018461108f565b949350505050565b5f8115159050919050565b61136c81611358565b8114611376575f80fd5b50565b5f8151905061138781611363565b92915050565b5f602082840312156113a2576113a161102d565b5b5f6113af84828501611379565b91505092915050565b7f4e6f7420656e6f75676820546f6b656e410000000000000000000000000000005f82015250565b5f6113ec601183611152565b91506113f7826113b8565b602082019050919050565b5f6020820190508181035f830152611419816113e0565b9050919050565b7f4e6f7420656e6f75676820546f6b656e420000000000000000000000000000005f82015250565b5f611454601183611152565b915061145f82611420565b602082019050919050565b5f6020820190508181035f83015261148181611448565b9050919050565b5f60408201905061149b5f830185611005565b6114a8602083018461108f565b9392505050565b7f796f7520686176656e277420656e6f7567682062616c616e6365206f6620546f5f8201527f6b656e4120000000000000000000000000000000000000000000000000000000602082015250565b5f611509602583611152565b9150611514826114af565b604082019050919050565b5f6020820190508181035f830152611536816114fd565b905091905056fea26469706673582212204bcef209da7db0ecd8fcc850f32a0a05555bac8e0922dbb9720b6a00c8976ceb64736f6c63430008140033",
					"opcodes": "PUSH1 0x80 PUSH1 0x40 MSTORE CALLVALUE DUP1 ISZERO PUSH3 0x10 JUMPI PUSH0 DUP1 REVERT JUMPDEST POP PUSH1 0x40 MLOAD PUSH3 0x173D CODESIZE SUB DUP1 PUSH3 0x173D DUP4 CODECOPY DUP2 DUP2 ADD PUSH1 0x40 MSTORE DUP2 ADD SWAP1 PUSH3 0x36 SWAP2 SWAP1 PUSH3 0x163 JUMP JUMPDEST DUP3 PUSH0 DUP1 PUSH2 0x100 EXP DUP2 SLOAD DUP2 PUSH20 0xFFFFFFFFFFFFFFFFFFFFFFFFFFFFFFFFFFFFFFFF MUL NOT AND SWAP1 DUP4 PUSH20 0xFFFFFFFFFFFFFFFFFFFFFFFFFFFFFFFFFFFFFFFF AND MUL OR SWAP1 SSTORE POP DUP2 PUSH1 0x1 PUSH0 PUSH2 0x100 EXP DUP2 SLOAD DUP2 PUSH20 0xFFFFFFFFFFFFFFFFFFFFFFFFFFFFFFFFFFFFFFFF MUL NOT AND SWAP1 DUP4 PUSH20 0xFFFFFFFFFFFFFFFFFFFFFFFFFFFFFFFFFFFFFFFF AND MUL OR SWAP1 SSTORE POP DUP1 PUSH1 0x2 PUSH0 PUSH2 0x100 EXP DUP2 SLOAD DUP2 PUSH20 0xFFFFFFFFFFFFFFFFFFFFFFFFFFFFFFFFFFFFFFFF MUL NOT AND SWAP1 DUP4 PUSH20 0xFFFFFFFFFFFFFFFFFFFFFFFFFFFFFFFFFFFFFFFF AND MUL OR SWAP1 SSTORE POP POP POP POP PUSH3 0x1BC JUMP JUMPDEST PUSH0 DUP1 REVERT JUMPDEST PUSH0 PUSH20 0xFFFFFFFFFFFFFFFFFFFFFFFFFFFFFFFFFFFFFFFF DUP3 AND SWAP1 POP SWAP2 SWAP1 POP JUMP JUMPDEST PUSH0 PUSH3 0x12D DUP3 PUSH3 0x102 JUMP JUMPDEST SWAP1 POP SWAP2 SWAP1 POP JUMP JUMPDEST PUSH3 0x13F DUP2 PUSH3 0x121 JUMP JUMPDEST DUP2 EQ PUSH3 0x14A JUMPI PUSH0 DUP1 REVERT JUMPDEST POP JUMP JUMPDEST PUSH0 DUP2 MLOAD SWAP1 POP PUSH3 0x15D DUP2 PUSH3 0x134 JUMP JUMPDEST SWAP3 SWAP2 POP POP JUMP JUMPDEST PUSH0 DUP1 PUSH0 PUSH1 0x60 DUP5 DUP7 SUB SLT ISZERO PUSH3 0x17D JUMPI PUSH3 0x17C PUSH3 0xFE JUMP JUMPDEST JUMPDEST PUSH0 PUSH3 0x18C DUP7 DUP3 DUP8 ADD PUSH3 0x14D JUMP JUMPDEST SWAP4 POP POP PUSH1 0x20 PUSH3 0x19F DUP7 DUP3 DUP8 ADD PUSH3 0x14D JUMP JUMPDEST SWAP3 POP POP PUSH1 0x40 PUSH3 0x1B2 DUP7 DUP3 DUP8 ADD PUSH3 0x14D JUMP JUMPDEST SWAP2 POP POP SWAP3 POP SWAP3 POP SWAP3 JUMP JUMPDEST PUSH2 0x1573 DUP1 PUSH3 0x1CA PUSH0 CODECOPY PUSH0 RETURN INVALID PUSH1 0x80 PUSH1 0x40 MSTORE CALLVALUE DUP1 ISZERO PUSH2 0xF JUMPI PUSH0 DUP1 REVERT JUMPDEST POP PUSH1 0x4 CALLDATASIZE LT PUSH2 0xA7 JUMPI PUSH0 CALLDATALOAD PUSH1 0xE0 SHR DUP1 PUSH4 0x51C6590A GT PUSH2 0x6F JUMPI DUP1 PUSH4 0x51C6590A EQ PUSH2 0x156 JUMPI DUP1 PUSH4 0x5F64B55B EQ PUSH2 0x172 JUMPI DUP1 PUSH4 0x698518E5 EQ PUSH2 0x190 JUMPI DUP1 PUSH4 0x88D35559 EQ PUSH2 0x1AF JUMPI DUP1 PUSH4 0xB629640B EQ PUSH2 0x1CD JUMPI DUP1 PUSH4 0xC4A11910 EQ PUSH2 0x1EB JUMPI PUSH2 0xA7 JUMP JUMPDEST DUP1 PUSH4 0xFC63D10 EQ PUSH2 0xAB JUMPI DUP1 PUSH4 0x1382E263 EQ PUSH2 0xC9 JUMPI DUP1 PUSH4 0x193491B5 EQ PUSH2 0xFB JUMPI DUP1 PUSH4 0x43C93333 EQ PUSH2 0x119 JUMPI DUP1 PUSH4 0x4771218A EQ PUSH2 0x137 JUMPI JUMPDEST PUSH0 DUP1 REVERT JUMPDEST PUSH2 0xB3 PUSH2 0x21D JUMP JUMPDEST PUSH1 0x40 MLOAD PUSH2 0xC0 SWAP2 SWAP1 PUSH2 0x1014 JUMP JUMPDEST PUSH1 0x40 MLOAD DUP1 SWAP2 SUB SWAP1 RETURN JUMPDEST PUSH2 0xE3 PUSH1 0x4 DUP1 CALLDATASIZE SUB DUP2 ADD SWAP1 PUSH2 0xDE SWAP2 SWAP1 PUSH2 0x1064 JUMP JUMPDEST PUSH2 0x240 JUMP JUMPDEST PUSH1 0x40 MLOAD PUSH2 0xF2 SWAP4 SWAP3 SWAP2 SWAP1 PUSH2 0x109E JUMP JUMPDEST PUSH1 0x40 MLOAD DUP1 SWAP2 SUB SWAP1 RETURN JUMPDEST PUSH2 0x103 PUSH2 0x567 JUMP JUMPDEST PUSH1 0x40 MLOAD PUSH2 0x110 SWAP2 SWAP1 PUSH2 0x10D3 JUMP JUMPDEST PUSH1 0x40 MLOAD DUP1 SWAP2 SUB SWAP1 RETURN JUMPDEST PUSH2 0x121 PUSH2 0x56D JUMP JUMPDEST PUSH1 0x40 MLOAD PUSH2 0x12E SWAP2 SWAP1 PUSH2 0x10D3 JUMP JUMPDEST PUSH1 0x40 MLOAD DUP1 SWAP2 SUB SWAP1 RETURN JUMPDEST PUSH2 0x13F PUSH2 0x573 JUMP JUMPDEST PUSH1 0x40 MLOAD PUSH2 0x14D SWAP3 SWAP2 SWAP1 PUSH2 0x10EC JUMP JUMPDEST PUSH1 0x40 MLOAD DUP1 SWAP2 SUB SWAP1 RETURN JUMPDEST PUSH2 0x170 PUSH1 0x4 DUP1 CALLDATASIZE SUB DUP2 ADD SWAP1 PUSH2 0x16B SWAP2 SWAP1 PUSH2 0x1064 JUMP JUMPDEST PUSH2 0x6AD JUMP JUMPDEST STOP JUMPDEST PUSH2 0x17A PUSH2 0xAD8 JUMP JUMPDEST PUSH1 0x40 MLOAD PUSH2 0x187 SWAP2 SWAP1 PUSH2 0x1014 JUMP JUMPDEST PUSH1 0x40 MLOAD DUP1 SWAP2 SUB SWAP1 RETURN JUMPDEST PUSH2 0x198 PUSH2 0xAFD JUMP JUMPDEST PUSH1 0x40 MLOAD PUSH2 0x1A6 SWAP3 SWAP2 SWAP1 PUSH2 0x10EC JUMP JUMPDEST PUSH1 0x40 MLOAD DUP1 SWAP2 SUB SWAP1 RETURN JUMPDEST PUSH2 0x1B7 PUSH2 0xCA2 JUMP JUMPDEST PUSH1 0x40 MLOAD PUSH2 0x1C4 SWAP2 SWAP1 PUSH2 0x10D3 JUMP JUMPDEST PUSH1 0x40 MLOAD DUP1 SWAP2 SUB SWAP1 RETURN JUMPDEST PUSH2 0x1D5 PUSH2 0xCA8 JUMP JUMPDEST PUSH1 0x40 MLOAD PUSH2 0x1E2 SWAP2 SWAP1 PUSH2 0x10D3 JUMP JUMPDEST PUSH1 0x40 MLOAD DUP1 SWAP2 SUB SWAP1 RETURN JUMPDEST PUSH2 0x205 PUSH1 0x4 DUP1 CALLDATASIZE SUB DUP2 ADD SWAP1 PUSH2 0x200 SWAP2 SWAP1 PUSH2 0x1064 JUMP JUMPDEST PUSH2 0xCAE JUMP JUMPDEST PUSH1 0x40 MLOAD PUSH2 0x214 SWAP4 SWAP3 SWAP2 SWAP1 PUSH2 0x109E JUMP JUMPDEST PUSH1 0x40 MLOAD DUP1 SWAP2 SUB SWAP1 RETURN JUMPDEST PUSH0 DUP1 SLOAD SWAP1 PUSH2 0x100 EXP SWAP1 DIV PUSH20 0xFFFFFFFFFFFFFFFFFFFFFFFFFFFFFFFFFFFFFFFF AND DUP2 JUMP JUMPDEST PUSH0 DUP1 PUSH0 DUP4 PUSH1 0x1 PUSH0 SWAP1 SLOAD SWAP1 PUSH2 0x100 EXP SWAP1 DIV PUSH20 0xFFFFFFFFFFFFFFFFFFFFFFFFFFFFFFFFFFFFFFFF AND PUSH20 0xFFFFFFFFFFFFFFFFFFFFFFFFFFFFFFFFFFFFFFFF AND PUSH4 0x70A08231 CALLER PUSH1 0x40 MLOAD DUP3 PUSH4 0xFFFFFFFF AND PUSH1 0xE0 SHL DUP2 MSTORE PUSH1 0x4 ADD PUSH2 0x29E SWAP2 SWAP1 PUSH2 0x1014 JUMP JUMPDEST PUSH1 0x20 PUSH1 0x40 MLOAD DUP1 DUP4 SUB DUP2 DUP7 GAS STATICCALL ISZERO DUP1 ISZERO PUSH2 0x2B9 JUMPI RETURNDATASIZE PUSH0 DUP1 RETURNDATACOPY RETURNDATASIZE PUSH0 REVERT JUMPDEST POP POP POP POP PUSH1 0x40 MLOAD RETURNDATASIZE PUSH1 0x1F NOT PUSH1 0x1F DUP3 ADD AND DUP3 ADD DUP1 PUSH1 0x40 MSTORE POP DUP2 ADD SWAP1 PUSH2 0x2DD SWAP2 SWAP1 PUSH2 0x1127 JUMP JUMPDEST LT ISZERO PUSH2 0x31E JUMPI PUSH1 0x40 MLOAD PUSH32 0x8C379A000000000000000000000000000000000000000000000000000000000 DUP2 MSTORE PUSH1 0x4 ADD PUSH2 0x315 SWAP1 PUSH2 0x11D2 JUMP JUMPDEST PUSH1 0x40 MLOAD DUP1 SWAP2 SUB SWAP1 REVERT JUMPDEST PUSH0 PUSH1 0x6 SLOAD DUP6 PUSH2 0x32D SWAP2 SWAP1 PUSH2 0x121D JUMP JUMPDEST SWAP1 POP PUSH0 PUSH1 0x5 SLOAD DUP3 PUSH2 0x33E SWAP2 SWAP1 PUSH2 0x128B JUMP JUMPDEST SWAP1 POP DUP1 PUSH0 DUP1 SLOAD SWAP1 PUSH2 0x100 EXP SWAP1 DIV PUSH20 0xFFFFFFFFFFFFFFFFFFFFFFFFFFFFFFFFFFFFFFFF AND PUSH20 0xFFFFFFFFFFFFFFFFFFFFFFFFFFFFFFFFFFFFFFFF AND PUSH4 0x70A08231 ADDRESS PUSH1 0x40 MLOAD DUP3 PUSH4 0xFFFFFFFF AND PUSH1 0xE0 SHL DUP2 MSTORE PUSH1 0x4 ADD PUSH2 0x399 SWAP2 SWAP1 PUSH2 0x1014 JUMP JUMPDEST PUSH1 0x20 PUSH1 0x40 MLOAD DUP1 DUP4 SUB DUP2 DUP7 GAS STATICCALL ISZERO DUP1 ISZERO PUSH2 0x3B4 JUMPI RETURNDATASIZE PUSH0 DUP1 RETURNDATACOPY RETURNDATASIZE PUSH0 REVERT JUMPDEST POP POP POP POP PUSH1 0x40 MLOAD RETURNDATASIZE PUSH1 0x1F NOT PUSH1 0x1F DUP3 ADD AND DUP3 ADD DUP1 PUSH1 0x40 MSTORE POP DUP2 ADD SWAP1 PUSH2 0x3D8 SWAP2 SWAP1 PUSH2 0x1127 JUMP JUMPDEST LT ISZERO PUSH2 0x419 JUMPI PUSH1 0x40 MLOAD PUSH32 0x8C379A000000000000000000000000000000000000000000000000000000000 DUP2 MSTORE PUSH1 0x4 ADD PUSH2 0x410 SWAP1 PUSH2 0x1305 JUMP JUMPDEST PUSH1 0x40 MLOAD DUP1 SWAP2 SUB SWAP1 REVERT JUMPDEST PUSH1 0x1 PUSH0 SWAP1 SLOAD SWAP1 PUSH2 0x100 EXP SWAP1 DIV PUSH20 0xFFFFFFFFFFFFFFFFFFFFFFFFFFFFFFFFFFFFFFFF AND PUSH20 0xFFFFFFFFFFFFFFFFFFFFFFFFFFFFFFFFFFFFFFFF AND PUSH4 0x23B872DD CALLER ADDRESS DUP10 PUSH1 0x40 MLOAD DUP5 PUSH4 0xFFFFFFFF AND PUSH1 0xE0 SHL DUP2 MSTORE PUSH1 0x4 ADD PUSH2 0x477 SWAP4 SWAP3 SWAP2 SWAP1 PUSH2 0x1323 JUMP JUMPDEST PUSH1 0x20 PUSH1 0x40 MLOAD DUP1 DUP4 SUB DUP2 PUSH0 DUP8 GAS CALL ISZERO DUP1 ISZERO PUSH2 0x493 JUMPI RETURNDATASIZE PUSH0 DUP1 RETURNDATACOPY RETURNDATASIZE PUSH0 REVERT JUMPDEST POP POP POP POP PUSH1 0x40 MLOAD RETURNDATASIZE PUSH1 0x1F NOT PUSH1 0x1F DUP3 ADD AND DUP3 ADD DUP1 PUSH1 0x40 MSTORE POP DUP2 ADD SWAP1 PUSH2 0x4B7 SWAP2 SWAP1 PUSH2 0x138D JUMP JUMPDEST POP PUSH0 DUP1 SLOAD SWAP1 PUSH2 0x100 EXP SWAP1 DIV PUSH20 0xFFFFFFFFFFFFFFFFFFFFFFFFFFFFFFFFFFFFFFFF AND PUSH20 0xFFFFFFFFFFFFFFFFFFFFFFFFFFFFFFFFFFFFFFFF AND PUSH4 0x23B872DD ADDRESS CALLER DUP5 PUSH1 0x40 MLOAD DUP5 PUSH4 0xFFFFFFFF AND PUSH1 0xE0 SHL DUP2 MSTORE PUSH1 0x4 ADD PUSH2 0x514 SWAP4 SWAP3 SWAP2 SWAP1 PUSH2 0x1323 JUMP JUMPDEST PUSH1 0x20 PUSH1 0x40 MLOAD DUP1 DUP4 SUB DUP2 PUSH0 DUP8 GAS CALL ISZERO DUP1 ISZERO PUSH2 0x530 JUMPI RETURNDATASIZE PUSH0 DUP1 RETURNDATACOPY RETURNDATASIZE PUSH0 REVERT JUMPDEST POP POP POP POP PUSH1 0x40 MLOAD RETURNDATASIZE PUSH1 0x1F NOT PUSH1 0x1F DUP3 ADD AND DUP3 ADD DUP1 PUSH1 0x40 MSTORE POP DUP2 ADD SWAP1 PUSH2 0x554 SWAP2 SWAP1 PUSH2 0x138D JUMP JUMPDEST POP DUP6 DUP3 DUP3 SWAP5 POP SWAP5 POP SWAP5 POP POP POP SWAP2 SWAP4 SWAP1 SWAP3 POP JUMP JUMPDEST PUSH1 0x4 SLOAD DUP2 JUMP JUMPDEST PUSH1 0x6 SLOAD DUP2 JUMP JUMPDEST PUSH0 DUP1 PUSH0 DUP1 SLOAD SWAP1 PUSH2 0x100 EXP SWAP1 DIV PUSH20 0xFFFFFFFFFFFFFFFFFFFFFFFFFFFFFFFFFFFFFFFF AND PUSH20 0xFFFFFFFFFFFFFFFFFFFFFFFFFFFFFFFFFFFFFFFF AND PUSH4 0x70A08231 ADDRESS PUSH1 0x40 MLOAD DUP3 PUSH4 0xFFFFFFFF AND PUSH1 0xE0 SHL DUP2 MSTORE PUSH1 0x4 ADD PUSH2 0x5CD SWAP2 SWAP1 PUSH2 0x1014 JUMP JUMPDEST PUSH1 0x20 PUSH1 0x40 MLOAD DUP1 DUP4 SUB DUP2 DUP7 GAS STATICCALL ISZERO DUP1 ISZERO PUSH2 0x5E8 JUMPI RETURNDATASIZE PUSH0 DUP1 RETURNDATACOPY RETURNDATASIZE PUSH0 REVERT JUMPDEST POP POP POP POP PUSH1 0x40 MLOAD RETURNDATASIZE PUSH1 0x1F NOT PUSH1 0x1F DUP3 ADD AND DUP3 ADD DUP1 PUSH1 0x40 MSTORE POP DUP2 ADD SWAP1 PUSH2 0x60C SWAP2 SWAP1 PUSH2 0x1127 JUMP JUMPDEST PUSH1 0x1 PUSH0 SWAP1 SLOAD SWAP1 PUSH2 0x100 EXP SWAP1 DIV PUSH20 0xFFFFFFFFFFFFFFFFFFFFFFFFFFFFFFFFFFFFFFFF AND PUSH20 0xFFFFFFFFFFFFFFFFFFFFFFFFFFFFFFFFFFFFFFFF AND PUSH4 0x70A08231 ADDRESS PUSH1 0x40 MLOAD DUP3 PUSH4 0xFFFFFFFF AND PUSH1 0xE0 SHL DUP2 MSTORE PUSH1 0x4 ADD PUSH2 0x666 SWAP2 SWAP1 PUSH2 0x1014 JUMP JUMPDEST PUSH1 0x20 PUSH1 0x40 MLOAD DUP1 DUP4 SUB DUP2 DUP7 GAS STATICCALL ISZERO DUP1 ISZERO PUSH2 0x681 JUMPI RETURNDATASIZE PUSH0 DUP1 RETURNDATACOPY RETURNDATASIZE PUSH0 REVERT JUMPDEST POP POP POP POP PUSH1 0x40 MLOAD RETURNDATASIZE PUSH1 0x1F NOT PUSH1 0x1F DUP3 ADD AND DUP3 ADD DUP1 PUSH1 0x40 MSTORE POP DUP2 ADD SWAP1 PUSH2 0x6A5 SWAP2 SWAP1 PUSH2 0x1127 JUMP JUMPDEST SWAP2 POP SWAP2 POP SWAP1 SWAP2 JUMP JUMPDEST DUP1 PUSH0 DUP1 SLOAD SWAP1 PUSH2 0x100 EXP SWAP1 DIV PUSH20 0xFFFFFFFFFFFFFFFFFFFFFFFFFFFFFFFFFFFFFFFF AND PUSH20 0xFFFFFFFFFFFFFFFFFFFFFFFFFFFFFFFFFFFFFFFF AND PUSH4 0x70A08231 CALLER PUSH1 0x40 MLOAD DUP3 PUSH4 0xFFFFFFFF AND PUSH1 0xE0 SHL DUP2 MSTORE PUSH1 0x4 ADD PUSH2 0x706 SWAP2 SWAP1 PUSH2 0x1014 JUMP JUMPDEST PUSH1 0x20 PUSH1 0x40 MLOAD DUP1 DUP4 SUB DUP2 DUP7 GAS STATICCALL ISZERO DUP1 ISZERO PUSH2 0x721 JUMPI RETURNDATASIZE PUSH0 DUP1 RETURNDATACOPY RETURNDATASIZE PUSH0 REVERT JUMPDEST POP POP POP POP PUSH1 0x40 MLOAD RETURNDATASIZE PUSH1 0x1F NOT PUSH1 0x1F DUP3 ADD AND DUP3 ADD DUP1 PUSH1 0x40 MSTORE POP DUP2 ADD SWAP1 PUSH2 0x745 SWAP2 SWAP1 PUSH2 0x1127 JUMP JUMPDEST LT ISZERO PUSH2 0x786 JUMPI PUSH1 0x40 MLOAD PUSH32 0x8C379A000000000000000000000000000000000000000000000000000000000 DUP2 MSTORE PUSH1 0x4 ADD PUSH2 0x77D SWAP1 PUSH2 0x1402 JUMP JUMPDEST PUSH1 0x40 MLOAD DUP1 SWAP2 SUB SWAP1 REVERT JUMPDEST DUP1 PUSH1 0x1 PUSH0 SWAP1 SLOAD SWAP1 PUSH2 0x100 EXP SWAP1 DIV PUSH20 0xFFFFFFFFFFFFFFFFFFFFFFFFFFFFFFFFFFFFFFFF AND PUSH20 0xFFFFFFFFFFFFFFFFFFFFFFFFFFFFFFFFFFFFFFFF AND PUSH4 0x70A08231 CALLER PUSH1 0x40 MLOAD DUP3 PUSH4 0xFFFFFFFF AND PUSH1 0xE0 SHL DUP2 MSTORE PUSH1 0x4 ADD PUSH2 0x7E1 SWAP2 SWAP1 PUSH2 0x1014 JUMP JUMPDEST PUSH1 0x20 PUSH1 0x40 MLOAD DUP1 DUP4 SUB DUP2 DUP7 GAS STATICCALL ISZERO DUP1 ISZERO PUSH2 0x7FC JUMPI RETURNDATASIZE PUSH0 DUP1 RETURNDATACOPY RETURNDATASIZE PUSH0 REVERT JUMPDEST POP POP POP POP PUSH1 0x40 MLOAD RETURNDATASIZE PUSH1 0x1F NOT PUSH1 0x1F DUP3 ADD AND DUP3 ADD DUP1 PUSH1 0x40 MSTORE POP DUP2 ADD SWAP1 PUSH2 0x820 SWAP2 SWAP1 PUSH2 0x1127 JUMP JUMPDEST LT ISZERO PUSH2 0x861 JUMPI PUSH1 0x40 MLOAD PUSH32 0x8C379A000000000000000000000000000000000000000000000000000000000 DUP2 MSTORE PUSH1 0x4 ADD PUSH2 0x858 SWAP1 PUSH2 0x146A JUMP JUMPDEST PUSH1 0x40 MLOAD DUP1 SWAP2 SUB SWAP1 REVERT JUMPDEST PUSH0 DUP1 SLOAD SWAP1 PUSH2 0x100 EXP SWAP1 DIV PUSH20 0xFFFFFFFFFFFFFFFFFFFFFFFFFFFFFFFFFFFFFFFF AND PUSH20 0xFFFFFFFFFFFFFFFFFFFFFFFFFFFFFFFFFFFFFFFF AND PUSH4 0x95EA7B3 ADDRESS DUP4 PUSH1 0x40 MLOAD DUP4 PUSH4 0xFFFFFFFF AND PUSH1 0xE0 SHL DUP2 MSTORE PUSH1 0x4 ADD PUSH2 0x8BB SWAP3 SWAP2 SWAP1 PUSH2 0x1488 JUMP JUMPDEST PUSH1 0x20 PUSH1 0x40 MLOAD DUP1 DUP4 SUB DUP2 PUSH0 DUP8 GAS CALL ISZERO DUP1 ISZERO PUSH2 0x8D7 JUMPI RETURNDATASIZE PUSH0 DUP1 RETURNDATACOPY RETURNDATASIZE PUSH0 REVERT JUMPDEST POP POP POP POP PUSH1 0x40 MLOAD RETURNDATASIZE PUSH1 0x1F NOT PUSH1 0x1F DUP3 ADD AND DUP3 ADD DUP1 PUSH1 0x40 MSTORE POP DUP2 ADD SWAP1 PUSH2 0x8FB SWAP2 SWAP1 PUSH2 0x138D JUMP JUMPDEST POP PUSH1 0x1 PUSH0 SWAP1 SLOAD SWAP1 PUSH2 0x100 EXP SWAP1 DIV PUSH20 0xFFFFFFFFFFFFFFFFFFFFFFFFFFFFFFFFFFFFFFFF AND PUSH20 0xFFFFFFFFFFFFFFFFFFFFFFFFFFFFFFFFFFFFFFFF AND PUSH4 0x95EA7B3 ADDRESS DUP4 PUSH1 0x40 MLOAD DUP4 PUSH4 0xFFFFFFFF AND PUSH1 0xE0 SHL DUP2 MSTORE PUSH1 0x4 ADD PUSH2 0x958 SWAP3 SWAP2 SWAP1 PUSH2 0x1488 JUMP JUMPDEST PUSH1 0x20 PUSH1 0x40 MLOAD DUP1 DUP4 SUB DUP2 PUSH0 DUP8 GAS CALL ISZERO DUP1 ISZERO PUSH2 0x974 JUMPI RETURNDATASIZE PUSH0 DUP1 RETURNDATACOPY RETURNDATASIZE PUSH0 REVERT JUMPDEST POP POP POP POP PUSH1 0x40 MLOAD RETURNDATASIZE PUSH1 0x1F NOT PUSH1 0x1F DUP3 ADD AND DUP3 ADD DUP1 PUSH1 0x40 MSTORE POP DUP2 ADD SWAP1 PUSH2 0x998 SWAP2 SWAP1 PUSH2 0x138D JUMP JUMPDEST POP PUSH0 DUP1 SLOAD SWAP1 PUSH2 0x100 EXP SWAP1 DIV PUSH20 0xFFFFFFFFFFFFFFFFFFFFFFFFFFFFFFFFFFFFFFFF AND PUSH20 0xFFFFFFFFFFFFFFFFFFFFFFFFFFFFFFFFFFFFFFFF AND PUSH4 0x23B872DD CALLER ADDRESS DUP5 PUSH1 0x40 MLOAD DUP5 PUSH4 0xFFFFFFFF AND PUSH1 0xE0 SHL DUP2 MSTORE PUSH1 0x4 ADD PUSH2 0x9F5 SWAP4 SWAP3 SWAP2 SWAP1 PUSH2 0x1323 JUMP JUMPDEST PUSH1 0x20 PUSH1 0x40 MLOAD DUP1 DUP4 SUB DUP2 PUSH0 DUP8 GAS CALL ISZERO DUP1 ISZERO PUSH2 0xA11 JUMPI RETURNDATASIZE PUSH0 DUP1 RETURNDATACOPY RETURNDATASIZE PUSH0 REVERT JUMPDEST POP POP POP POP PUSH1 0x40 MLOAD RETURNDATASIZE PUSH1 0x1F NOT PUSH1 0x1F DUP3 ADD AND DUP3 ADD DUP1 PUSH1 0x40 MSTORE POP DUP2 ADD SWAP1 PUSH2 0xA35 SWAP2 SWAP1 PUSH2 0x138D JUMP JUMPDEST POP PUSH1 0x1 PUSH0 SWAP1 SLOAD SWAP1 PUSH2 0x100 EXP SWAP1 DIV PUSH20 0xFFFFFFFFFFFFFFFFFFFFFFFFFFFFFFFFFFFFFFFF AND PUSH20 0xFFFFFFFFFFFFFFFFFFFFFFFFFFFFFFFFFFFFFFFF AND PUSH4 0x23B872DD CALLER ADDRESS DUP5 PUSH1 0x40 MLOAD DUP5 PUSH4 0xFFFFFFFF AND PUSH1 0xE0 SHL DUP2 MSTORE PUSH1 0x4 ADD PUSH2 0xA94 SWAP4 SWAP3 SWAP2 SWAP1 PUSH2 0x1323 JUMP JUMPDEST PUSH1 0x20 PUSH1 0x40 MLOAD DUP1 DUP4 SUB DUP2 PUSH0 DUP8 GAS CALL ISZERO DUP1 ISZERO PUSH2 0xAB0 JUMPI RETURNDATASIZE PUSH0 DUP1 RETURNDATACOPY RETURNDATASIZE PUSH0 REVERT JUMPDEST POP POP POP POP PUSH1 0x40 MLOAD RETURNDATASIZE PUSH1 0x1F NOT PUSH1 0x1F DUP3 ADD AND DUP3 ADD DUP1 PUSH1 0x40 MSTORE POP DUP2 ADD SWAP1 PUSH2 0xAD4 SWAP2 SWAP1 PUSH2 0x138D JUMP JUMPDEST POP POP JUMP JUMPDEST PUSH1 0x1 PUSH0 SWAP1 SLOAD SWAP1 PUSH2 0x100 EXP SWAP1 DIV PUSH20 0xFFFFFFFFFFFFFFFFFFFFFFFFFFFFFFFFFFFFFFFF AND DUP2 JUMP JUMPDEST PUSH0 DUP1 PUSH0 DUP1 PUSH0 SWAP1 SLOAD SWAP1 PUSH2 0x100 EXP SWAP1 DIV PUSH20 0xFFFFFFFFFFFFFFFFFFFFFFFFFFFFFFFFFFFFFFFF AND PUSH20 0xFFFFFFFFFFFFFFFFFFFFFFFFFFFFFFFFFFFFFFFF AND PUSH4 0x70A08231 ADDRESS PUSH1 0x40 MLOAD DUP3 PUSH4 0xFFFFFFFF AND PUSH1 0xE0 SHL DUP2 MSTORE PUSH1 0x4 ADD PUSH2 0xB59 SWAP2 SWAP1 PUSH2 0x1014 JUMP JUMPDEST PUSH1 0x20 PUSH1 0x40 MLOAD DUP1 DUP4 SUB DUP2 DUP7 GAS STATICCALL ISZERO DUP1 ISZERO PUSH2 0xB74 JUMPI RETURNDATASIZE PUSH0 DUP1 RETURNDATACOPY RETURNDATASIZE PUSH0 REVERT JUMPDEST POP POP POP POP PUSH1 0x40 MLOAD RETURNDATASIZE PUSH1 0x1F NOT PUSH1 0x1F DUP3 ADD AND DUP3 ADD DUP1 PUSH1 0x40 MSTORE POP DUP2 ADD SWAP1 PUSH2 0xB98 SWAP2 SWAP1 PUSH2 0x1127 JUMP JUMPDEST SWAP1 POP PUSH0 PUSH1 0x1 PUSH0 SWAP1 SLOAD SWAP1 PUSH2 0x100 EXP SWAP1 DIV PUSH20 0xFFFFFFFFFFFFFFFFFFFFFFFFFFFFFFFFFFFFFFFF AND PUSH20 0xFFFFFFFFFFFFFFFFFFFFFFFFFFFFFFFFFFFFFFFF AND PUSH4 0x70A08231 ADDRESS PUSH1 0x40 MLOAD DUP3 PUSH4 0xFFFFFFFF AND PUSH1 0xE0 SHL DUP2 MSTORE PUSH1 0x4 ADD PUSH2 0xBF5 SWAP2 SWAP1 PUSH2 0x1014 JUMP JUMPDEST PUSH1 0x20 PUSH1 0x40 MLOAD DUP1 DUP4 SUB DUP2 DUP7 GAS STATICCALL ISZERO DUP1 ISZERO PUSH2 0xC10 JUMPI RETURNDATASIZE PUSH0 DUP1 RETURNDATACOPY RETURNDATASIZE PUSH0 REVERT JUMPDEST POP POP POP POP PUSH1 0x40 MLOAD RETURNDATASIZE PUSH1 0x1F NOT PUSH1 0x1F DUP3 ADD AND DUP3 ADD DUP1 PUSH1 0x40 MSTORE POP DUP2 ADD SWAP1 PUSH2 0xC34 SWAP2 SWAP1 PUSH2 0x1127 JUMP JUMPDEST SWAP1 POP PUSH8 0xDE0B6B3A7640000 DUP3 PUSH2 0xC4A SWAP2 SWAP1 PUSH2 0x121D JUMP JUMPDEST PUSH1 0x3 DUP2 SWAP1 SSTORE POP PUSH8 0xDE0B6B3A7640000 DUP2 PUSH2 0xC64 SWAP2 SWAP1 PUSH2 0x121D JUMP JUMPDEST PUSH1 0x4 DUP2 SWAP1 SSTORE POP PUSH1 0x4 SLOAD DUP3 PUSH2 0xC78 SWAP2 SWAP1 PUSH2 0x128B JUMP JUMPDEST PUSH1 0x5 DUP2 SWAP1 SSTORE POP PUSH1 0x3 SLOAD DUP2 PUSH2 0xC8C SWAP2 SWAP1 PUSH2 0x128B JUMP JUMPDEST PUSH1 0x6 DUP2 SWAP1 SSTORE POP PUSH1 0x5 SLOAD PUSH1 0x6 SLOAD SWAP4 POP SWAP4 POP POP POP SWAP1 SWAP2 JUMP JUMPDEST PUSH1 0x5 SLOAD DUP2 JUMP JUMPDEST PUSH1 0x3 SLOAD DUP2 JUMP JUMPDEST PUSH0 DUP1 PUSH0 DUP4 PUSH0 DUP1 SLOAD SWAP1 PUSH2 0x100 EXP SWAP1 DIV PUSH20 0xFFFFFFFFFFFFFFFFFFFFFFFFFFFFFFFFFFFFFFFF AND PUSH20 0xFFFFFFFFFFFFFFFFFFFFFFFFFFFFFFFFFFFFFFFF AND PUSH4 0x70A08231 CALLER PUSH1 0x40 MLOAD DUP3 PUSH4 0xFFFFFFFF AND PUSH1 0xE0 SHL DUP2 MSTORE PUSH1 0x4 ADD PUSH2 0xD0A SWAP2 SWAP1 PUSH2 0x1014 JUMP JUMPDEST PUSH1 0x20 PUSH1 0x40 MLOAD DUP1 DUP4 SUB DUP2 DUP7 GAS STATICCALL ISZERO DUP1 ISZERO PUSH2 0xD25 JUMPI RETURNDATASIZE PUSH0 DUP1 RETURNDATACOPY RETURNDATASIZE PUSH0 REVERT JUMPDEST POP POP POP POP PUSH1 0x40 MLOAD RETURNDATASIZE PUSH1 0x1F NOT PUSH1 0x1F DUP3 ADD AND DUP3 ADD DUP1 PUSH1 0x40 MSTORE POP DUP2 ADD SWAP1 PUSH2 0xD49 SWAP2 SWAP1 PUSH2 0x1127 JUMP JUMPDEST LT ISZERO PUSH2 0xD8A JUMPI PUSH1 0x40 MLOAD PUSH32 0x8C379A000000000000000000000000000000000000000000000000000000000 DUP2 MSTORE PUSH1 0x4 ADD PUSH2 0xD81 SWAP1 PUSH2 0x151F JUMP JUMPDEST PUSH1 0x40 MLOAD DUP1 SWAP2 SUB SWAP1 REVERT JUMPDEST PUSH0 PUSH1 0x5 SLOAD DUP6 PUSH2 0xD99 SWAP2 SWAP1 PUSH2 0x121D JUMP JUMPDEST SWAP1 POP PUSH0 PUSH1 0x6 SLOAD DUP3 PUSH2 0xDAA SWAP2 SWAP1 PUSH2 0x128B JUMP JUMPDEST SWAP1 POP DUP1 PUSH1 0x1 PUSH0 SWAP1 SLOAD SWAP1 PUSH2 0x100 EXP SWAP1 DIV PUSH20 0xFFFFFFFFFFFFFFFFFFFFFFFFFFFFFFFFFFFFFFFF AND PUSH20 0xFFFFFFFFFFFFFFFFFFFFFFFFFFFFFFFFFFFFFFFF AND PUSH4 0x70A08231 ADDRESS PUSH1 0x40 MLOAD DUP3 PUSH4 0xFFFFFFFF AND PUSH1 0xE0 SHL DUP2 MSTORE PUSH1 0x4 ADD PUSH2 0xE07 SWAP2 SWAP1 PUSH2 0x1014 JUMP JUMPDEST PUSH1 0x20 PUSH1 0x40 MLOAD DUP1 DUP4 SUB DUP2 DUP7 GAS STATICCALL ISZERO DUP1 ISZERO PUSH2 0xE22 JUMPI RETURNDATASIZE PUSH0 DUP1 RETURNDATACOPY RETURNDATASIZE PUSH0 REVERT JUMPDEST POP POP POP POP PUSH1 0x40 MLOAD RETURNDATASIZE PUSH1 0x1F NOT PUSH1 0x1F DUP3 ADD AND DUP3 ADD DUP1 PUSH1 0x40 MSTORE POP DUP2 ADD SWAP1 PUSH2 0xE46 SWAP2 SWAP1 PUSH2 0x1127 JUMP JUMPDEST LT ISZERO PUSH2 0xE87 JUMPI PUSH1 0x40 MLOAD PUSH32 0x8C379A000000000000000000000000000000000000000000000000000000000 DUP2 MSTORE PUSH1 0x4 ADD PUSH2 0xE7E SWAP1 PUSH2 0x1305 JUMP JUMPDEST PUSH1 0x40 MLOAD DUP1 SWAP2 SUB SWAP1 REVERT JUMPDEST PUSH0 DUP1 SLOAD SWAP1 PUSH2 0x100 EXP SWAP1 DIV PUSH20 0xFFFFFFFFFFFFFFFFFFFFFFFFFFFFFFFFFFFFFFFF AND PUSH20 0xFFFFFFFFFFFFFFFFFFFFFFFFFFFFFFFFFFFFFFFF AND PUSH4 0x23B872DD CALLER ADDRESS DUP10 PUSH1 0x40 MLOAD DUP5 PUSH4 0xFFFFFFFF AND PUSH1 0xE0 SHL DUP2 MSTORE PUSH1 0x4 ADD PUSH2 0xEE3 SWAP4 SWAP3 SWAP2 SWAP1 PUSH2 0x1323 JUMP JUMPDEST PUSH1 0x20 PUSH1 0x40 MLOAD DUP1 DUP4 SUB DUP2 PUSH0 DUP8 GAS CALL ISZERO DUP1 ISZERO PUSH2 0xEFF JUMPI RETURNDATASIZE PUSH0 DUP1 RETURNDATACOPY RETURNDATASIZE PUSH0 REVERT JUMPDEST POP POP POP POP PUSH1 0x40 MLOAD RETURNDATASIZE PUSH1 0x1F NOT PUSH1 0x1F DUP3 ADD AND DUP3 ADD DUP1 PUSH1 0x40 MSTORE POP DUP2 ADD SWAP1 PUSH2 0xF23 SWAP2 SWAP1 PUSH2 0x138D JUMP JUMPDEST POP PUSH1 0x1 PUSH0 SWAP1 SLOAD SWAP1 PUSH2 0x100 EXP SWAP1 DIV PUSH20 0xFFFFFFFFFFFFFFFFFFFFFFFFFFFFFFFFFFFFFFFF AND PUSH20 0xFFFFFFFFFFFFFFFFFFFFFFFFFFFFFFFFFFFFFFFF AND PUSH4 0x23B872DD ADDRESS CALLER DUP5 PUSH1 0x40 MLOAD DUP5 PUSH4 0xFFFFFFFF AND PUSH1 0xE0 SHL DUP2 MSTORE PUSH1 0x4 ADD PUSH2 0xF82 SWAP4 SWAP3 SWAP2 SWAP1 PUSH2 0x1323 JUMP JUMPDEST PUSH1 0x20 PUSH1 0x40 MLOAD DUP1 DUP4 SUB DUP2 PUSH0 DUP8 GAS CALL ISZERO DUP1 ISZERO PUSH2 0xF9E JUMPI RETURNDATASIZE PUSH0 DUP1 RETURNDATACOPY RETURNDATASIZE PUSH0 REVERT JUMPDEST POP POP POP POP PUSH1 0x40 MLOAD RETURNDATASIZE PUSH1 0x1F NOT PUSH1 0x1F DUP3 ADD AND DUP3 ADD DUP1 PUSH1 0x40 MSTORE POP DUP2 ADD SWAP1 PUSH2 0xFC2 SWAP2 SWAP1 PUSH2 0x138D JUMP JUMPDEST POP DUP6 DUP3 DUP3 SWAP5 POP SWAP5 POP SWAP5 POP POP POP SWAP2 SWAP4 SWAP1 SWAP3 POP JUMP JUMPDEST PUSH0 PUSH20 0xFFFFFFFFFFFFFFFFFFFFFFFFFFFFFFFFFFFFFFFF DUP3 AND SWAP1 POP SWAP2 SWAP1 POP JUMP JUMPDEST PUSH0 PUSH2 0xFFE DUP3 PUSH2 0xFD5 JUMP JUMPDEST SWAP1 POP SWAP2 SWAP1 POP JUMP JUMPDEST PUSH2 0x100E DUP2 PUSH2 0xFF4 JUMP JUMPDEST DUP3 MSTORE POP POP JUMP JUMPDEST PUSH0 PUSH1 0x20 DUP3 ADD SWAP1 POP PUSH2 0x1027 PUSH0 DUP4 ADD DUP5 PUSH2 0x1005 JUMP JUMPDEST SWAP3 SWAP2 POP POP JUMP JUMPDEST PUSH0 DUP1 REVERT JUMPDEST PUSH0 DUP2 SWAP1 POP SWAP2 SWAP1 POP JUMP JUMPDEST PUSH2 0x1043 DUP2 PUSH2 0x1031 JUMP JUMPDEST DUP2 EQ PUSH2 0x104D JUMPI PUSH0 DUP1 REVERT JUMPDEST POP JUMP JUMPDEST PUSH0 DUP2 CALLDATALOAD SWAP1 POP PUSH2 0x105E DUP2 PUSH2 0x103A JUMP JUMPDEST SWAP3 SWAP2 POP POP JUMP JUMPDEST PUSH0 PUSH1 0x20 DUP3 DUP5 SUB SLT ISZERO PUSH2 0x1079 JUMPI PUSH2 0x1078 PUSH2 0x102D JUMP JUMPDEST JUMPDEST PUSH0 PUSH2 0x1086 DUP5 DUP3 DUP6 ADD PUSH2 0x1050 JUMP JUMPDEST SWAP2 POP POP SWAP3 SWAP2 POP POP JUMP JUMPDEST PUSH2 0x1098 DUP2 PUSH2 0x1031 JUMP JUMPDEST DUP3 MSTORE POP POP JUMP JUMPDEST PUSH0 PUSH1 0x60 DUP3 ADD SWAP1 POP PUSH2 0x10B1 PUSH0 DUP4 ADD DUP7 PUSH2 0x108F JUMP JUMPDEST PUSH2 0x10BE PUSH1 0x20 DUP4 ADD DUP6 PUSH2 0x108F JUMP JUMPDEST PUSH2 0x10CB PUSH1 0x40 DUP4 ADD DUP5 PUSH2 0x108F JUMP JUMPDEST SWAP5 SWAP4 POP POP POP POP JUMP JUMPDEST PUSH0 PUSH1 0x20 DUP3 ADD SWAP1 POP PUSH2 0x10E6 PUSH0 DUP4 ADD DUP5 PUSH2 0x108F JUMP JUMPDEST SWAP3 SWAP2 POP POP JUMP JUMPDEST PUSH0 PUSH1 0x40 DUP3 ADD SWAP1 POP PUSH2 0x10FF PUSH0 DUP4 ADD DUP6 PUSH2 0x108F JUMP JUMPDEST PUSH2 0x110C PUSH1 0x20 DUP4 ADD DUP5 PUSH2 0x108F JUMP JUMPDEST SWAP4 SWAP3 POP POP POP JUMP JUMPDEST PUSH0 DUP2 MLOAD SWAP1 POP PUSH2 0x1121 DUP2 PUSH2 0x103A JUMP JUMPDEST SWAP3 SWAP2 POP POP JUMP JUMPDEST PUSH0 PUSH1 0x20 DUP3 DUP5 SUB SLT ISZERO PUSH2 0x113C JUMPI PUSH2 0x113B PUSH2 0x102D JUMP JUMPDEST JUMPDEST PUSH0 PUSH2 0x1149 DUP5 DUP3 DUP6 ADD PUSH2 0x1113 JUMP JUMPDEST SWAP2 POP POP SWAP3 SWAP2 POP POP JUMP JUMPDEST PUSH0 DUP3 DUP3 MSTORE PUSH1 0x20 DUP3 ADD SWAP1 POP SWAP3 SWAP2 POP POP JUMP JUMPDEST PUSH32 0x596F7520686176656E277420656E6F7567682062616C616E6365206F6620546F PUSH0 DUP3 ADD MSTORE PUSH32 0x6B656E4220000000000000000000000000000000000000000000000000000000 PUSH1 0x20 DUP3 ADD MSTORE POP JUMP JUMPDEST PUSH0 PUSH2 0x11BC PUSH1 0x25 DUP4 PUSH2 0x1152 JUMP JUMPDEST SWAP2 POP PUSH2 0x11C7 DUP3 PUSH2 0x1162 JUMP JUMPDEST PUSH1 0x40 DUP3 ADD SWAP1 POP SWAP2 SWAP1 POP JUMP JUMPDEST PUSH0 PUSH1 0x20 DUP3 ADD SWAP1 POP DUP2 DUP2 SUB PUSH0 DUP4 ADD MSTORE PUSH2 0x11E9 DUP2 PUSH2 0x11B0 JUMP JUMPDEST SWAP1 POP SWAP2 SWAP1 POP JUMP JUMPDEST PUSH32 0x4E487B7100000000000000000000000000000000000000000000000000000000 PUSH0 MSTORE PUSH1 0x11 PUSH1 0x4 MSTORE PUSH1 0x24 PUSH0 REVERT JUMPDEST PUSH0 PUSH2 0x1227 DUP3 PUSH2 0x1031 JUMP JUMPDEST SWAP2 POP PUSH2 0x1232 DUP4 PUSH2 0x1031 JUMP JUMPDEST SWAP3 POP DUP3 DUP3 MUL PUSH2 0x1240 DUP2 PUSH2 0x1031 JUMP JUMPDEST SWAP2 POP DUP3 DUP3 DIV DUP5 EQ DUP4 ISZERO OR PUSH2 0x1257 JUMPI PUSH2 0x1256 PUSH2 0x11F0 JUMP JUMPDEST JUMPDEST POP SWAP3 SWAP2 POP POP JUMP JUMPDEST PUSH32 0x4E487B7100000000000000000000000000000000000000000000000000000000 PUSH0 MSTORE PUSH1 0x12 PUSH1 0x4 MSTORE PUSH1 0x24 PUSH0 REVERT JUMPDEST PUSH0 PUSH2 0x1295 DUP3 PUSH2 0x1031 JUMP JUMPDEST SWAP2 POP PUSH2 0x12A0 DUP4 PUSH2 0x1031 JUMP JUMPDEST SWAP3 POP DUP3 PUSH2 0x12B0 JUMPI PUSH2 0x12AF PUSH2 0x125E JUMP JUMPDEST JUMPDEST DUP3 DUP3 DIV SWAP1 POP SWAP3 SWAP2 POP POP JUMP JUMPDEST PUSH32 0x5468657265206973206E6F7420656E6F756768204C6971756964697479000000 PUSH0 DUP3 ADD MSTORE POP JUMP JUMPDEST PUSH0 PUSH2 0x12EF PUSH1 0x1D DUP4 PUSH2 0x1152 JUMP JUMPDEST SWAP2 POP PUSH2 0x12FA DUP3 PUSH2 0x12BB JUMP JUMPDEST PUSH1 0x20 DUP3 ADD SWAP1 POP SWAP2 SWAP1 POP JUMP JUMPDEST PUSH0 PUSH1 0x20 DUP3 ADD SWAP1 POP DUP2 DUP2 SUB PUSH0 DUP4 ADD MSTORE PUSH2 0x131C DUP2 PUSH2 0x12E3 JUMP JUMPDEST SWAP1 POP SWAP2 SWAP1 POP JUMP JUMPDEST PUSH0 PUSH1 0x60 DUP3 ADD SWAP1 POP PUSH2 0x1336 PUSH0 DUP4 ADD DUP7 PUSH2 0x1005 JUMP JUMPDEST PUSH2 0x1343 PUSH1 0x20 DUP4 ADD DUP6 PUSH2 0x1005 JUMP JUMPDEST PUSH2 0x1350 PUSH1 0x40 DUP4 ADD DUP5 PUSH2 0x108F JUMP JUMPDEST SWAP5 SWAP4 POP POP POP POP JUMP JUMPDEST PUSH0 DUP2 ISZERO ISZERO SWAP1 POP SWAP2 SWAP1 POP JUMP JUMPDEST PUSH2 0x136C DUP2 PUSH2 0x1358 JUMP JUMPDEST DUP2 EQ PUSH2 0x1376 JUMPI PUSH0 DUP1 REVERT JUMPDEST POP JUMP JUMPDEST PUSH0 DUP2 MLOAD SWAP1 POP PUSH2 0x1387 DUP2 PUSH2 0x1363 JUMP JUMPDEST SWAP3 SWAP2 POP POP JUMP JUMPDEST PUSH0 PUSH1 0x20 DUP3 DUP5 SUB SLT ISZERO PUSH2 0x13A2 JUMPI PUSH2 0x13A1 PUSH2 0x102D JUMP JUMPDEST JUMPDEST PUSH0 PUSH2 0x13AF DUP5 DUP3 DUP6 ADD PUSH2 0x1379 JUMP JUMPDEST SWAP2 POP POP SWAP3 SWAP2 POP POP JUMP JUMPDEST PUSH32 0x4E6F7420656E6F75676820546F6B656E41000000000000000000000000000000 PUSH0 DUP3 ADD MSTORE POP JUMP JUMPDEST PUSH0 PUSH2 0x13EC PUSH1 0x11 DUP4 PUSH2 0x1152 JUMP JUMPDEST SWAP2 POP PUSH2 0x13F7 DUP3 PUSH2 0x13B8 JUMP JUMPDEST PUSH1 0x20 DUP3 ADD SWAP1 POP SWAP2 SWAP1 POP JUMP JUMPDEST PUSH0 PUSH1 0x20 DUP3 ADD SWAP1 POP DUP2 DUP2 SUB PUSH0 DUP4 ADD MSTORE PUSH2 0x1419 DUP2 PUSH2 0x13E0 JUMP JUMPDEST SWAP1 POP SWAP2 SWAP1 POP JUMP JUMPDEST PUSH32 0x4E6F7420656E6F75676820546F6B656E42000000000000000000000000000000 PUSH0 DUP3 ADD MSTORE POP JUMP JUMPDEST PUSH0 PUSH2 0x1454 PUSH1 0x11 DUP4 PUSH2 0x1152 JUMP JUMPDEST SWAP2 POP PUSH2 0x145F DUP3 PUSH2 0x1420 JUMP JUMPDEST PUSH1 0x20 DUP3 ADD SWAP1 POP SWAP2 SWAP1 POP JUMP JUMPDEST PUSH0 PUSH1 0x20 DUP3 ADD SWAP1 POP DUP2 DUP2 SUB PUSH0 DUP4 ADD MSTORE PUSH2 0x1481 DUP2 PUSH2 0x1448 JUMP JUMPDEST SWAP1 POP SWAP2 SWAP1 POP JUMP JUMPDEST PUSH0 PUSH1 0x40 DUP3 ADD SWAP1 POP PUSH2 0x149B PUSH0 DUP4 ADD DUP6 PUSH2 0x1005 JUMP JUMPDEST PUSH2 0x14A8 PUSH1 0x20 DUP4 ADD DUP5 PUSH2 0x108F JUMP JUMPDEST SWAP4 SWAP3 POP POP POP JUMP JUMPDEST PUSH32 0x796F7520686176656E277420656E6F7567682062616C616E6365206F6620546F PUSH0 DUP3 ADD MSTORE PUSH32 0x6B656E4120000000000000000000000000000000000000000000000000000000 PUSH1 0x20 DUP3 ADD MSTORE POP JUMP JUMPDEST PUSH0 PUSH2 0x1509 PUSH1 0x25 DUP4 PUSH2 0x1152 JUMP JUMPDEST SWAP2 POP PUSH2 0x1514 DUP3 PUSH2 0x14AF JUMP JUMPDEST PUSH1 0x40 DUP3 ADD SWAP1 POP SWAP2 SWAP1 POP JUMP JUMPDEST PUSH0 PUSH1 0x20 DUP3 ADD SWAP1 POP DUP2 DUP2 SUB PUSH0 DUP4 ADD MSTORE PUSH2 0x1536 DUP2 PUSH2 0x14FD JUMP JUMPDEST SWAP1 POP SWAP2 SWAP1 POP JUMP INVALID LOG2 PUSH5 0x6970667358 0x22 SLT KECCAK256 0x4B 0xCE CALLCODE MULMOD 0xDA PUSH30 0xB0ECD8FCC850F32A0A05555BAC8E0922DBB9720B6A00C8976CEB64736F6C PUSH4 0x43000814 STOP CALLER "
				},
				"gasEstimates": {
					"creation": {
						"codeDepositCost": "1098200",
						"executionCost": "infinite",
						"totalCost": "infinite"
					},
					"external": {
						"AtoB(uint256)": "infinite",
						"BtoA(uint256)": "infinite",
						"addLiquidity(uint256)": "infinite",
						"checkPool()": "infinite",
						"swapRate()": "infinite",
						"tokenA()": "2506",
						"tokenAPrice()": "2491",
						"tokenB()": "2530",
						"tokenBPrice()": "2492",
						"totalA()": "2513",
						"totalB()": "2470"
					}
				},
				"methodIdentifiers": {
					"AtoB(uint256)": "c4a11910",
					"BtoA(uint256)": "1382e263",
					"addLiquidity(uint256)": "51c6590a",
					"checkPool()": "4771218a",
					"swapRate()": "698518e5",
					"tokenA()": "0fc63d10",
					"tokenAPrice()": "88d35559",
					"tokenB()": "5f64b55b",
					"tokenBPrice()": "43c93333",
					"totalA()": "b629640b",
					"totalB()": "193491b5"
				}
			},
			"storageLayout": {
				"storage": [
					{
						"astId": 4,
						"contract": "3_Token Swap/DEX.sol:DEX",
						"label": "tokenA",
						"offset": 0,
						"slot": "0",
						"type": "t_address"
					},
					{
						"astId": 6,
						"contract": "3_Token Swap/DEX.sol:DEX",
						"label": "tokenB",
						"offset": 0,
						"slot": "1",
						"type": "t_address"
					},
					{
						"astId": 8,
						"contract": "3_Token Swap/DEX.sol:DEX",
						"label": "tokenOwner",
						"offset": 0,
						"slot": "2",
						"type": "t_address"
					},
					{
						"astId": 10,
						"contract": "3_Token Swap/DEX.sol:DEX",
						"label": "totalA",
						"offset": 0,
						"slot": "3",
						"type": "t_uint256"
					},
					{
						"astId": 12,
						"contract": "3_Token Swap/DEX.sol:DEX",
						"label": "totalB",
						"offset": 0,
						"slot": "4",
						"type": "t_uint256"
					},
					{
						"astId": 14,
						"contract": "3_Token Swap/DEX.sol:DEX",
						"label": "tokenAPrice",
						"offset": 0,
						"slot": "5",
						"type": "t_uint256"
					},
					{
						"astId": 16,
						"contract": "3_Token Swap/DEX.sol:DEX",
						"label": "tokenBPrice",
						"offset": 0,
						"slot": "6",
						"type": "t_uint256"
					}
				],
				"types": {
					"t_address": {
						"encoding": "inplace",
						"label": "address",
						"numberOfBytes": "20"
					},
					"t_uint256": {
						"encoding": "inplace",
						"label": "uint256",
						"numberOfBytes": "32"
					}
				}
			},
			"userdoc": {
				"kind": "user",
				"methods": {},
				"version": 1
			}
		}
	}
}